:020000040800F2
:10000000100800206D02000837200008591E000863
:1000100035200008BD100008D323000800000000B0
:100020000000000000000000000000003B2000086D
:10003000BF10000800000000392000083D20000823
:10004000870200088702000887020008870200086C
:10005000870200088702000887020008870200085C
:10006000870200088702000887020008870200084C
:10007000870200088702000887020008870200083C
:10008000870200088702000887020008870200082C
:10009000870200088702000887020008870200081C
:1000A000870200088702000887020008870200080C
:1000B00087020008870200088702000887020008FC
:1000C00087020008870200088702000887020008EC
:1000D00087020008870200088702000887020008DC
:1000E00087020008870200088702000887020008CC
:1000F00087020008870200088702000887020008BC
:1001000087020008870200088702000887020008AB
:10011000870200088702000887020008870200089B
:10012000870200088702000887020008870200088B
:10013000870200088702000887020008870200087B
:10014000870200088702000887020008870200086B
:10015000870200088702000887020008870200085B
:10016000870200088702000887020008870200084B
:1001700087020008870200088702000800000000CC
:10018000870200088702000887020008870200082B
:10019000870200088702000887020008870200081B
:1001A00000000000000000008702000800F002F8D4
:1001B00000F04CF80AA090E8000C82448344AAF1B5
:1001C0000107DA4501D100F041F8AFF2090EBAE8B3
:1001D0000F0013F0010F18BFFB1A43F0010318477B
:1001E0005C2300007C230000103A24BF78C878C14B
:1001F000FAD8520724BF30C830C144BF04680C602D
:10020000704700000023002400250026103A28BF74
:1002100078C1FBD8520728BF30C148BF0B60704778
:10022000642900F05381732900F09A8200207047FE
:100230001FB502F06FF99DE8030000F0C9F900F066
:10024000DFFA1FBD10B500F044FB10BD00F0AFFB9E
:100250001146FFF7EDFF02F0DBF800F077FD03B485
:10026000FFF7F0FF03BC00F0AFFD00000948804736
:1002700009480047FEE7FEE7FEE7FEE7FEE7FEE788
:10028000FEE7FEE7FEE7FEE704480549054A064BA0
:1002900070470000E1200008AD01000810020020B6
:1002A00010080020100400201004002070B506463D
:1002B00000F072F9056806F10B0020F00704B44263
:1002C0009CBF002070BD2B466A68BAB11068A0427E
:1002D00010D304F1080188423CBF5068586007D32E
:1002E0005168101941601168091B01605860146061
:1002F000101D70BD13465268002AE7D121462846DA
:1003000000F052F90028DED170BD53EA020C00F073
:1003100069802DE9F04B4FF00006002B1FBFB3FAA8
:1003200083F503FA05F424FA05F65E4012BF16437E
:10033000B2FA82F502FA05F4C5F120051EBF22FAD1
:1003400005FC44EA0C04203556EA044C4FEA1444F8
:1003500018BF641C4FF000084FF00009904271EB89
:10036000030C39D3002919BFB1FA81F701FA07F656
:10037000B0FA80F700FA07F6C7F120071EBF20FA8F
:1003800007FC46EA0C062037B6FBF4FCA7EB050792
:10039000103F07F01F0BCBF120060CFA0BFB2CFAD9
:1003A00006F644BFB3460026202FA4BF5E464FF09A
:1003B000000B5BEA060C08BF4FF0010B19EB0B09B1
:1003C000ABFB027C48EB0608C01B06FB02CC0BFB18
:1003D00003CC71EB0C01C1E70B460246414648468F
:1003E000BDE8F08B13B54FF000004FF00001AFF304
:1003F0000080BDE81C4070470FB4044910B503AA43
:10040000029800F0B1F910BC5DF814FB0401002063
:100410002DE9F0410E460446002020622046E168A6
:10042000884730B3252805D0D4E901219047206AB8
:10043000401CF2E7E168204600278847050018D0F5
:10044000A5F14100192802D820354FF40067324643
:10045000294620462760FFF7E3FE40B1012804D07B
:10046000F61D26F007060836D8E7361DD6E72846DB
:10047000DAE7206ABDE8F08170B50C460546012A2E
:1004800005D02878800600D5EA69002302E0012320
:1004900005E05B1C934202D2E05C0028F9D1A86918
:1004A000E618C01AA861286A184428622846AFF3E3
:1004B000008004E0D5E9012114F8010B9047B44213
:1004C000F8D32846AFF3008070BD00002DE9F0415D
:1004D0000646002410687529314616A510D0AFF3E2
:1004E0000080002802DA404213A507E031688A073D
:1004F00001D512A502E0490704D511A5012401E0A8
:10050000AFF3008000210A2206F1240709E0B0FBC6
:10051000F2FCB0FBF2F302FB1C00303078541846BA
:10052000491C0028F3D123462A463046BDE8F04155
:1005300000F0ABB8000000002D0000002B00000010
:10054000200000004FF0000200B513469446964686
:10055000203922BFA0E80C50A0E80C50B1F12001D6
:10056000BFF4F7AF090728BFA0E80C5048BF0CC084
:100570005DF804EB890028BF40F8042B08BF7047E2
:1005800048BF20F8022B11F0804F18BF00F8012B54
:10059000704770477047704700487047B4010020AB
:1005A000704770477047704738B504460A460020C8
:1005B0006946AFF30080002808BF38BD02460099A5
:1005C000204600F0E7F8012038BD012000F0B4B962
:1005D000F8B5AFF30080054600200C46102000BFA0
:1005E0000646A819A0420DD9324669460020AFF34D
:1005F0000080070008BF00F09FF90098A04218BFD4
:100600000546C419FFF7C8FF05600746F01D20F036
:1006100007004619284600F00AF8B44208BFF8BDA2
:10062000A21B31463868BDE8F84000F0B3B800219D
:100630000160C0E9011070471020704770B5044692
:10064000051FFFF7A9FF0068002C14BF446870BDA8
:10065000002C18BFAC423CBF20466468F8D3016848
:100660000A18AA4218BF456003D12A6805461144FA
:10067000016028684119A1421CBF6C6070BD6168AF
:10068000696021680844286070BD2DE9F0470D4677
:1006900099469246044600F124080168880604D56C
:1006A000E06921F01001216000E00120A84201DD95
:1006B000471B00E00027A1697A1902EB0900081A1C
:1006C000A0612078C00602D42046AFF30080002647
:1006D00008E0D4E901211AF806009047206A401C7E
:1006E000761C20624E45F4DB2078C0060AD52046F1
:1006F000AFF3008006E0D4E9012130209047206A62
:10070000401C2062381EA7F10107F4DC07E0D4E9A1
:10071000012118F805009047206A401C2062281E1D
:10072000A5F10105F3DC2046AFF300802078000638
:1007300002D50220BDE8F0870120FBE710B5436930
:1007400013B1AFF3008001E0FFF796FE012010BD6A
:10075000127800F124010A7000224A700122EDE7AC
:1007600011684FF0FF32E9E7074B70B50D467B4447
:1007700000F02FF80446284600F03EF810B14FF084
:10078000FF3070BD204670BD831C000000487047DC
:10079000AC010020034640688C46002818BF884200
:1007A0003CBF03464068F8D318681844884207D015
:1007B0000CF1030020F00700001D411A521A0146F7
:1007C000081D0A60FFF73ABF01694A1C02610878F8
:1007D000704700B58FB0CDE9013100210591054981
:1007E0007944CDE9031011466846FFF711FE0FB0BA
:1007F00000BD0000E5FFFFFF007B00F080007047B8
:1008000010B542485421FFF79DFE41485421FFF79F
:1008100099FE40485421FFF795FE3F493B483C4A2A
:100820003F4B08603D490A603A491960531C036513
:10083000481C1065012008653B48344A39A17844BA
:1008400000F0E8F920B9384878440A3800F08CFA0A
:1008500037482F4A35A1784400F0DCF920B93448F4
:1008600078440A3800F080FA32482A4A2FA17844A6
:1008700000F0D0F920B92F4878440A3800F074FA13
:1008800040232248DC000021224600F0A0F920B1DC
:1008900025487844543800F067FA1D482246402322
:1008A000002100F094F920B121487844543800F038
:1008B0005BFA184822461023002100F088F900282E
:1008C00006D01C487844BDE81040563800F04CBAB9
:1008D00010BD104870B5006D20F001040B4800F009
:1008E0000FFA0B4800F00CFA0A4800F009FA09E088
:1008F000206D20F00105204600F002FA2046FFF7A7
:100900009DFE2C46002CF3D170BD0000B0000020ED
:1009100004010020580100201400002018000020CD
:100920001C00002072000000EC1C0000770000009A
:10093000D81C0000C41C000010B500F01DFABDE872
:10094000104000F00CBA0EB5CDE9000100F06AFBD2
:10095000029069460120ABBE0EBD08B56946009005
:100960000220ABBE08BD1FB58DE807006946052013
:10097000ABBE04B010BD1FB58DE80F006946062060
:10098000ABBEF6E708B5694600900920ABBE08BDCE
:100990001CB5CDE9000169460A20ABBE1CBD7047FD
:1009A00008B5694600900C20ABBE08BD704775467F
:1009B000FFF7ECFEAE4605006946534620F00700FF
:1009C000854618B020B5FFF75FFCBDE820404FF02A
:1009D00000064FF000074FF000084FF0000B21F029
:1009E0000701AC46ACE8C009ACE8C009ACE8C009F6
:1009F000ACE8C0098D4670472DE9F04705460C4626
:100A0000C86820F4201040F48000C860800602D539
:100A1000084600F0B2FAE06841F282014FF0FF3977
:100A20000140022903D0204600F050FAB5E000F45E
:100A30002041B1F5004F0FD1C00306D56168E06ACF
:100A4000884200D80846606006E02069E062606085
:100A50006069FFF7A5FFA061A0680022EEB2002840
:100A60000DDAE1688B050AD4C043A06041F49030F0
:100A70002260E0606068411C61600670A5E0E0688B
:100A80009046226040F40050E060206968BB6069D5
:100A9000FFF778FF012704F12405A0B1A08910F425
:100AA000407F08D0E069FFF701FC206118B1E068E1
:100AB00040F4006016E0E7612561E06820F44070D2
:100AC00040F480600EE0E069FFF7F0FB0028206151
:100AD000F1D0E06840F4006010F4407FE06002D1A3
:100AE00040F48070E06020696060E06825696FF024
:100AF000010AC1051FD56168E06A884200D808462E
:100B0000411B04D02246284600F0EAF9F0BBE06819
:100B1000010203D5E562C4E9015854E0691CE162B1
:100B20006160E16940F48030491EC4E9021030463A
:100B30002E70BDE8F087010202D500F480320AE091
:100B40006068411C61600670E0680A2E40F48030E5
:100B5000E06006D00022E16A6068814203D90B465A
:100B600002E00122F7E70346A7895B1B7F0503D458
:100B7000E7699F4200DDE2B1814200D80146E562AB
:100B80000F1AC4E90158002B09DD00E005E02246F8
:100B90001946284600F0A4F908B14846C9E747B10C
:100BA000A069E5626560C01BA061E06840F01000CC
:100BB000E060E068000208D56168A069E562491B51
:100BC00008446560A0615046B3E73046B1E770B5B0
:100BD000C468A50713D0650211D4B2F5807F09D08F
:100BE000B2F5007F06D0B2F5806F08D1012300F185
:100BF000240106E05D1E6FF07F46B54201D301205F
:100C000070BD0161C361416024F470611143C16032
:100C1000002070BD2DE9F0410C46074616461046EF
:100C200000F06EF82078611C61280AD0722802D08A
:100C300077283CD102E00125002405E002250424A8
:100C400002E0082448F2020511F8010B2B2806D017
:100C5000622809D011F8010C74280AD00BE045F085
:100C6000030544F00204EFE745F0040544F00104F5
:100C7000EAE744F0100438462146FFF764FE411CC1
:100C800015D00021316171604FF40071F560F161A0
:100C90007061200704D530460222002100F09AF846
:100CA000306D40F0010030653046BDE8F081002035
:100CB000FBE72DE9F0410D460646104C206DC107BB
:100CC00004D0410804D020F00104F7E722460EE0EA
:100CD0005420FFF7EBFA07000ED0206D47F001011A
:100CE0000843542120653846FFF72CFC3A46294634
:100CF0003046BDE8F0418DE70020D6E7B000002087
:100D00002DE9F04704464FF000094FF0FF37C56862
:100D1000D4E90486A80707D0204600F00BF9304636
:100D2000FFF71BFE002802DA3846BDE8F0872805E9
:100D300002D54046FFF782FC4C212046FFF702FC1B
:100D4000206D20F0010020654846EEE710B504460E
:100D5000AFF300802046BDE81040FFF780BA0028BE
:100D600001D000F031B8704710B500F041F9BDE88E
:100D70001040FFF7F4BF000010B5012805D0002196
:100D800003A000F01BF9012010BD09A1F8E7000045
:100D900053494752544D454D3A204F7574206F6664
:100DA0002068656170206D656D6F727900000000CC
:100DB0003A2048656170206D656D6F727920636FB0
:100DC000727275707465640001491820ABBEFEE74D
:100DD000260002002DE9F041044616460D464769FB
:100DE000007B80072ED03846FFF7CCFD50BB3EB3CA
:100DF000012E02D0022E25D104E0204600F038F961
:100E000005441DE03846FFF7CBFDE168002841F0BE
:100E10001001E16005DA204600F058F80120BDE835
:100E2000F081C9030BD56268E16A914200D811468E
:100E3000A26911442269891A814200DD08460544ED
:100E4000002D01DA0220EAE7E16A6068E268814287
:100E500006D29103E06203D522F4003141F0100282
:100E6000A6690027AE4213DCE16A814201D90B4634
:100E700000E0034603EB060C2369ACEB030CAC4526
:100E800006DD814201D98C4600E084469C4505D1AF
:100E9000A760276042F02000A5620DE0AD1BE66967
:100EA000AE1B8142A66000D90846C01A281A2060ED
:100EB0005819606022F0200003490840E0600020DB
:100EC00084F84870ABE70000BFCFD7FFC16821F4BA
:100ED000001141F08001C160002181600160704714
:100EE0002DE9F047814614460E464FF0FF38324850
:100EF000D5685769054209D03846A169FFF748FD12
:100F0000002811DB2C48C0430540E5602B463246E3
:100F100049463846FFF727FDA16920F00042B21A82
:100F200011440028A16103D02046FFF7CFFF4046BF
:100F3000BDE8F08770B504460569C06A61688842FB
:100F400000D80846E16821F42011E160C90312D5F8
:100F5000A84208D02246411B2846FFF7C1FF10B126
:100F60004FF0FF3070BD0020E562C4E90150E06839
:100F700020F48030E060002070BD10B50446C068E9
:100F800020F02000E060A16AA06988420DD02046D0
:100F9000FFF7D0FFE06820F4405040F01000E06020
:100FA000A06AA0612069E062606044F24001E068EC
:100FB0008843E06010BD00001000020070B50546D7
:100FC0000C460A2000E06D1C00F04BF835B1287883
:100FD0000028F8D102E0641C00F043F814B1207836
:100FE0000028F8D1BDE870400A2000F03AB80000AF
:100FF00010B5014602A0FFF7E1FF012010BD00007F
:1010000053494752545245443A20526564697265C7
:1010100063743A2063616E2774206F70656E3A20A6
:101020000000000010B5431C02E010F8011B71B174
:101030008107FAD14FF0013202C88C1A8C4314EAAE
:10104000C211F9D0C01A0A0603D0C01E10BDC01AC2
:1010500010BD0A0401D0801E10BD0902FCD0401E44
:1010600010BD08B569468DF800000320ABBE08BD71
:1010700010B50146C268900703D0900607D5886A6C
:101080000AE000F017F801210160881E10BD8B698D
:10109000486818440B69C01A91F848301BB191F8A0
:1010A0004910401A10BD1103FCD50028FADD401E7E
:1010B00010BD000000487047AC010020FEE77047FB
:1010C00072B6FEE72DE9F84FDFF8F8A100220124FF
:1010D00003254FF00F090AF1040BAAF1040E00BF1B
:1010E0000B6804FA02F63340B34270D10F7907F06F
:1010F0000307012F01D0022F16D187684FEA42085B
:1011000005FA08FC27EA0C07D1F80CC00CFA08FC19
:101110004CEA070CC0F808C04768B7430E79C6F31D
:10112000001696403E4346600E79F643B6070AD055
:10113000C7684FEA420C05FA0CF6B7438E6806FA08
:101140000CF63E43C6600E7906F00306022E10D15F
:10115000D60800EB8608D8F8206057074FEAD76C0E
:1011600009FA0CF7BE430F6907FA0CF73743C8F8C2
:10117000207006684FEA420C05FA0CF7BE430F795F
:1011800007F0030707FA0CF7374307604E6816F4B9
:10119000403F1CD04C4E376847F480473760366874
:1011A00022F0030706F480460096484E07EB060C33
:1011B000DCF8086897073F0F09FA07F826EA0806DF
:1011C000DFF80C81404503D14FF0000841E072E0A8
:1011D000DFF80081404502D14FF0010839E0DFF827
:1011E000F880404502D14FF0020832E0DFF8EC8091
:1011F000404502D14FF003082BE0DFF8E480404582
:1012000002D14FF0040824E0DFF8D880404502D135
:101210004FF005081DE0DFF8D080404502D14FF0C7
:10122000060816E0DFF8C480404502D14FF00708F9
:101230000FE0DFF8BC80404502D14FF0080808E01D
:10124000DFF8B080404502D14FF0090801E04FF0CF
:101250000A0808FA07F848EA0608CCF80888DAF815
:1012600000605746D1F804C09E435FEACC2C00D5FD
:101270001E433E60DBF800605F46D1F804C09E4329
:101280005FEA8C2C00D51E433E60DEF80060774696
:10129000D1F804C09E435FEA8C3C00D51E433E60FB
:1012A000084F083F3E68D1F804C09E435FEACC3C3B
:1012B00000D51E433E60521C102AFFF411AFBDE85A
:1012C000F88F0000083C01404438024000300140E3
:1012D000000002400004024000080240000C0240EE
:1012E000001002400014024000180240001C02409E
:1012F000002002400024024001488068704700003E
:10130000040000200248816802781144816070471F
:10131000040000200B4810B5016841F40071016021
:10132000016841F480610160016841F480710160ED
:10133000032000F061F80F2000F006F800F024F818
:10134000002010BD003C024070B50D4D04464FF426
:101350007A712878B1FBF0F00A490968B1FBF0F026
:1013600000F016FB48B9102C07D200222146501E6F
:1013700000F022F800206C6070BD012070BD0000FC
:1013800004000020100000200A4808B5016841F45C
:1013900080410160006800F4804000900548001F13
:1013A000016841F080510160006800F080500090B9
:1013B00008BD000044380240F0B40E4B1B680C46D8
:1013C000C3F30223C3F10705042D00D90425191D19
:1013D000072901D2002300E0DB1E012606FA05F1F1
:1013E000491E214099409E40761E16403143F0BC74
:1013F00000F0F0BF0CED00E0064900F007020868BD
:101400004FF6FF03184040EA0220034A10430860E9
:10141000704700000CED00E00000FA052DE9F843EC
:101420001748016841F0805101600068154F00F0D5
:101430008050012600903E64FFF75EFF05464FF4A2
:101440007A78114C05E000BFFFF756FF401B40457E
:101450000DD86068C003F7D57E64FFF74DFF0546E1
:10146000464607E0FFF748FF401BB04202D9032081
:10147000BDE8F88360688003F4D50020F8E7000039
:101480004038024000000E42007000402DE9F04755
:101490000E46050065D0DFF81481D8F80000F7B2D9
:1014A00000F00F00B04207D288F80070D8F80000B2
:1014B00000F00F00B04254D128683D4C810712D58E
:1014C000400703D5206840F4E050206028780007EA
:1014D00003D5206840F4604020602068A96820F0AF
:1014E000F000084320602878C0072DD03049686894
:1014F0000839012812D0022813D0032811D0096816
:10150000890700292DDA216821F0030101432160B8
:10151000FFF7F2FE814641F2883A0EE0096889033E
:10152000EFE709688901ECE7FFF7E6FEA0EB0901A8
:10153000514502D90320BDE8F0872068696800F0B2
:101540000C00B0EB810FEFD1D8F80010404601F04D
:101550000F01B14207D90770006800F00F00B042D8
:1015600001D00120E7E72878400705D52068E96821
:1015700020F4E050084320602878000706D5206852
:10158000296920F4604040EAC100206000F018F8AA
:101590002168084AC1F30311515CC840064908603C
:1015A00006480068FFF7D0FE0020C4E7003C024078
:1015B000083802401E250008100000200800002006
:1015C000154810B5006810F00C02144813D01449E7
:1015D000042A0FD0082A0ED10F4C241F226823683A
:1015E00002F03F025B0207D52068C0F38810A0FB21
:1015F000010106E0084610BD2168C1F38811A1FB76
:1016000000010023FEF781FE2168C1F30141491C5E
:101610004900B0FBF1F010BD083802400024F4008E
:1016200040787D012DE9F84F04006ED02078DFF876
:101630004C93C007A9F104054AD009F104000168E0
:10164000C1F38101012908D00068C0F3810002289C
:101650000AD1D9F80000400206D52868800337D5A2
:1016600060680028E1D033E06068B0F5803F10D0BA
:10167000B0F5A02F286810D020F4803028602868AA
:1016800020F4802028606068A8B1FFF735FE064688
:101690000DE0286840F48030F4E740F480202860B2
:1016A000F7E700BFFFF728FE801B642873D828687F
:1016B0008003F7D50CE0FFF71FFE064605E000BFEC
:1016C000FFF71AFE801B6428F0D828688003F7D43F
:1016D0002078DFF8AC8280074FF0000A3ED5A7489B
:1016E000001D016811F00C0F08D00068C0F38100E4
:1016F00002280BD1D9F80000400207D428688007DF
:1017000016D5E068012800D112E033E1E068B8B1F5
:101710000120C8F80000FFF7EFFD064605E000BF16
:10172000FFF7EAFD801B0228C0D828688007F7D59C
:101730002868216920F0F80040EAC10028600DE027
:10174000C8F800A0FFF7D8FD064604E0FFF7D4FD77
:10175000801B02281FD828688007F7D4207800074C
:1017600022D5864F87486169703771B101210160C8
:10177000FFF7C2FD064604E0FFF7BEFD801B02280E
:1017800009D838688007F7D50EE0C0F800A0FFF749
:10179000B3FD064605E082E0FFF7AEFD801B0228A0
:1017A0007DD838688007F7D42078400768D5DFF8FF
:1017B000CCB100270BF13C0BDBF80000C0000BD4D0
:1017C000DBF8001041F08051CBF80010DBF800008E
:1017D000012700F0805000906B4E3068C00510D497
:1017E000306840F480703060FFF786FD009005E0BF
:1017F000FFF782FD0099401A022850D83068C005D2
:10180000F6D55E4EA0686C3601280FD005283068EA
:1018100010D020F001003060306820F0040030600B
:10182000A068B8B1FFF768FD00900FE0306840F0A5
:101830000100F4E740F004003060F7E7FFF75CFDDB
:101840000099411A41F28830814266D83068800799
:10185000F4D50EE0FFF750FD009007E0FFF74CFDD8
:101860000099411A41F28830814256D83068800789
:10187000F4D42FB1DBF8001021F08051CBF8001028
:10188000A069C8B33D49091D0968C1F38101022956
:101890004AD00228504607D0C8F8600000E03CE07B
:1018A000FFF72AFD04463BE04746C8F86000FFF713
:1018B00023FD064605E000BFFFF71EFD801B022842
:1018C0002BD828688001F7D4D4E907010843A16A1E
:1018D0002E4A490802EB0141626A41EA821108433B
:1018E00094F82C1040EA0161C9F800100120386614
:1018F000FFF702FD044606E03EE000BFFFF7FCFCF8
:10190000001B022809D828688001F7D534E000BF01
:10191000FFF7F2FC001B022802D90320BDE8F88F74
:1019200028688001F4D427E00128F7D0D9F8000016
:10193000E26900F4800191421CD1226A00F03F016B
:10194000914217D147F6C071626A0140B1EB821F24
:1019500010D1A26A4FF0FF3300F4403103EB520282
:10196000B1EB024F06D194F82C1000F07060B0EB90
:10197000016F01D00120D1E70020CFE704380240F9
:1019800000004742800E4742007000400000FFFF09
:1019900010B5401EB0F1807F01D3012010BD4FF083
:1019A000E02460610F21601700F014FD0020A061A9
:1019B00007202061002010BD70B590F83C20012A5E
:1019C00032D0012480F83C40022280F83D20036898
:1019D0005A689D6822F070060A6832435A60134BB9
:1019E00002689A4214D0B2F1804F11D0104B9A4243
:1019F0000ED0104B9A420BD00F4B9A4208D00F4B8F
:101A00009A4205D00E4B9A4202D00E4B9A4204D114
:101A1000496825F080031943916080F83D4000211A
:101A200080F83C10084670BD022070BD00000140E7
:101A30000004004000080040000C00400004014089
:101A4000004001400018004010B5040003D094F895
:101A50003D0010B107E0012010BD002084F83C00DB
:101A6000204600F01FF8022084F83D00211D206868
:101A700000F03EFB012084F8460084F83E0084F824
:101A80003F0084F8400084F8410084F8420084F864
:101A9000430084F8440084F8450084F83D000020A9
:101AA00010BD000008B50C4A01680C48914207D1EE
:101AB000016841F004010160006800F0040009E0E1
:101AC000074A914207D1016841F0080101600068AE
:101AD00000F00800009008BD0008004040380240B7
:101AE000000C004070B5044690F83C000025012829
:101AF00017D0012684F83C60022084F83D0020685D
:101B0000826822F0770222F47F42826008685028BF
:101B100038D00DDC20284FD005DC90B3102811D12F
:101B20004AE0022070BD302846D040280AD13BE070
:101B300060282FD070280DD0B0F5805F03D0B0F5AD
:101B4000005F12D0012584F83D60002084F83C003D
:101B5000284670BDCB68D1E90121206800F041FB27
:101B60002068816841F0770109E0CB68D1E9012163
:101B7000206800F036FB2068816841F48041816074
:101B8000E1E719E0CA684968206800F0FFFB5021CE
:101B9000206806E0CA684968206800F008FC6021F7
:101BA000206800F028FBCEE7CA684968206800F08A
:101BB000EDFB40212068F4E7226801461046F0E77B
:101BC00030B587B0044614216846FEF7BBFC204AB6
:101BD000216800241F48022591420FD1016841F07D
:101BE000080101600068694600F0080005904FF4A4
:101BF00070400090CDE90154174823E0174A914204
:101C000024D1016841F480710160016801F48071A0
:101C10000591016841F0800101600068694600F0AB
:101C20008000059001200090CDE901540C48CDE9D9
:101C30000345FFF747FA4FF4E0500090CDE9015417
:101C400008486946CDE90345FFF73CFA07B030BDC7
:101C50000008004030380240000C0240000C0040F8
:101C600000200240001C024070B5044690F83C0081
:101C700000260D4601280FD0012084F83C006AB1EF
:101C8000042A1DD0082A2FD00C2A3FD0012600207C
:101C900084F83C00304670BD022070BD206800F022
:101CA000B3FA2068816941F0080181612068816987
:101CB00021F004018161206881692A69114311E0E2
:101CC000206800F0D1FA2068816941F400618161E7
:101CD0002068816921F480618161206881692A69B5
:101CE00041EA02218161D2E7206800F0F3FA20681E
:101CF000C16941F00801C1612068C16921F0040196
:101D0000C1612068C1692A69114311E0206800F0AF
:101D100015FB2068C16941F40061C1612068C16997
:101D200021F48061C1612068C1692A6941EA022108
:101D3000C161ACE710B5040003D094F83D0010B1C8
:101D400007E0012010BD002084F83C00204600F090
:101D50001EF8022084F83D00211D206800F0C8F91B
:101D6000012084F8460084F83E0084F83F0084F89F
:101D7000400084F8410084F8420084F8430084F86D
:101D8000440084F8450084F83D00002010BD7047F1
:101D900010B50446022249B104290ED0082913D0F7
:101DA00094F84100012816D0012010BD94F83E009F
:101DB0000128F9D184F83E200FE094F83F00012873
:101DC000F2D184F83F2008E094F840000128EBD1DC
:101DD00084F8402001E084F841200122206800F0CE
:101DE000F3F916492068164A884201D0904203D17F
:101DF000436C43F4004343642068884213D0B0F13D
:101E0000804F10D00F4988420DD00F4988420AD028
:101E10000E49884207D0904205D00D49884202D031
:101E20000C49884204D1816801F00701062903D0DA
:101E3000016841F001010160002010BD0000014077
:101E4000000401400004004000080040000C004075
:101E50000040014000180040FEE70000114808B5AE
:101E6000016841F001010160016801F00101009188
:101E7000016841F480710160016801F48071009192
:101E8000016841F080010160016801F0800100916A
:101E9000016841F008010160006800F0080000904E
:101EA00008BD00003038024010B58EB00024079401
:101EB000089409940A940B941C2168460C94FEF72C
:101EC00041FB2A48284901605921C0E9011444F620
:101ED0001F61C0E903148461FFF7B6FD08B1FFF785
:101EE000EFF84FF48050079007A92048FFF7FAFD5C
:101EF00008B1FFF7E5F81D48FFF71CFF08B1FFF731
:101F0000DFF80B940BA919480C94FFF755FD08B1A5
:101F1000FFF7D6F86020CDE900040294002269465C
:101F200012480494FFF7A0FE08B1FFF7C9F8042295
:101F300069460E48FFF798FE08B1FFF7C1F808227E
:101F400069460A48FFF790FE08B1FFF7B9F80C227E
:101F500069460648FFF788FE08B1FFF7B1F8034865
:101F6000FFF72EFE0EB010BD00080040200000203C
:101F700010B58EB000240794089409940A940B9429
:101F80001C2168460C94FEF7DDFA29482749C0E970
:101F90000014611EC0E9024104618461FFF754FD31
:101FA00008B1FFF78DF84FF48050079007A920483B
:101FB000FFF798FD08B1FFF783F81D48FFF7BAFE59
:101FC00008B1FFF77DF80B940BA919480C94FFF7A3
:101FD000F3FC08B1FFF774F86020CDE90004029427
:101FE0000022694612480494FFF73EFE08B1FFF74D
:101FF00067F8042269460E48FFF736FE08B1FFF77E
:102000005FF8082269460A48FFF72EFE08B1FFF77D
:1020100057F80C2269460648FFF726FE08B1FFF77D
:102020004FF80348FFF7CCFD0EB010BD000C004088
:1020300068000020FEE7FEE770477047FFF762B9CF
:1020400030B593B030216846FEF77CFA14210CA815
:10205000FEF778FA20480025016841F080510160C0
:10206000006800F0805011901C48016841F4404124
:1020700001600068022400F44040119001200390A8
:1020800010200490009406940820CDE90750B42055
:10209000CDE9090404200B906846FFF7C3FA08B1A4
:1020A00072B6FEE7FFF7BAF908B172B6FEE70CA9FF
:1020B0000F2081E831004FF4A0500F904FF4805072
:1020C000109005210CA8FFF7E1F9002801D072B6A5
:1020D000FEE713B030BD0000403802400070004001
:1020E0000248016841F470010160704788ED00E02A
:1020F000F0B50268294C2A4D2A4E2B4F2B4B4FF03E
:10210000804CA04209D0604507D0A84205D0B0421B
:1021100003D0B84201D0984204D122F0700E4A6830
:1021200042EA0E02A0421BD0604519D0A84217D047
:10213000B04215D0B84213D0984211D01C4DA842DD
:102140000ED01C4DA8420BD01B4DA84208D01B4DF1
:10215000A84205D01A4DA84202D01A4DA84203D178
:1021600022F44075CA682A434D6922F080022A434E
:1021700002608A68C2620A688262A04201D0984204
:1021800001D109690163012141610169C90703D0D6
:10219000016921F001010161F0BD00000000014072
:1021A0000004004000080040000C00400004014012
:1021B0000040014000440140004801400018004038
:1021C000001C00400020004010B501F01F03012159
:1021D000046A99408C430462016A9A401143016287
:1021E00010BD10B5846842EA032224F47F440A43F8
:1021F0002243826010BD826822F070020A4342F0DE
:102200000701816070470000F0B5036A026A22F09E
:102210000102026242688469124E24F073050C6860
:102220002C4323F002058B682B430D4DA84201D0AF
:10223000B04205D123F00807CB683B4323F00403E9
:10224000A84201D0B04205D14D6922F44072154335
:102250008A692A4342608461496841630362F0BD30
:102260000000014000040140F0B5026A036A23F057
:1022700010030362436884690D6824F4E64444EA69
:1022800005248D6822F0200242EA05120F4D104EFF
:10229000A84201D0B04206D1CF6822F0800242EAC3
:1022A000071222F04002A84201D0B04207D14D6986
:1022B00023F4406343EA85038D6943EA8503436061
:1022C0008461496881630262F0BD00000000014042
:1022D00000040140F0B5026A036A23F480730362CC
:1022E0004368C46922F4007224F073050C68124E2E
:1022F0002C438D6842EA05220E4DA84201D0B0421F
:1023000006D1CF6822F4006242EA072222F48062FA
:10231000A84201D0B04207D14D6923F4405343EAAB
:1023200005138D6943EA05134360C4614968C163BD
:102330000262F0BD000001400004014030B5046AB3
:10234000026A22F4805202624268C3690D6823F473
:10235000E64343EA05238D6824F4005444EA053437
:10236000084DA84202D0084DA84204D14D6922F47C
:10237000804242EA85124260C36149680164046296
:1023800030BD0000000001400004014010B5036AA8
:10239000046A24F001040462846924F0F00444EA2D
:1023A000021423F00A020A438461026210BD10B5D0
:1023B000036A046A24F010040462846923F0A00311
:1023C00024F4704444EA023243EA0111826101625A
:1023D00010BDFEE70907090E002804DB00F1E0202C
:1023E00080F80014704700F00F0000F1E02080F842
:1023F000141D70478A68002A01DCFEF7FDBA521EE0
:102400008A604A68C0B2531C4B60107070477047B6
:10241000FEF780FFFFF714FEFFF720FDFFF744FDF6
:10242000FFF7A6FD00221146014800F01FF8FEE765
:1024300020000020B42900D9B4210B4A128851434E
:1024400089B2018105C832B1042A07D00068082A80
:1024500007D001647047006841637047006881637A
:102460007047C16370470000000000202DE9F04173
:10247000074615460E461420FDF718FF040004D148
:102480000C2219A11DA0FDF7B7FFC4E900761E4973
:102490006581384609884D4325811C49E1601C4906
:1024A00021613146FFF774FC20B113220EA113A065
:1024B000FDF7A2FF606850B104280DD021680828FC
:1024C000208909680DD008642046BDE8F0812168A4
:1024D000208909684863F7E72168208909688863CB
:1024E000F2E7C863F0E700002E2E5C436F72655C74
:1024F0005372635C73746565722E63004552524F6C
:10250000523A25732C256400000000200F24000897
:10251000352400084FF04070E1EE100A70470000CB
:1025200000000000000001020304060708093A74D5
:1025300074003A7474003A74740000005C2500085A
:102540000000002020000000E80100087C250008B1
:1025500020000020F007000004020008D00700005F
:102560000100000010000000000000000024F40042
:0C2570000000000000000000000000005F
:04000005080001AD41
:00000001FF
