:020000040800F2
:10000000A8520020850200085D380008153200085B
:10001000593800087B0E0008054300080000000066
:10002000000000000000000000000000C501000802
:100030007F0E000800000000210200088B39000834
:100040009F0200089F0200089F0200089F0200080C
:100050009F0200089F020008810E00089F0200080E
:100060009F0200089F0200089F0200089F020008EC
:100070009F0200089F0200089F0200089F020008DC
:100080009F0200089F0200089F0200089F020008CC
:100090009F0200089F0200089F0200089F020008BC
:1000A0009F020008753A00089F0200089F0200089E
:1000B000853A0008953A00089F0200089F02000850
:1000C0009F0200089F0200089F0200089F0200088C
:1000D0009F0200089F0200089F0200089F0200087C
:1000E0009F0200089F0200089F0200089F0200086C
:1000F0009F0200089F020008A53A00089F0200081E
:100100009F0200089F0200089F0200089F0200084B
:100110009F0200089F0200089F0200089F0200083B
:100120009F0200089F0200089F0200089F0200082B
:100130009F0200089F0200089F0200089F0200081B
:100140009F0200089F0200089F0200089F0200080B
:100150009F0200089F0200089F0200089F020008FB
:100160009F0200089F0200089F0200089F020008EB
:100170009F0200089F0200089F0200080000000084
:100180009F0200089F020008F13D0008013E0008A0
:100190009F0200089F0200089F0200089F020008BB
:1001A00000000000000000009F020008DFF810D0EF
:1001B00000F00CFE00480047B5500008AFF3008087
:1001C000A85200202C4B19680868B0E8F04F80F363
:1001D0000988BFF36F8F4FF0000080F311887047DC
:1001E0000000000008480068006880F308884FF0AD
:1001F000000080F3148862B661B6BFF34F8FBFF37F
:100200006F8F00DF00BF00BF08ED00E0DFF80C00DB
:10021000016841F470010160704700BF88ED00E0A3
:10022000EFF30980BFF36F8F134B1A681EF0100FA6
:1002300008BF20ED108A20E9F04F106009B44FF09C
:10024000500080F31188BFF34F8FBFF36F8F06F01C
:1002500041FF4FF0000080F3118809BC196808685D
:10026000B0E8F04F1EF0100F08BFB0EC108A80F31A
:100270000988BFF36F8F7047A0000020EFF305805F
:10028000704700000648804706480047FEE7FEE743
:10029000FEE7FEE7FEE7FEE7FEE7FEE7FEE7FEE736
:1002A000613A0008AD0100082DE9F05F0546002025
:1002B00092469B4688460646814640241BE02846D7
:1002C00041464746224600F0C8FB53465A46C01AEC
:1002D000914110D311461846224600F0AFFB2D1A6B
:1002E00067EB01084F4622460120002100F0A6FBE3
:1002F00017EB00094E41201EA4F10104DFDC484643
:1003000031462A464346BDE8F09FA0F14101192934
:1003100000D82030704740EA01039B0703D009E072
:1003200008C9121F08C0042AFAD203E011F8013BE1
:1003300000F8013B521EF9D27047D2B201E000F83A
:10034000012B491EFBD270470022F6E710B5134679
:100350000A4604461946FFF7F0FF204610BD421C2E
:1003600010F8011B0029FBD1801A704710B500223C
:1003700000E0521C835C8C5CA34201D1002BF8D1BD
:10038000D8B2E1B2401A10BD30B505460020034690
:1003900000E05B1C934205D2EC5CC85C201A01D1E2
:1003A000002CF6D130BD00002DE9FF4F087883B056
:1003B0009946FF2805D0491C2D2804D00024002090
:1003C00008E000200BE00124F9E700EB800003EBDC
:1003D0004000491C0B78FF2BF7D104B140420023A9
:1003E0000293147819461D462D2C01D02B2C04D1D4
:1003F000521C2D2C13D000240294AA461478FF2CF2
:100400000FD00A25A3FB057801FB05814FF0000CF6
:1004100003FB0C11521CE3194AEB0101EEE7012426
:10042000EAE7814453EA010002D019F5C87F06DAF1
:1004300003980021C0E9001107B0BDE8F08F002546
:10044000AE4E2F46DFF8B882184600F09AFCCDE990
:100450000001B9F1000002DAC9F1000400E004462D
:100460000023A74A1AEB030B42EB045A12E0E00701
:1004700007D02A4633463846414600F0ECF9074695
:1004800088462A4633461046194600F0E4F90546E8
:100490000E466410002CEAD1DDE90001B9F1000F2D
:1004A0005A46534606DA00F0FDFB3A46434600F052
:1004B000F9FB05E000F0CFF93A46434600F0CBF9EE
:1004C000029A0AB181F00041039AC2E90001B3E740
:1004D0002DE9FF4F1F468DB0D7E901464FF0FF3899
:1004E0002E2045464FF000090B90B9696D1C0E98FF
:1004F0008847396A824688470028F6D1BAF1FF3F1B
:100500000AD024F4D064002E11DDBAF12B0F08D0EC
:10051000BAF12D0F0BD102E0404611B08DE744F443
:100520008064B9696D1C0E9888478246761E6946BC
:10053000600501D52D2000E02B208DF8000001F191
:10054000010B0DF1200809E0B9696D1C0E98884770
:1005500082460F9844F40074761E0560002E02DD7A
:10056000BAF1300FF0D00B998A453ED144F08004A7
:1005700006E00F99681CA9F1010944F400740860B1
:10058000B9696D1C761E0E98884782463028F0D0D7
:100590002BE00B998A4505D1200603D444F0800452
:1005A000761E18E0504604F01DF808B30DF1130153
:1005B000761E44F400748B4508D2AAF130000BF883
:1005C000010B200607D5A9F1010003E0200602D4A3
:1005D00009F101008146A00502D50F99681C086049
:1005E000B9696D1C0E9888478246002ED1DC53E015
:1005F000002E51DDBAF1650F02D0BAF1450F4BD193
:10060000A00549D5B9696D1C24F44074761E0E9876
:1006100088478246002E0CDD2B2804D0BAF12D0F1E
:1006200007D144F48074B9696D1C0E9888478246DE
:10063000761EE00501D52D2100E02B2108F8011BD5
:10064000CDF82C8021E00DF12901761E44F40074D0
:1006500088450CD2AAF1300010F0FF0088F80000A5
:1006600002D10B99884509D908F1010806E0E00597
:1006700001D5244801E042F20F708146B9696D1C32
:100680000E98884782460F980560002E04DD50467C
:1006900003F0A8FF0028D6D1F9690E988847FF20FB
:1006A0008BF8000088F800000020069007904B4669
:1006B0006A4608A906A8FFF777FEA00502D46FF0E6
:1006C00001002AE714F0240F0AD0E00714D1DDE975
:1006D00006123868031D3B600068C0E900120BE099
:1006E000DDE9060100F078F90146E00704D1386839
:1006F000021D3A600068016028460EE700001440C1
:100700000000F03FF1D8FFFF2DE9FE4F804681EA5F
:100710000300C00F0C46009021F0004123F000457B
:10072000B8EB0200A94105D24046214690461C463E
:100730000B46024623F00040104347D0270DC7F375
:100740000A00C3F30A510290401A019040286BDA64
:10075000C3F3130040F4801B0098924620B100239D
:10076000D2EB030A63EB0B0B01985946C0F1400230
:10077000504600F063F906460D4650465946019A28
:1007800000F07BF910EB08006141002487EA115268
:1007900084EAE7731A4340D0009A62B3019A012AAF
:1007A0004FEA075215DC001B61EB02014FF00042DB
:1007B00002EA0752CDE90042001C41F580113246A1
:1007C0002B4600F021FA03B0BDE8F08F40462146E9
:1007D000F9E7001B61EB0201001C41F580130018D2
:1007E0005B412018A2F5001747EB030140EAD570E2
:1007F000B6196D4111E06D084FEA360645EAC0753D
:100800004FEA0752001B61EB0201001C41F5801109
:1008100049084FEA30000019514132462B4603B0D7
:10082000BDE8F04F00F0E1B900980122400000233C
:10083000D0EB020263EBE073009821464FEAE074CC
:10084000B8EB000061EB0401E9E783F000435BE7EC
:1008500081F0004158E72DE9FE4F81EA030404F0DE
:10086000004421F0004100944FF0000B23F00043BE
:1008700050EA01045ED052EA03045BD0C3F30A5489
:10088000C1F30A552C44A4F2F3340194A0FB0254A2
:10089000C1F3130141F48011C3F3130343F4801334
:1008A00001FB024400FB034E840A970A44EA815488
:1008B00047EA8357A4FB076802958D0A05FB078565
:1008C0004FEA932C04FB0C542705029D4FEA06586F
:1008D00047EA1637B5EB08056EEB070C870E920E4C
:1008E00047EA811742EA8312A7FB0201B6EB0B012C
:1008F00064EB00042B0D43EA0C335E1844EB1C50F0
:10090000DA465146E7FB0201C5F313044FEA0B3305
:1009100043EA14534FEA0432019C43EA0603A4F16C
:100920000C040294009CCDE900B400F06DF903B012
:10093000BDE8F08F00200146F9E770B5C1F30A5217
:1009400001F000450024C1F3130140F2FF3341F4EC
:1009500080119A4201DA002070BD40F233439A427E
:10096000A2F2334203DC524200F077F800E09040FC
:100970002C43F1D0404270BD30B5041E71F100042B
:1009800004DB4FF00044404264EB0101141E73F19C
:10099000000405DB1C464FF00043524263EB0403A6
:1009A0008B4208BF824230BD30B5041E71F1000495
:1009B00004DB4FF00044404264EB0101141E73F16C
:1009C000000405DB1C464FF00043524263EB040376
:1009D000994208BF904230BD01F0004330B421F08D
:1009E000004150EA010206D00A0DA2F56072C1F37F
:1009F0001301002A02DC30BC00207047440F44EA97
:100A0000C104C100E01830BC00EBC25000F0B6B821
:100A100030B50B46014600202022012409E021FACE
:100A200002F59D4205D303FA02F5491B04FA02F5CB
:100A30002844151EA2F10102F1DC30BD202A04DB9E
:100A4000203A00FA02F1002070479140C2F12003E1
:100A500020FA03F3194390407047202A04DB203A20
:100A600021FA02F00021704721FA02F3D040C2F1CE
:100A700020029140084319467047202A06DBCB1715
:100A8000203A41FA02F043EAE07306E041FA02F349
:100A9000D040C2F120029140084319467047426895
:100AA00042B1016811F8013B23B1521EC0E90012A6
:100AB000184670470121C160881E704742685AB1CC
:100AC000C368016843B983688B4205D0491E521C34
:100AD000C0E90012002070474FF0FF30704700005F
:100AE0000FB4002300B589B00CA900910B996FF0E9
:100AF0000042CB601E4B06931E4B07930423CDE9A7
:100B000001321D4A089202466B460020FFF7E0FCC6
:100B100009B05DF814FB70B586B006464FF0FF30A3
:100B20000091CDE90101002015460C4604903246A3
:100B3000694604A8FFF7D4FF02460498211825B19E
:100B400008B1084600E020462860049800280DD02F
:100B5000002A02DD0098884208D0081B0094CDE9E5
:100B600001043246694604A8FFF7BAFF06B070BD1B
:100B70009F0A0008BD0A0008F10D00080029A8BF5F
:100B80007047401C490008BF20F00100704710B4B6
:100B9000B0FA80FC00FA0CF050EA010404BF10BC6B
:100BA000704749B1CCF1200421FA04F411FA0CF198
:100BB00018BF012121430843A3EB0C01CB1D4FEAD1
:100BC00000614FEA102042BF002010BC704700EBCC
:100BD000C35010440029A4BF10BC7047401C4900FA
:100BE00008BF20F0010010BC704710B5141E73F14F
:100BF000000408DA401C41F1000192185B411A43DD
:100C000001D120F0010010BD2DE9F04D92469B4628
:100C100011B1B1FA81F202E0B0FA80F220329046CE
:100C2000FFF70CFF04460F4640EA0A0041EA0B01B9
:100C300053465A46084313D0114653EA010019D0CF
:100C4000C8F140025046FFF708FF05460E465046E1
:100C500059464246FFF7F2FE084305D0012004E062
:100C600020463946BDE8F08D0020054346EAE0768F
:100C70002C4337430A986305E40AA0EB08000022DE
:100C8000FD0A44EA47540A3002D500200146E9E74C
:100C9000010510196941DDE9084500196941BDE800
:100CA000F04DA2E72DE9F04D81EA030404F0004B7A
:100CB00021F0004514464FF0000A23F0004150EAAD
:100CC000050220D054EA01021DD0C5F30A5702469E
:100CD000C5F31303C1F31300C1F30A5640F48015A2
:100CE00043F48013A7EB0608101BD64608F2FD3824
:100CF00073EB050002D308F1010801E092185B4193
:100D0000B8F1000F03DA00200146BDE8F08D0020A5
:100D10004FF48011064684460EE0171B73EB05075F
:100D200005D3121B63EB050306434CEA010C49088B
:100D30004FEA300092185B4150EA0107EDD152EAC8
:100D4000030012D082EA040083EA0501084305D0BB
:100D5000101BAB4106D20122002306E000224FF017
:100D6000004302E06FF0010253101AEB06004CEB57
:100D7000085110EB0A0041EB0B01BDE8F04DFFF705
:100D800034BF0EB540F2334202920022CDE9002278
:100D90001346FFF739FF03B000BDC1F30A52C1F398
:100DA000130140F2FF3341F480119A4202DA00202D
:100DB0000146704740F233439A42A2F2334202DCCA
:100DC0005242FFF74ABEFFF739BE0000064C074DFE
:100DD00006E0E06840F0010394E80700984710340B
:100DE000AC42F6D3FFF7E6F9F4820008148300085A
:100DF000C0B24FF4F05100F001B800007F2801D9D3
:100E0000002208E0064A02EB5002C007127800D127
:100E1000120902F00F0201209040084070470000C4
:100E20008C82000870B58C1810F8015B15F0070370
:100E300001D110F8013B2A1106D110F8012B03E073
:100E400010F8016B01F8016B5B1EF9D12B0705D47B
:100E50000023521E0DD401F8013BFAE710F8013BC4
:100E6000CB1A921C03E013F8015B01F8015B521EE0
:100E7000F9D5A142D8D3002070BD00BFFEE770476E
:100E800010B5012000F094F810BD72B600BFFEE767
:100E900070B50446A56D00F0A7F9064694F8350034
:100EA000022808D08020606500BF002084F834004C
:100EB00000BF012070BD2068006820F01600216886
:100EC00008602068406920F0800021684861206C3B
:100ED00008B9A06C28B12068006820F008002168DB
:100EE00008602068006820F001002168086010E0B8
:100EF00000F07AF9801B05280BD9202060650320BB
:100F000084F8350000BF002084F8340000BF0320BF
:100F1000D0E72068006800F001000028E8D194F8CC
:100F20005C103F208840A860012084F8350000BF95
:100F3000002084F8340000BF00BFBBE7014691F8F1
:100F40003500022803D08020486501207047052025
:100F500081F835000868006820F001000A68106018
:100F60000020F3E710B504460E48007850B9002081
:100F70000D49096848620C4800F076FF01200949D4
:100F800008700EE00748007801280AD1064800687A
:100F9000406A06490860044801F008F80020014949
:100FA000087010BD18000020D80100201400002097
:100FB00010B5044604480068204020B1024804608F
:100FC0002046FFF7CFFF10BD143C0140F8B50246A4
:100FD0000B460025002400200021E0E0012606FA4F
:100FE00001F51E6806EA0504AC4274D11E7906F0CC
:100FF0000306012E04D01E7906F00306022E13D13B
:1010000090684F000326BE40B0434F00DE68BE40EC
:1010100030439060506801268E40B0431E79C6F37D
:1010200000168E40304350601E7906F00306032EF2
:1010300009D0D0684F000326BE40B0434F009E68E1
:10104000BE403043D0601E7906F00306022E13D155
:10105000CF0802F1200656F827004E07F70E0F269C
:10106000BE40B0434F07FF0E1E69BE403043CF085D
:1010700002F1200646F8270010684F000326BE4004
:10108000B0431E7906F003064F00BE4030431060A7
:101090005E6806F44036002E1DD000BF0026009684
:1010A000414E366846F480463F4F3E603E463668C5
:1010B00006F48046009600BF00BF3C4E8F0856F8ED
:1010C00027008E07370F0F26BE40B043384EB2427E
:1010D00002D100262EE061E0364EB24201D1012657
:1010E00028E0354EB24201D1022623E0334EB2420F
:1010F00001D103261EE0324EB24201D1042619E08E
:10110000304EB24201D1052614E02F4EB24201D139
:1011100006260FE02D4EB24201D107260AE02C4EE2
:10112000B24201D1082605E02A4EB24201D1092679
:1011300000E00A268F073F0FBE4030431B4E8F084A
:1011400046F82700244E3068A0435E6806F48016F7
:1011500006B12043204E3060361D3068A0435E68E3
:1011600006F4001606B120431B4E361D30601A4EA1
:10117000361F3068A0435E6806F4003606B120438F
:10118000154E361F3060361F3068A0435E6806F487
:10119000803606B12043104E083E3060491C1029AD
:1011A000FFF41CAFF8BD000044380240083801408D
:1011B000000002400004024000080240000C02400F
:1011C000001002400014024000180240001C0240BF
:1011D0000020024000240240083C01400AB1816125
:1011E00001E00B048361704701480068704700000C
:1011F0009000002003480068034909780844014929
:1012000008607047900000209800002010B50D483D
:10121000006840F400700B4908600846006840F41C
:10122000806008600846006840F480700860032011
:1012300000F0D6F80F2000F007F800F055F8002075
:1012400010BD0000003C0240F0B587B00446002607
:10125000002700BF002000901E48006840F00100F9
:101260001C4908600846006800F00100009000BFBB
:1012700000BF01A902A800F0CFF900F005FA46006E
:101280001548B6FBF0F0471E14481549086040F2B7
:10129000E7311348C16047600021016181608161CD
:1012A00000F03EFD054695B90D4800F02BFE0546C1
:1012B0006DB9192000F042F8102C07D20022214607
:1012C000192000F04FF80748046000E00125284687
:1012D00007B0F0BD4438024040420F00000001401A
:1012E000880300209400002008B500BF0020009073
:1012F0001148006840F480400F49086008460068C3
:1013000000F48040009000BF00BF00BF00200090AC
:10131000081F006840F08050091F086008460068F8
:1013200000F08050009000BF00BF00220F21901EEF
:1013300000F018F808BD0000443802400146084695
:1013400000280DDB00BF00BF00F01F0301229A4000
:1013500043099B0003F1E023C3F8002100BF00BF55
:1013600000BF70472DE9F05F80460D461646002706
:1013700002F0DAFF074639462A46334601F00700F5
:10138000C0F1070ABAF1040F02D94FF0040A01E0D4
:10139000C0F1070AD14600F1040ABAF1070F02D2E0
:1013A0004FF0000A01E0A0F1030AD4464FF0010A11
:1013B0000AFA09FAAAF1010A0AEA020A0AFA0CFA76
:1013C0004FF0010B0BFA0CFBABF1010B0BEA030B1B
:1013D0004AEA0B042146404602F0AEFFBDE8F09F0A
:1013E00000BF00F00702064B19684FF6FF031940D3
:1013F000044B0B4343EA0221014B196000BF7047C5
:101400000CED00E00000FA0538B5002400BF002014
:1014100000901D48006840F080501B490860084655
:10142000006800F08050009000BF00BF0120174905
:101430000864FFF7D9FE044607E0FFF7D5FE001B5E
:10144000B0F57A7F01D9032038BD1148406800F417
:101450008030B0F5803FF0D101200C494864FFF79F
:10146000C3FE044607E0FFF7BFFE001BB0F57A7F1E
:1014700001D90320E8E70648406800F40030B0F5E1
:10148000003FF0D10020DFE74038024000000E426C
:101490000070004070B504460D460CB9012070BDC7
:1014A0005848006800F00F00A84209D255490D7055
:1014B0000846006800F00F00A84201D00120EEE7C6
:1014C000207800F0020002281DD1207800F00400EE
:1014D000042805D14C48006840F4E0504A490860AF
:1014E000207800F00800082805D14748006840F43B
:1014F0006040454908604448006820F0F000A16859
:10150000084341490860207800F00100A8B36068F2
:10151000012807D13C4808380068C0F34040B8B9FA
:101520000120BCE76068022802D06068032807D168
:10153000354808380068C0F3406048B90120AEE77C
:10154000314808380068C0F3400008B90120A6E718
:101550002D48006820F00300616808432A490860AC
:10156000FFF742FE064609E0FFF73EFE801B41F210
:101570008831884202D9032091E707E022480068B9
:1015800000F00C006168B0EB810FEDD11D480068E0
:1015900000F00F00A84209D91A490D7008460068EA
:1015A00000F00F00A84201D0012078E7207800F079
:1015B0000400042807D11448006820F4E050E168D2
:1015C000084311490860207800F00800082808D175
:1015D0000D48006820F46040216940EAC1000A49D2
:1015E000086000F061F808490968C1F30311074A6F
:1015F000515CC8400649086006480068FFF724FEB1
:1016000000204CE7003C0240083802407482000889
:101610009C000020940000200F2202600D4A1268F6
:1016200002F0030242600B4A126802F0F00282608C
:10163000084A126802F4E052C260064A126802F4D4
:101640006042D2080261044A126802F00F020A6086
:101650007047000008380240003C02400148006822
:10166000704700009C00002000B5FFF7F7FF044919
:101670000968C1F38221034A515CC84000BD0000E3
:10168000083802408482000800B5FFF7E7FF0449EC
:101690000968C1F34231034A515CC84000BD0000F3
:1016A00008380240848200082DE9F0470024002514
:1016B0000026A1462548006800F00C0020B104284F
:1016C00005D008283AD105E0DFF8849039E0DFF84A
:1016D000849036E01D48001F006800F03F041B485E
:1016E000001F006800F4800078B11A481749091FEC
:1016F0000968C1F38811A0FB01700146224600234E
:101700003846FEF7D1FD05460EE011480F49091F86
:101710000968C1F38811A0FB01700146224600232D
:101720003846FEF7C1FD05460848001F0068C0F3B3
:101730000140401C4600B5FBF6F902E0DFF81090CE
:1017400000BF00BF4846BDE8F087000008380240EF
:101750000024F40040787D01F8B504460CB901205E
:10176000F8BD207800F00100002874D0F948006826
:1017700000F00C0004280DD0F648006800F00C00C2
:10178000082813D1F348001F006800F48000B0F56A
:10179000800F0BD1EF4808380068C0F340400028A4
:1017A00059D06068002856D10120D9E700BF606891
:1017B000B0F5803F08D1E7480838006840F4803031
:1017C000E449083908601EE06068B0F5A02F0DD12B
:1017D000E0480838006840F48020DE490839086095
:1017E0000846006840F4803008600CE0D9480838AA
:1017F000006820F48030D74908390860084600683E
:1018000020F48020086000BF606890B1FFF7ECFC16
:10181000054606E0FFF7E8FC401B642801D90320D9
:101820009EE7CC4808380068C0F340400028F1D05B
:1018300011E0FFF7D9FC054606E0FFF7D5FC401B99
:10184000642801D903208BE7C24808380068C0F338
:1018500040400028F1D1207800F0020002285FD13A
:10186000BC48006800F00C0058B1BA48006800F0AD
:101870000C0008281CD1B748001F006800F4800045
:10188000B0B9B44808380068C0F3400020B1E0683F
:10189000012801D0012063E7AE480838006820F035
:1018A000F800216940EAC100AA490839086037E018
:1018B000E06800B30120A8490860FFF795FC0546E1
:1018C00006E0FFF791FC401B022801D9032047E7FF
:1018D000A04808380068C0F340000028F1D09D48B7
:1018E0000838006820F0F800216940EAC1009949F1
:1018F0000839086014E0002097490860FFF774FC7D
:10190000054606E0FFF770FC401B022801D90320C2
:1019100026E7904808380068C0F340000028F1D15D
:10192000207800F0080008282CD16069A8B10120B7
:101930008A490860FFF758FC054606E0FFF754FCAB
:10194000401B022801D903200AE782486C30006856
:10195000C0F340000028F1D014E000207F49086067
:10196000FFF742FC054606E0FFF73EFC401B02285D
:1019700001D90320F4E677486C300068C0F34000DA
:101980000028F1D1207800F00400042870D100274D
:1019900070483830006800F0805090B900BF0020D7
:1019A00000906C483830006840F080506949383108
:1019B00008600846006800F08050009000BF00BF3B
:1019C00001276748006800F48070B0B96448006877
:1019D00040F4807062490860FFF706FC054606E0A7
:1019E000FFF702FC401B022801D90320B8E65C483F
:1019F000006800F480700028F2D000BFA0680128C1
:101A000008D154486830006840F0010051496831FD
:101A100008601DE0A06805280DD14E4868300068B8
:101A200040F004004B49683108600846006840F007
:101A3000010008600CE047486830006820F00100B1
:101A40004449683108600846006820F004000860D6
:101A500000BFA068A8B1FFF7C7FB054609E0FFF784
:101A6000C3FB401B41F28831884202D9032077E64C
:101A700026E0384868300068C0F340000028EED007
:101A800013E0FFF7B1FB054608E0FFF7ADFB401B95
:101A900041F28831884201D9032061E62D4868303F
:101AA0000068C0F340000028EFD1012F07D129487A
:101AB0003830006820F0805026493831086000BF77
:101AC000A069002845D02348006800F00C000828D1
:101AD0005DD0A069022845D100201F490866FFF7A4
:101AE00083FB054606E0FFF77FFB401B022801D978
:101AF000032035E6174808380068C0F34060002826
:101B0000F1D1D4E907010843616A40EA8111012259
:101B1000A06AC2EB500041EA00412C20005D41EA7E
:101B200000600C49091F086001200B490866FFF797
:101B30005BFB054606E0FFF757FB401B022801D977
:101B400003200DE6034808380068C0F34060002811
:101B5000F1D049E00838024000004742800E474279
:101B600000700040002021490866FFF73DFB054654
:101B700006E0FFF739FB401B022801D90320EFE5FF
:101B80001B480068C0F340600028F2D12CE0A06937
:101B9000012800D1E4E51648001D0668A069012867
:101BA00020D006F48001E06981421BD106F03F019C
:101BB000206A814216D147F6C0703040616AB0EBAE
:101BC000811F0FD106F440310122A06AC2EB500000
:101BD000B1EB004F06D106F070612C20005DB1EB37
:101BE000006F01D00120BBE50020B9E500004742AD
:101BF000003802407047704710B50346002200BF0E
:101C000093F83C00012801D1022010BD012083F887
:101C10003C0000BF22F0FF00CC6840EA040222F43E
:101C200040708C6840EA040222F480604C6840EA0C
:101C3000040222F400600C6840EA040222F480509E
:101C40000C6940EA040222F400504C6940EA0402A4
:101C500022F48040CC6940EA04021868426400BF64
:101C6000002083F83C0000BF00BFCEE730B502463D
:101C70000B4600BF92F83C00012801D1022030BD84
:101C8000012082F83C0000BF022082F83D0010686D
:101C900044681068816824F0700418680443106870
:101CA0004460184D1068A8421BD01068B0F1804FF6
:101CB00017D0154D1068A84213D0144D1068A842D3
:101CC0000FD0134D1068A8420BD0124D1068A842D7
:101CD00007D0114D1068A84203D0104D1068A842DB
:101CE00005D121F08001586801431068816001200E
:101CF00082F83D0000BF002082F83C0000BF00BF1A
:101D0000BDE7000000000140000400400008004062
:101D1000000C004000040140004001400018004059
:101D200010B504460CB9012010BD94F83D0028B947
:101D3000002084F83C00204600F026F8022084F8B9
:101D40003D00211D206801F0B5FE012084F8460009
:101D500000BF84F83E0001213F200155402001557D
:101D60004120015500BF00BF012084F842004320FC
:101D70000155442001554520015500BF012084F83C
:101D80003D000020D0E7000038B504463149206806
:101D9000884218D100BF002000902F48006840F012
:101DA00002002D4908600846006800F0020000901B
:101DB00000BF00BF002205211D20FFF7D3FA1D2020
:101DC000FFF7BCFA45E02549206888420FD100BFE3
:101DD000002000902048006840F004001E49086080
:101DE0000846006800F00400009000BF31E01C4984
:101DF000206888420FD100BF00200090164800687C
:101E000040F00800144908600846006800F0080027
:101E1000009000BF1DE013492068884219D100BF1F
:101E2000002000900C48001D006840F002000A49A4
:101E3000091D08600846006800F00200009000BF1D
:101E400000BF002205212E20FFF78CFA2E20FFF77D
:101E500075FA38BD000400404038024000080040D8
:101E6000000C004000040140014691F83D000128AB
:101E700001D001207047022081F83D001A4B08680C
:101E800098421BD00868B0F1804F17D0174B0868F4
:101E9000984213D0164B086898420FD0154B08682B
:101EA00098420BD0144B0868984207D0134B08682F
:101EB000984203D0124B086898420CD10868806899
:101EC00000F00702062A0CD00868006840F0010004
:101ED0000B68186005E00868006840F001000B68B6
:101EE00018600020C6E70000000001400004004028
:101EF00000080040000C0040000401400040014088
:101F000000180040014691F83D00012801D0012051
:101F10007047022081F83D000868C06840F0010069
:101F20000B68D8601A4B086898421BD00868B0F15B
:101F3000804F17D0174B0868984213D0164B08688B
:101F400098420FD0154B086898420BD0144B086884
:101F5000984207D0134B0868984203D0124B086888
:101F600098420CD10868806800F00702062A0CD05D
:101F70000868006840F001000B68186005E0086818
:101F8000006840F001000B6818600020C0E7000006
:101F9000000001400004004000080040000C004028
:101FA000000401400040014000180040014600BF0D
:101FB0000868006A41F21112104050B90868006ABE
:101FC0009210104028B90868006820F001000A68E3
:101FD000106000BF012081F83D00002070472DE90E
:101FE000F04104460D46002700BF94F83C0001284C
:101FF00002D10220BDE8F081012084F83C0000BF3E
:10200000022084F83D002068866826F0770626F4D2
:102010007F46206886602868502833D00CDC202852
:1020200050D004DC00284BD0102851D149E0302892
:1020300049D040284CD139E060282DD0702807D0F5
:10204000B0F5805F03D0B0F5005F41D10DE041E015
:10205000D5E902136A68206801F0B1FD206886683E
:1020600046F077062068866034E0D5E902136A6896
:10207000206801F0A4FD2068806840F48040216859
:10208000886027E0EA686968206801F089FE5021CD
:10209000206801F09FFD1DE0EA686968206801F092
:1020A00092FE6021206801F095FD13E0EA686968FE
:1020B000206801F075FE4021206801F08BFD09E0E9
:1020C00000BF00BF00BF2968206801F083FD01E068
:1020D000012700BF00BF012084F83D0000BF0020A1
:1020E00084F83C0000BF384684E7704770B504466A
:1020F0002068C5682068066906F00200022819D128
:1021000005F00200022815D1401F21680861012056
:1021100020772068806900F0030018B12046FFF79F
:10212000E4FF05E0204600F055F9204600F05AFB98
:102130000020207706F00400042819D105F00400DF
:10214000042815D1C0432168086102202077206847
:10215000806900F4407018B12046FFF7C6FF05E023
:10216000204600F037F9204600F03CFB00202077A5
:1021700006F00800082819D105F00800082815D134
:10218000C04321680861042020772068C06900F0FE
:10219000030018B12046FFF7A8FF05E0204600F035
:1021A00019F9204600F01EFB0020207706F01000F1
:1021B000102819D105F01000102815D1C04321684E
:1021C0000861082020772068C06900F4407018B1C9
:1021D0002046FFF78AFF05E0204600F0FBF8204686
:1021E00000F000FB0020207706F0010048B105F068
:1021F000010030B16FF0010021680861204600F055
:10220000F3FC06F08000802809D105F080008028CA
:1022100005D1C043216808612046FFF7EBFC06F0BA
:102220004000402809D105F04000402805D1C043B6
:1022300021680861204600F0E3FC06F02000202819
:1022400009D105F02000202805D1C043216808618C
:102250002046FFF7D0FC70BD10B586B004461421AF
:1022600001A8FEF771F82068B0F1804F1DD100BFC2
:10227000002000904F48006840F001004D49086080
:102280000846006800F00100009000BF00BF012078
:1022900001900220029000200390049001200590FC
:1022A00001A94548FEF792FE82E044492068884231
:1022B0001ED100BF002000903E48006840F008009A
:1022C0003C4908600846006800F00800009000BF24
:1022D00000BF4FF470400190022002900020039054
:1022E00004900220059001A93548FEF76FFE5FE0DB
:1022F0003449206888423AD100BF002000902D4820
:10230000006840F480702B4908600846006800F4BB
:102310008070009000BF00BF00BF00200090084602
:10232000006840F0800008600846006800F0800007
:10233000009000BF00BF0120019002200290002009
:10234000039004900220059001A91F48FEF73EFE6D
:102350004FF4E0500190022002900020039004907E
:102360000220059001A91948FEF730FE20E0184927
:10237000206888421CD100BF002000900D480068F2
:1023800040F480700B4908600846006800F48070D3
:10239000009000BF00BF04200190022002900020A6
:1023A000039004900320059001A90748FEF70EFE54
:1023B00006B010BD30380240000002400008004066
:1023C000000C0240000C004000200240001C0240B3
:1023D0000004014070470000F0B504460D46002699
:1023E00015B994F83E000BE0042D02D13F20005DAA
:1023F00006E0082D02D14020005D01E04120005D93
:10240000012801D00120F0BD1DB9022084F83E0052
:102410000EE0042D03D102213F20015508E0082DD4
:1024200003D102214020015502E002214120015543
:1024300035B1042D0BD0082D10D00C2D1CD114E07B
:102440002068C06840F002002168C86016E020687B
:10245000C06840F004002168C8600FE02068C068D0
:1024600040F008002168C86008E02068C06840F0BB
:1024700010002168C86001E0012600BF00BFEEBB6C
:1024800001222946206801F089FB244920688842FE
:1024900003D023492068884201D1012000E00020B8
:1024A00028B12068406C40F40040216848641B4912
:1024B000206888421BD02068B0F1804F17D019499E
:1024C0002068884213D01849206888420FD01749E5
:1024D000206888420BD012492068884207D01449EE
:1024E0002068884203D01349206888420ED12068B2
:1024F000806800F00707062F0ED000E00CE020688F
:10250000006840F001002168086005E0206800686C
:1025100040F0010021680860304674E70000014087
:10252000000401400004004000080040000C00408E
:10253000004001400018004070B504460D460026DA
:1025400035B1042D0BD0082D10D00C2D1CD114E06A
:102550002068C06820F002002168C86016E020688A
:10256000C06820F004002168C8600FE02068C068DF
:1025700020F008002168C86008E02068C06820F0EA
:1025800010002168C86001E0012600BF00BF002ED6
:102590004AD100222946206801F000FB2349206827
:1025A000884203D022492068884201D1012000E0FE
:1025B000002090B100BF2068006A41F2111108406C
:1025C00050B92068006A8910084028B92068406C1A
:1025D00020F400402168486400BF00BF2068006A02
:1025E00041F21111084050B92068006A8910084072
:1025F00028B92068006820F001002168086000BF49
:102600001DB9012084F83E000EE0042D03D1012104
:102610003F20015508E0082D03D10121402001553C
:1026200002E0012141200155304670BD000001400B
:10263000000401402DE9F04104460D4616460027EE
:1026400000BF94F83C00012802D10220BDE8F081CF
:10265000012084F83C0000BF36B1042E1BD0082EA8
:1026600031D00C2E5ED145E02946206801F0BCFA3D
:102670002068806940F008002168886120688069CE
:1026800020F0040021688861206880692969084376
:102690002168886148E02946206801F0DDFA206859
:1026A000806940F40060216888612068806920F4B6
:1026B00080602168886120688069296940EA01207A
:1026C0002168886130E02946206801F003FB20681A
:1026D000C06940F008002168C8612068C06920F026
:1026E00004002168C8612068C0692969084321681D
:1026F000C86119E02946206801F028FB2068C069FC
:1027000040F400602168C8612068C06920F48060DE
:102710002168C8612068C069296940EA01202168F0
:10272000C86101E0012700BF00BF00BF002084F89E
:102730003C0000BF384689E710B504460CB90120BB
:1027400010BD94F83D0028B9002084F83C002046D4
:1027500000F026F8022084F83D00211D206801F0D9
:10276000A9F9012084F8460000BF84F83E00012149
:102770003F200155402001554120015500BF00BFB9
:10278000012084F842004320015544200155452092
:10279000015500BF012084F83D000020D0E7000073
:1027A00038B504462068B0F1804F17D100BF002033
:1027B00000900B48006840F0010009490860084695
:1027C000006800F00100009000BF00BF002205215A
:1027D0001C20FEF7C7FD1C20FEF7B0FD38BD000031
:1027E0004038024010B504462068B0F1804F19D13E
:1027F0001B480068401C1A490860084600681949CF
:10280000097888422BD100201549086015490870C5
:1028100001211548006802F069FD00211348FFF707
:102820008BFE1CE012492068884218D111480068CC
:10283000401C10490860084600680F490978884222
:102840000DD100200B4908600B4908700221064891
:10285000006802F04BFD0021084800F047F910BD68
:102860006C0000204400002088000020900100201F
:10287000000401407000002045000020B00200204C
:1028800070B504460D4615B994F83E000BE0042DD2
:1028900002D13F20005D06E0082D02D14020005DFE
:1028A00001E04120005D012801D0012070BD1DB96B
:1028B000022084F83E000EE0042D03D102213F20C7
:1028C000015508E0082D03D102214020015502E006
:1028D00002214120015501222946206801F05EF9BC
:1028E00023492068884203D022492068884201D1C8
:1028F000012000E0002028B12068406C40F4004036
:10290000216848641A49206888421BD02068B0F1C9
:10291000804F17D018492068884213D01749206883
:1029200088420FD01649206888420BD01149206890
:10293000884207D013492068884203D01249206892
:1029400088420CD12068806800F00706062E0CD063
:102950002068006840F001002168086005E02068F8
:10296000006840F001002168086000209EE7000038
:102970000000014000040140000400400008004045
:10298000000C00400040014000180040F0B5044633
:102990000D46002615B994F83E000BE0042D02D137
:1029A0003F20005D06E0082D02D14020005D01E0DF
:1029B0004120005D012801D00120F0BD1DB9022099
:1029C00084F83E000EE0042D03D102213F20015582
:1029D00008E0082D03D102214020015502E0022128
:1029E0004120015535B1042D0BD0082D10D00C2DF0
:1029F0001CD114E02068C06840F002002168C86063
:102A000016E02068C06840F004002168C8600FE04C
:102A10002068C06840F008002168C86008E02068AD
:102A2000C06840F010002168C86001E0012600BFC6
:102A300000BFEEBB01222946206801F0AFF824490F
:102A40002068884203D023492068884201D10120B0
:102A500000E0002028B12068406C40F4004021686C
:102A600048641B49206888421BD02068B0F1804F21
:102A700017D019492068884213D018492068884225
:102A80000FD01749206888420BD01249206888422D
:102A900007D014492068884203D01349206888422F
:102AA0000ED12068806800F00707062F0ED000E0E6
:102AB0000CE02068006840F001002168086005E033
:102AC0002068006840F0010021680860304674E723
:102AD00000000140000401400004004000080040E4
:102AE000000C0040004001400018004070B5044652
:102AF0000D46002635B1042D0BD0082D10D00C2D1D
:102B00001CD114E02068C06820F002002168C86071
:102B100016E02068C06820F004002168C8600FE05B
:102B20002068C06820F008002168C86008E02068BC
:102B3000C06820F010002168C86001E0012600BFD5
:102B400000BF002E4AD100222946206801F026F855
:102B500023492068884203D022492068884201D155
:102B6000012000E0002090B100BF2068006A41F21F
:102B70001111084050B92068006A8910084028B92E
:102B80002068406C20F400402168486400BF00BF0A
:102B90002068006A41F21111084050B92068006AAB
:102BA0008910084028B92068006820F001002168D9
:102BB000086000BF1DB9012084F83E000EE0042D1E
:102BC00003D101213F20015508E0082D03D1012147
:102BD0004020015502E0012141200155304670BDE1
:102BE000000001400004014010B50446034920687C
:102BF000884201D1FEF7FEFA10BD0000000001403E
:102C000070477047704700002DE9F84F0446206870
:102C100005682068C668206847694FF00009CA4601
:102C200005F00F09B9F1000F0AD105F0200038B105
:102C300006F0200020B1204601F03AF9BDE8F88FF7
:102C4000B9F1000F7CD007F0010018B906F49070BC
:102C5000002875D005F0010030B106F4807018B17D
:102C6000606C40F00100606405F0040030B107F0D2
:102C7000010018B1606C40F00200606405F00200D1
:102C800030B107F0010018B1606C40F004006064DE
:102C900005F0080048B106F0200010B907F0010067
:102CA00018B1606C40F008006064606C002846D089
:102CB00005F0200028B106F0200010B1204601F0F8
:102CC000F7F820684069C0F3801A606C00F00800D3
:102CD00010B9BAF1000F2DD0204601F0A3F82068FA
:102CE000406900F04000402820D100BF00BF2168AB
:102CF000143151E8001F21F040002168143141E8EF
:102D00000002002AF3D100BFE06B50B17748E16BBD
:102D10000865E06BFEF712F988B1E06B016D88473A
:102D20000DE02046FFF76EFF09E009E02046FFF7BF
:102D300069FF04E02046FFF765FF002060647DE73F
:102D4000206B012878D105F01000002874D006F01F
:102D500010000028FAD000BF002000902068006812
:102D6000009020684068009000BF00BF2068406964
:102D700000F04000402860D1E06B006840681FFA16
:102D800080F8B8F1000F56D0A08D404553DDA4F86F
:102D90002E80E06BC069B0F5807F43D000BF00BFDC
:102DA00021680C3151E8001F21F4807021680C313A
:102DB00041E80002002AF3D100BF00BF00BF216834
:102DC000143151E8001F21F001002168143141E85D
:102DD0000002002AF3D100BF00BF00BF21681431F8
:102DE00051E8001F21F040002168143141E8000241
:102DF000002AF3D100BF202084F842000020206385
:102E000000BF00BF21680C3151E8001F21F0100005
:102E100021680C3141E80002002AF3D100BFE06BC9
:102E2000FEF736F802206063A08DE28D801A81B231
:102E30002046FFF7E6FE01E742E0A08DE18D401A53
:102E40001FFA80F8E08DD0B3B8F1000F37D000BF83
:102E500000BF21680C3151E8001F21F490702168F7
:102E60000C3141E80002002AF3D100BF00BF00BFCF
:102E70002168143151E8001F21F00100216814314C
:102E800041E80002002AF3D100BF202084F842006C
:102E90000020206300BF00BF21680C3151E8001FF3
:102EA00021F0100021680C3141E80002002AF3D122
:102EB00000BF0220606341462046FFF7A2FEBDE648
:102EC00005F0800030B106F0800018B1204601F016
:102ED000A3F9B3E605F0400030B106F0400018B1A8
:102EE000204600F0D5FFA9E600BFA7E6113E000886
:102EF00010B504460CB9012010BDA06900B100E076
:102F000000BF94F8410028B9002084F84000204612
:102F100000F02AF8242084F841002068C06820F4DA
:102F200000502168C860204601F040F82068006920
:102F300020F49040216808612068406920F02A0050
:102F4000216848612068C06840F400502168C8606A
:102F500000206064202084F8410084F842000020B2
:102F6000606300BFC8E7000010B586B004461421B6
:102F700001A8FDF7E9F93D492068884238D100BF32
:102F8000002000903A48006840F0804038490860CE
:102F90000846006800F08040009000BF00BF00BFFE
:102FA0000020009032481038006840F0200030497E
:102FB000103908600846006800F02000009000BF4B
:102FC00000BFC02001900220029000200390032047
:102FD00004900820059001A92648FDF7F7FF00227C
:102FE00005215220FEF7BEF95220FEF7A7F93BE07B
:102FF00021492068884237D100BF002000901C483A
:10300000006840F000401A4908600846006800F077
:103010000040009000BF00BF00BF00200090144897
:103020001038006840F01000114910390860084657
:10303000006800F01000009000BF00BF0320019066
:1030400002200290002003900320049008200590A5
:1030500001A90A48FDF7BAFF002205215320FEF717
:1030600081F95320FEF76AF906B010BD00780040E0
:103070004038024000140240007C00400010024032
:1030800070B504460D46164694F8420020280BD130
:1030900005B10EB9012070BD0020206332462946DB
:1030A000204601F099F8F6E70220F4E710B504464F
:1030B00022480078012830D1214800782D2814D1E9
:1030C0002048027820492148FDF725F932211E4881
:1030D000FDF73AF90020194908701A4908700121D2
:1030E0001B48006802F002F917E016480078312802
:1030F00009DB32211448FDF727F900200F49087039
:103100001049087009E00E4801780E4802780078EE
:10311000401C0C4B18700C488154094800782B282F
:1031200005D10120054908700020064908700122D8
:1031300003492046FFF7A4FF10BD00002E00002029
:103140002C0000202D0000202C0100205E0100201A
:10315000840000202DE9F84F04460E461746994694
:103160004FF0000A94F84100202850D106B117B959
:103170000120BDE8F88F00206064212084F8410020
:10318000FEF732F88246A784E784A068B0F5805F36
:1031900004D1206910B90025B04602E035464FF051
:1031A00000081EE05346002280212046CDF8009002
:1031B00001F062F820B1202084F841000320D8E714
:1031C00045B9B8F80000C0F308002168486008F16C
:1031D000020803E02878216848606D1CE08C401EDE
:1031E000E084E08C0028DDD15346002240212046B7
:1031F000CDF8009001F040F820B1202084F8410083
:103200000320B6E7202084F841000020B1E7022027
:10321000AFE7704700BFFEE710B50C2001F0E8F8FB
:103220000B4908600B4A00210B4802F0F8F80B49E3
:1032300008600B4A00210B4802F0F1F80A490860C7
:103240000A4A00210A4802F0EAF80A49086010BD5B
:10325000780000200882000805390008800000205E
:103260002C820008113900088400002050820008D8
:10327000813900088800002000B587B0142102A819
:10328000FDF762F800BF002001907648006840F02A
:103290001000744908600846006800F010000190B2
:1032A00000BF00BF00BF002001900846006840F04A
:1032B000010008600846006800F00100019000BFAE
:1032C00000BF00BF002001900846006840F48070F5
:1032D00008600846006800F48070019000BF00BFDD
:1032E00000BF002001900846006840F02000086000
:1032F0000846006800F02000019000BF00BF00BF3A
:10330000002001900846006840F0800008600846F0
:10331000006800F08000019000BF00BF00BF0020E7
:1033200001900846006840F0080008600846006800
:1033300000F00800019000BF00BF00BF0020019016
:103340000846006840F0040008600846006800F085
:103350000400019000BF00BF00BF0020019008469C
:10336000006840F0400008600846006800F0400037
:10337000019000BF00BF00BF002001900846006818
:1033800040F0020008600846006800F0020001906A
:1033900000BF00BF002260213348FDF71FFF00225D
:1033A00044F202013148FDF719FF00221D21304887
:1033B000FDF714FF002202212E48FDF70FFF002227
:1033C00002212D48FDF70AFF6020029001200390A2
:1033D00000200490059002A92348FDF7F7FD012085
:1033E00002904FF4441003900020049002A91F485B
:1033F000FDF7ECFD44F20200029001200390002052
:103400000490059002A91948FDF7E0FD1D200290E7
:103410000120039000200490059002A91448FDF7B4
:10342000D5FD022002900120039000200490059019
:1034300002A91048FDF7CAFD022002900120039066
:1034400000200490059002A90B48FDF7BFFD002263
:1034500005210620FDF786FF0620FDF76FFF07B068
:1034600000BD00003038024000100240001402404D
:1034700000080240001802400004024000B589B074
:103480000020079008901C216846FCF75DFF4FF074
:103490008040184908605920486000211548816023
:1034A00042F20F71C160002101618161FFF744F9AF
:1034B00008B1FDF7EAFC00200790089007A90D4825
:1034C000FEF7D4FB08B1FDF7E0FC6020009041F26C
:1034D000883001900020029004900022694605483F
:1034E000FFF7A8F808B1FDF7D0FC0248FEF7B4FEDC
:1034F00009B000BD9001002000B587B00020039006
:1035000004900590069001900290144814490860B8
:10351000592048600021124881604FF6FF71C16058
:10352000002101618161FEF7FBFB08B1FDF7ADFCF5
:103530004FF48050039003A90948FEF750FD08B1ED
:10354000FDF7A3FC00200190029001A90448FEF7BA
:103550008DFB08B1FDF799FC07B000BD00040040E9
:10356000D801002000B58DB0002009900A900B9082
:103570000C90079008901C216846FCF7E5FE2C484B
:103580002C4908605920486000212A48816044F68F
:103590001F61C160002101618161FEF7C1FB08B1BB
:1035A000FDF773FC4FF48050099009A92148FEF7FC
:1035B00016FD08B1FDF769FC1E48FFF7BDF808B11C
:1035C000FDF763FC00200790089007A91948FEF753
:1035D0004DFB08B1FDF759FC6020009000200190E0
:1035E00002900490002269461248FFF723F808B1C0
:1035F000FDF74BFC042269460E48FFF71BF808B1A3
:10360000FDF743FC082269460A48FFF713F808B1A2
:10361000FDF73BFC0C2269460648FFF70BF808B1A2
:10362000FDF733FC0348FEF717FE0DB000BD0000A8
:10363000000800402002002000B58DB00020099055
:103640000A900B900C90079008901C216846FCF79C
:103650007BFE2C482C4908605920486000212A48EC
:10366000816044F61F61C160002101618161FEF744
:1036700057FB08B1FDF709FC4FF48050099009A9E8
:103680002148FEF7ACFC08B1FDF7FFFB1E48FFF731
:1036900053F808B1FDF7F9FB00200790089007A93F
:1036A0001948FEF7E3FA08B1FDF7EFFB6020009040
:1036B0000020019002900490002269461248FEF713
:1036C000B9FF08B1FDF7E1FB042269460E48FEF799
:1036D000B1FF08B1FDF7D9FB082269460A48FEF799
:1036E000A9FF08B1FDF7D1FB0C2269460648FEF799
:1036F000A1FF08B1FDF7C9FB0348FEF7ADFD0DB012
:1037000000BD0000000C00406802002000B595B02C
:10371000002011901290139014900F9010901C2183
:1037200008A8FCF711FE20216846FCF70DFE2C4886
:103730002C490860B320486000212A48816042F289
:103740000F71C16000210161416180218161FEF73B
:10375000E7FA08B1FDF799FB4FF48050119011A9D9
:103760002048FEF73CFC08B1FDF78FFB1D48FEF733
:10377000E3FF08B1FDF789FB00200F9010900FA91F
:103780001848FEF773FA08B1FDF77FFB6020089038
:1037900041F28830099000200A900C900D900E9014
:1037A0000C2208A90F48FEF745FF08B1FDF76DFB95
:1037B0000020009001900290039004904FF400507C
:1037C00005900020079069460648FEF715FA08B1F3
:1037D000FDF75BFB0348FEF73FFD15B000BD0000A1
:1037E00000040140B002002010B50B480B490860EE
:1037F0004FF416504860002108488160C1600161A3
:103800000C21416100218161C161FFF771FB08B1A9
:10381000FDF73BFB10BD000000780040F8020020DF
:1038200010B50B480B4908604FF4E13048600021A7
:1038300008488160C16001610C2141610021816102
:10384000C161FFF755FB08B1FDF71FFB10BD00007C
:10385000007C00404003002000BFFEE700BFFEE701
:1038600010B50C2000F0C4FD1E4908600C2000F0CB
:10387000BFFD1D4908600C2000F0BAFD1B4908601F
:103880000C2000F0B5FD1A4908601A48154909686E
:1038900008601948144909680860144909680860F3
:1038A000164813490968086002200E490968888093
:1038B00020200D490968888040200C4909688880CB
:1038C00004200B49096888800D480649096888600A
:1038D00005490968886005490968886004490968DC
:1038E000886010BD1C000020200000202400002063
:1038F000280000200014024000100240000802408E
:10390000D801002000BF002003F0CEFAFBE7000042
:1039100000BF4FF0FF320021012001F027FD0C48CD
:10392000006802F03BFF0A48006801F019FB4FF401
:10393000487003F08BFA074801680748006801F0F7
:10394000FBFA0648017806A000F0DEFCE1E7000083
:10395000780000200C000020080000207C000020DF
:103960007B226F7065726174696F6E223A22312218
:103970002C22697346756C6C223A25647D00000028
:1039800000BF012001F05CFCFBE710B54FF0E02028
:10399000006904F093F9012801D003F097FC10BDF1
:1039A00000B593B0302107A8FCF7CEFC142102A883
:1039B000FCF7CAFC00BF002001902748006840F0D7
:1039C0008050254908600846006800F0805001904A
:1039D00000BF00BF00BF002001902048006840F4F5
:1039E00040401E4908600846006800F440400190CD
:1039F00000BF00BF0220079001200A9010200B900A
:103A000002200D9000210E9108210F91B4211091F8
:103A1000022111910421129107A8FDF79DFE08B122
:103A2000FDF733FAFDF7F0FC08B1FDF72EFA0F2091
:103A3000029002200390002004904FF4A0500590C3
:103A40004FF480500690052102A8FDF723FD08B130
:103A5000FDF71BFA13B000BD403802400070004073
:103A60000348006840F47000014908607047000096
:103A700088ED00E010B50248FEF738FB10BD0000ED
:103A80008803002010B50248FEF730FB10BD00008F
:103A90009001002010B50248FEF728FB10BD000081
:103AA000D801002010B50248FEF720FB10BD000031
:103AB000B002002010B502682D4B98420ED0B0F134
:103AC000804F0BD02B4B984208D02B4B984205D0FF
:103AD0002A4B984202D02A4B984203D122F070021E
:103AE0004B681A43224B984220D0B0F1804F1DD032
:103AF000204B98421AD0204B984217D01F4B984227
:103B000014D01F4B984211D01E4B98420ED01E4B22
:103B100098420BD01D4B984208D01D4B984205D0BF
:103B20001C4B984202D01C4B984203D122F44072A5
:103B3000CB681A4322F080034C6943EA0402026016
:103B40008B68C3620B688362094B984202D00C4BAE
:103B5000984201D10B69036301234361036903F0B8
:103B600001031BB1036923F00103036110BD0000D1
:103B7000000001400004004000080040000C00402C
:103B80000004014000400140004401400048014061
:103B900000180040001C00400020004030B501F03B
:103BA0001F05012404FA05F3046A9C430462046AB5
:103BB00001F01F0502FA05F52C43046230BD30B553
:103BC0000C46816821F47F4142EA032525432943BD
:103BD000816030BD0A46816821F0700142F0070320
:103BE000194381607047000030B5026A056A25F00C
:103BF000010505624368846924F0700424F003041D
:103C00000D682C4322F002028D682A43104DA84211
:103C100000D103E00F4DA84206D100BF22F00802F8
:103C2000CD682A4322F00402094DA84202D0094D72
:103C3000A84207D123F4807323F400734D692B430A
:103C40008D692B43436084614D684563026230BDDA
:103C5000000001400004014030B5026A056A25F009
:103C6000100505624368846924F4E04424F4407438
:103C70000D6844EA052422F020028D6842EA05120C
:103C8000124DA84200D103E0114DA84207D100BF58
:103C900022F08002CD6842EA051222F040020B4D6C
:103CA000A84202D00A4DA84209D123F4806323F42C
:103CB00000634D6943EA85038D6943EA85034360E8
:103CC00084614D688563026230BD000000000140E0
:103CD0000004014030B5026A056A25F4807505626A
:103CE0004368C46924F0700424F003040D682C4375
:103CF00022F400728D6842EA0522124DA84200D1DA
:103D000003E0114DA84207D100BF22F40062CD6844
:103D100042EA052222F480620A4DA84202D00A4DEE
:103D2000A84209D123F4805323F400534D6943EA98
:103D300005138D6943EA05134360C4614D68C5638B
:103D4000026230BD000001400004014030B5036A4A
:103D5000056A25F4805505624468C26922F4E04290
:103D600022F440720D6842EA052223F400538D6864
:103D700043EA0533084DA84202D0084DA84204D1B9
:103D800024F480444D6944EA85144460C2614D685E
:103D90000564036230BD00000000014000040140E2
:103DA00030B50B461446026A056A25F00105056226
:103DB000816921F0F00141EA041122F00A021A435C
:103DC0008161026230BD30B50B461446026A056A55
:103DD00025F010050562816921F4704141EA043142
:103DE00022F0A00242EA03128161026230BD0000AB
:103DF00010B50248FEF708FF10BD0000F8020020D1
:103E000010B50248FEF700FF10BD0000400300207F
:103E100070B50546AC6B0020E085E0842046FEF7D7
:103E2000F1FE70BD00BF00BF02680C3252E8002FE7
:103E300022F4907102680C3242E80013002BF3D197
:103E400000BF00BF00BF0268143252E8002F22F00A
:103E500001010268143242E80013002BF3D100BFC5
:103E6000016B01290ED100BF00BF02680C3252E87D
:103E7000002F22F0100102680C3242E80013002BE0
:103E8000F3D100BF202180F8421000210163704768
:103E900010B504462068C06820F040002168C86062
:103EA000202084F841002046FFF7B3F9002010BD20
:103EB000F8B5044694F84200222875D1A068B0F500
:103EC000805F0CD1206950B90025A66A206840683F
:103ED000C0F308003080A06A801CA06215E0A56ACB
:103EE0000026A068B0F5805F03D0A06828B92069DB
:103EF00018B920684068287004E02068406800F025
:103F00007F002870A06A401CA062E08D401E80B235
:103F1000E085002846D12068C06820F02000216894
:103F2000C8602068C06820F480702168C86020687C
:103F3000406920F0010021684861202084F8420097
:103F400000206063206B012826D10020206300BF81
:103F500000BF21680C3151E8001F21F010002168DA
:103F60000C3141E80002002AF3D100BF206800684C
:103F700000F0100010280AD100BF00200090206837
:103F80000068009020684068009000BF00BFA18DCD
:103F90002046FEF736FE02E02046FFF787F80020B5
:103FA000F8BD01E00020FBE70220F9E72DE9F84F1A
:103FB00004462068006920F44050E1680843216805
:103FC00008612169A068084361690843E169084301
:103FD00000902068C06849F20C618843009908434A
:103FE0002168C8602068406920F44070A1690843D6
:103FF0002168486176492068884203D07549206865
:10400000884203D1FDF740FB814602E0FDF72CFB1F
:104010008146E069B0F5004F6CD102206168A0FBD9
:10402000015003461920A9FB007001462A46384674
:10403000FCF73AF96421B0FBF1F04FEA001A0220D4
:104040006168A0FB01510B461920A9FB00712A46AB
:104050003846FCF729F9834602206168A0FB01502D
:1040600003461920A9FB00712A463846FCF71CF9C3
:104070006421B0FBF1F000EBC00101EB0010ABEBF1
:104080008000322101EBC0006421B0FBF1F000F0B0
:10409000F8000AEB400A02206168A0FB01500346C9
:1040A0001920A9FB007001462A463846FCF7FCF8A7
:1040B000834602206168A0FB015003461920A9FB3A
:1040C00000712A463846FCF7EFF86421B0FBF1F0A6
:1040D00000EBC00101EB0010ABEB8000322101EBE3
:1040E000C0006421B0FBF1F000F0070050442168EB
:1040F00088606AE004206168A0FB01500346192033
:10410000A9FB007001462A463846FCF7CDF88246E6
:1041100004206168A0FB015003461920A9FB007030
:1041200001462A463846FCF7BFF86421B0FBF1F09F
:1041300000EBC00101EB0010AAEB8000322101EB83
:1041400000106421B0FBF1F000F0F00A0420616877
:10415000A0FB017003461920A9FB00513A462846EE
:10416000FCF7A2F86421B0FBF1F00AEB001A04207E
:104170006168A0FB01510B461920A9FB00712A467A
:104180003846FCF791F8834604206168A0FB015093
:1041900003461920A9FB007001462A463846FCF761
:1041A00083F86421B0FBF1F000EBC00101EB0010DB
:1041B000ABEB8000322101EB00106421B0FBF1F089
:1041C00000F00F00504421688860BDE8F88F0000BF
:1041D000001001400014014010B5034699629A8511
:1041E000DA8500205864222083F84200186928B13B
:1041F0001868C06840F480701C68E0601868406906
:1042000040F001001C6860611868C06840F0200040
:104210001C68E060002010BD014691F84100212893
:1042200028D18868B0F5805F0BD1086948B90A6A5F
:104230001088C0F308000B685860086A801C086288
:1042400005E00B6A581C086218780B685860C88C27
:10425000401E80B2C88458B90868C06820F0800049
:104260000B68D8600868C06840F040000B68D860F0
:10427000002070470220FCE72DE9F84304460D4674
:1042800017469846089E31E0701C70B3FCF7ACFFEF
:10429000A0EB0800B04200D816B90320BDE8F883AF
:1042A0002068C06800F00400F8B1802D1ED0402DB9
:1042B0001CD020680068C0F3C000B0B100BF00206F
:1042C000009020680068009020684068009000BF5F
:1042D00000BF2046FFF7A6FD0820606400BF002055
:1042E00084F8400000BF0120D8E7FFE7206800689D
:1042F0002840A84201D1012000E00020B842C3D0EC
:104300000020CBE700BFFEE70FB4054B10B503A9B3
:10431000044A029800F06EF910BC5DF814FB00002E
:10432000ED4F00082001002002480068C0F3022081
:10433000704700000CED00E010B5002804DB0A0710
:10434000130E054A135406E00A07140E034A00F040
:104350000F031B1FD45410BD00E400E018ED00E073
:1043600030B528B1144C031F002021680A4605E02F
:10437000084630BD9A4203D810465268002AF9D147
:10438000002800D041680BD00468A3EB0005A542CB
:1043900004D11B681C440346046002E0436000E053
:1043A00023603AB11C68D51AA54203D115682C4484
:1043B0001C6052685A6030BD24010020EFF3058074
:1043C000704700000000000000B583B09FED060BB1
:1043D0000A4601468DED000B6846FCF79CFB9DEDFF
:1043E000000B03B000BD0000000000000000000052
:1043F0002DE9F04782460F4C10480D4E0E4F001B22
:104400004FF0000820F007054FF001090022114687
:10441000504600F027FE002802D1306810B100207D
:10442000BDE8F0873C60C4E90058C6F80090EDE7AD
:1044300028010020AC4C002024010020A84E0020C0
:1044400002E008C8121F08C1002AFAD1704770475D
:10445000002001E001C1121F002AFBD170470000BB
:104460002DE9FF5F82B00021DDE90430020DDDF8A7
:1044700040B0034318D044F61050A2F2FF3242433A
:104480001514119801281FD0A5EB0B00401C5FEA02
:10449000000A4FF000064E4FDFF83891B046504604
:1044A00015D5CAF1000413E0119801244AA301288C
:1044B00001D16FEA0B010298119AC0E90031C0E9FD
:1044C000024206B0BDE8F09FCBF10000DFE70446F2
:1044D0000021404A491842EB0450CDE9001012E097
:1044E000E00707D032463B4640464946FCF7B3F961
:1044F0008046894632463B4610461946FCF7ABF9E2
:1045000006460F466410002CEAD1DDE90401DDE91E
:104510000023BAF1000F06DAFCF79DF942464B463C
:10452000FCF799F905E0FCF7BDFB42464B46FCF76A
:10453000B9FB04460E460022284BFCF735FA03D897
:104540004FF0FF30014607E00022254B2046314660
:10455000FCF7DAF8FCF721FC102409E0002C0ADB58
:104560000A220023FBF7A0FE039B30321A55641E7B
:1045700050EA0102F2D1641C039AC4F111031444FD
:10458000119A012A03D0012208430DD10AE0084301
:1045900004D000204FF0110B119072E7A3EB0B0534
:1045A0006D1E0DE05B4504DD4FF0000205F10105D5
:1045B00004E003DA4FF00002A5F10105002AECD077
:1045C00002981199C0E90231C0E9004579E700007D
:1045D000000014400000F03F300000000000F043F5
:1045E0000000E03F30380A2801D201207047002047
:1045F000704700002DE9FF4F95B09A468846064661
:104600000025EEE1252877D100242746F94A01212B
:10461000039400E0044316F8013F203B01FA03F045
:104620001042F7D130782A2811D06FF02F0330785C
:10463000A0F13002092A16D8039A44F0020402EBD2
:10464000820203EB42021044761C0390EFE758F815
:10465000042B0392002A03DA504244F400540390DE
:1046600044F00204761C30782E2816D116F8010F7B
:1046700044F004042A280DD06FF02F023078A0F106
:104680003003092B09D807EB870302EB4303C71854
:10469000761CF3E758F8047B761C30786C280FD032
:1046A00006DC4C2817D068280DD06A2814D104E005
:1046B000742810D07A280FD10DE044F400140AE0D9
:1046C00044F4801401E044F440147278824202D130
:1046D00004F58014761C761C307866280BD013DC29
:1046E000582877D009DC002875D04528F6D0462810
:1046F000F4D047281AD193E118E0632835D0642814
:1047000079D0652812D18BE1702873D008DC672836
:10471000F1D069286FD06E280DD06F2806D1ACE09B
:1047200073282CD0752874D0782853D05246179906
:1047300090476D1C54E1C4F30250022809D00328AD
:104740000DD0D8F8001004280DD00D6008F1040831
:1047500046E1D8F80010EA17C1E90052F6E7D8F8A8
:1047600000100D80F2E70D70F0E718F8041B8DF8CB
:10477000001000208DF80100EB46012003E058F8FE
:1047800004BB4FF0FF3061074FF0000102D40DE091
:1047900009F101018946B9420FDA8145F8DB1BF8BE
:1047A00009100029F4D108E009F10101894681428C
:1047B000FADB1BF809100029F6D103985346A0EB49
:1047C000090721463846179A00F080FA284400EB82
:1047D000090507E044E008E10DE01BF8010B524633
:1047E00017999047B9F10109F7D253462146384647
:1047F000179AF2E039E00A21C4F302524FF0000B9D
:104800000091022A06D058F8040BC117032A09D0D8
:104810000AE023E008F1070020F00702F2E80201B5
:10482000904605E000B2C117042A01D140B2C11779
:10483000002906DA0A460021404261EB02012D22DE
:1048400002E0220504D52B228DF80420012203E08A
:10485000E20701D02022F7E7914657E00A2100E065
:1048600010214FF0000B00910BE010214FF0000BD6
:1048700044F004040827009103E008204FF0000BE7
:104880000090C4F30252022A05D058F8040B00210C
:10489000032A08D008E008F1070020F00702F2E838
:1048A0000201904603E080B2042A00D1C0B24FF06A
:1048B000000922072AD53278702A07D0DDF800C017
:1048C0008CF0100C5CEA0B0C05D00EE040228DF849
:1048D0000420012208E050EA010306D030238DF8BD
:1048E00004308DF8052002229146009B83F00803D6
:1048F00053EA0B030AD150EA010201D1620705D540
:1049000030228DF804204FF001097F1E3278582A9A
:1049100004D039A20C920CAA02920BE03BA2F9E758
:104920005B46009AFBF7C0FC0C9B9B5C029A521EF4
:104930000292137050EA0102F2D1029804A9081AF7
:1049400000F1200B600702D524F4803400E0012739
:104950005F4502DDA7EB0B0000E0002000EB0B0140
:10496000009003984944401A0390E00306D453464C
:104970002146179A039800F0A9F90544002706E09C
:1049800001A85246C05D179990476D1C7F1C4F458A
:10499000F6DBE0030CD553462146179A039800F046
:1049A00095F9054404E030205246179990476D1C54
:1049B0000099481E00900029F5DC08E00298029951
:1049C00052460078491C0291179990476D1CBBF123
:1049D0000001ABF1010BF1DC5BE100F065F905448E
:1049E000761C307800287FF40DAE19B02846BDE85B
:1049F000F08F00000928010030313233343536376A
:104A0000383961626364656600000000303132331A
:104A100034353637383941424344454600000000BA
:104A2000600700D4062708F1070020F00700F0E82F
:104A30000223804603F0004C5FEA0C0001D097A0EF
:104A400009E0200501D596A005E0E00701D095A07A
:104A500001E0AFF24C001390307823F0004365285A
:104A60000CD006DC452809D046281DD047287FD128
:104A70003BE0662818D067287AD136E00021112F54
:104A800001DB112000E0781CCDE9000104A90CA88D
:104A9000FFF7E6FCDDE90D010C9A4FF0000B07F182
:104AA0000109109200914EE04FF000400097CDE9CF
:104AB000011004A90CA8FFF7D3FCDDE90D020C9B43
:104AC0000F994FF0000B91461093009211B9791C89
:104AD00000EB0109B7EB090003D4C0F1FF3B07F17C
:104AE0000109A9EB0700019042E0012F00DA01273C
:104AF0000021112F01DD112000E03846CDE9000131
:104B000004A90CA8FFF7ACFCDDE90D010C9A00919B
:104B10004FF0000BB946109221070FD4009A4A4576
:104B200003DA914601E0A9F10109B9F1010F05DDB0
:104B3000109AA9F10101515C3029F4D0B84202DA8F
:104B400010F1040F03DA0121CDE9011010E0002873
:104B500003DC8344A9EB000102E0411C494500DD70
:104B60008946A0EB0B00401C01904FF000400290E2
:104B7000200705D40198484502DB4FF0FF30019033
:104B800000208DF84B0002980DF14B07B0F1004F5B
:104B900025D002200C902B200D90029800280CDAD2
:104BA000404202902D200D9007E00A210298FBF769
:104BB0002FFF3031029007F8011D0C99481E0C9010
:104BC0000029F2DC02980028EFD1791E0D980870B8
:104BD000307800F0200040F0450007F8020D11A8E1
:104BE000C01BC01D02901398007800B1012000EB9B
:104BF0000901019801EBE071029801440398401A01
:104C0000401E0390E00306D453462146179A0398AA
:104C100000F05CF805441398007818B152461799D3
:104C200090476D1CE00323D553462146179A0398FD
:104C300000F04CF805441BE0BBF1000F07DB0098C7
:104C4000584504DD1098179910F80B0001E01799EA
:104C500030205246904701980BF1010B401E05F1A0
:104C60000105019004D12E205246179990476D1CE2
:104C7000B9F10001A9F10109DEDC05E017F8010B2B
:104C80005246179990476D1C0299481E02900029C0
:104C9000F4DC53462146179A03989EE62D00000047
:104CA0002B000000200000002DE9F0410446002503
:104CB0001E461746880404D405E039462020B04734
:104CC0006D1C641EF9D52846BDE8F0812DE9F04140
:104CD000044600251E469046C80301D5302700E053
:104CE0002027880404D505E041463846B0476D1CAE
:104CF000641EF9D52846BDE8F081014609B108686F
:104D000008B90020704719B1D1E90120904201D3C0
:104D10000846F7E702E08868401C886041B1D1E9A5
:104D20000120904204D28A680868805C2028F2DD65
:104D3000D1E90120904202D18868401E886008466F
:104D4000E0E7000070B50446002526E02568A0894C
:104D500000F4807020B9A06810B1A068FFF7F2FFDE
:104D6000A08900F4807038B9206928B10C4A206904
:104D70005168884700202061A08900F4007038B98C
:104D8000206A28B1064A206A5168884700202062BC
:104D900003484168204688472C46002CD6D170BD78
:104DA0003800002070B504460D46002229462046F2
:104DB00000F02EF970BD70B50446282021688847A0
:104DC00005461DB128212846FBF7BEFA284670BDCE
:104DD00010B5044600221146204600F06BF810BDC5
:104DE0002DE9F0478AB004460E46154698461C2128
:104DF00003A8FBF7A9FA002700202C4908604860A7
:104E000004B106B932E00394049600200590284AC4
:104E100007CA07AB07C32648FFF7CDFF074607B908
:104E200024E003A801F028FD8246FFF766FF8146D3
:104E30004946384600F010FE00B917E0B8F1000FFF
:104E40000BD003A8FFF759FFDDE90410884203D215
:104E500005990398405C00B108E01DB105990398DD
:104E60000844286038460AB0BDE8F08717B13846D4
:104E7000FFF768FFC4B1019400200290DDE904103F
:104E8000884202D20598029004E0049810B1049878
:104E9000401E02901DB1DDE901010844286003486D
:104EA000DDE9011206C000BF0020DCE73000002071
:104EB000380000202DE9F04104460D46164614B98D
:104EC0000020BDE8F0812046FBF749FA471C334635
:104ED0002A4639462046FFF783FFF2E770B50446BD
:104EE0000D4604B10DB9012070BDAC4201D10020C6
:104EF000FAE705E0207808B90020F5E7641C6D1C8E
:104F00002078FBF702FA06462878FBF7FEF986427E
:104F1000F0D02078FBF7F9F906462878FBF7F5F989
:104F2000301AE1E710B50446012202492046FEF797
:104F3000A7F810BD2C00002070B505460C465A217C
:104F4000284601F065FC5A21204601F061FC1E2133
:104F50000248006801F05CFC70BD000010000020F9
:104F600010B504461E211E48006801F051FC20784F
:104F700030B101280FD0022818D003282CD120E00E
:104F80003C211848006801F043FC7821164800686D
:104F900001F03EFC21E078211248006801F038FC65
:104FA0003C211148006801F033FC16E03C210D481B
:104FB000006801F02DFC3C210B48006801F028FC42
:104FC0000BE078210748006801F022FC78210648B0
:104FD000006801F01DFC00E000BF00BF10BD000034
:104FE000100000200C0000200800002038B5044606
:104FF0000D46E0B20090FF23012269460248FEF709
:10500000A9F89DF8000038BD400300202E2070470D
:105010002DE9F04105460E461746002405B116B9A4
:105020000020BDE8F081AC685FB100E024688CB17D
:10503000206A78B13046216AFBF798F90028F5D14B
:1050400008E000E024682CB13046216AFFF746FFF3
:105050000028F7D10CB1206A08B90020E1E720460A
:10506000DFE700002DE9F0410B3020F00706104D7E
:1050700019E02068B04215D3B0420AD9871B201D21
:10508000D4F80480FBF747F9A019C0E9007828603C
:1050900004E060682860201DFBF73DF9201D2660B4
:1050A000BDE8F081251D2C68002CE2D10020F7E737
:1050B00024010020FCF7AAF8FEF772FCFEF7DCF8EA
:1050C000FEF750FAFEF7B8FAFEF78EFBFEF7A8FBE4
:1050D000FEF71CFBFEF7D2F9FEF70EFAFEF7C0FB57
:1050E0001248FFF71FFF12A0FFF70EF901F05AFC5C
:1050F00000F088F800BF41F2883011490968C862A1
:1051000001460F48C16000BF48100D490968486357
:105110004FF47A710B4800F017F800F0A1F8FEF791
:105120007BF800F0B3F800BFFEE70000400300206A
:10513000726563656976652073746172740A000034
:105140009001002000E1F50570B504460D462146AA
:10515000002000F005F82946012000F001F870BD9C
:1051600070B505460C46002C04DA644200201E4946
:10517000087002E001201C490870CDB91B490C7071
:105180001948007828B1012208211948FCF726F8AF
:1051900004E0002208211648FCF720F80022022132
:1051A0001448FCF71BF800211348FDF7EFFB1AE049
:1051B000012D18D111490C700B48007828B101223B
:1051C00008210B48FCF70AF804E0002208210848EF
:1051D000FCF704F8002202210648FBF7FFFF00213C
:1051E0000748FDF7D3FB70BD740000204400002089
:1051F0000008024000040240900100204500002009
:10520000B002002010B500210B48FDF7E5F80021A1
:105210000A48FDF7E1F800210748FDF7B7FB002138
:105220000648FDF7B3FB41F288300349096848633B
:1052300002490968486310BD90010020B0020020B7
:1052400070B50546FFF7BAF810B16FF0050404E039
:10525000002415B1284601F0F9FD204670BD00007C
:1052600010B5FFF7ABF810B16FF0050409E0064880
:10527000006820B9012004490860002401E04FF0D3
:10528000FF34204610BD0000F000002070B5FFF78D
:1052900095F810B16FF005041FE01148006801286F
:1052A00019D100BF801F0021002804DB0A07130E5C
:1052B0000C4A135406E00A07150E0B4A00F00F03C0
:1052C0001B1FD55400BF00BF02200549086001F034
:1052D0009DFE002401E04FF0FF34204670BD000029
:1052E000F000002000E400E018ED00E0FEB5044608
:1052F0000D46264616B105F0004018B16FF00300C8
:1053000002902EE04FF0FF300290FFF757F8E0B127
:105310000020019001A80023012229460090304678
:1053200002F01AFC002002AB024601460090304613
:1053300002F012FC0198A0B14FF080500A490860B9
:10534000BFF34F8FBFF36F8F0BE00023012229467D
:10535000304602F06DFB02AB00221146304602F0EF
:1053600067FB0298FEBD000004ED00E02DE9FC5F44
:10537000054689461646FFF721F810B16FF005047F
:105380004AE005F0004010B16FF0030444E009F07A
:105390000200022802D14FF0000A00E0AA460024D1
:1053A000374602F09BFC009000BF3B4601AA5146E5
:1053B000002002F03BFD8046B8F1010F22D12C40C5
:1053C0000198044309F0010040B105EA0400A84235
:1053D00000D120E056B96FF002041CE005EA040099
:1053E00000B118E016B96FF0020414E002F076FC88
:1053F0000099A0EB010BBB4501D9002708E0A7EB02
:105400000B0705E016B96FF0020401E06FF001042C
:10541000B8F1000FC9D100BF2046BDE8FC9F2DE9BF
:10542000FF4780468946144600200390FEF7C6FFDA
:1054300000284ED1B8F1000F4BD0802618258246A7
:10544000471E44B3206808B1D4F800A0A06900B199
:10545000A5692DB1382D03D8207900F0010018B1CD
:10546000002004B0BDE8F087606908B16069860873
:10547000A06840B1E0685C2805D3206918B1606974
:1054800008B1012708E0A06830B9E06820B92069B8
:1054900010B9002700E00027012F0CD12169A06876
:1054A0004B463246CDE9005102905146404602F04B
:1054B00061FA03900DE067B903A8B2B24B465146BA
:1054C000CDE90050404602F023FA012801D0002027
:1054D00003900398C5E72DE9F04180460C4600256E
:1054E0000027E068B0F57A7F02D30020BDE8F081A4
:1054F000E068401CE060A1682068405C5B2800D048
:105500005FE0A068401CA0602046FFF7F6FB4CB1AE
:10551000D4E90110884205D2A1682068405C5D286A
:1055200000D13FE01CB1D4E90110884203D3A06848
:10553000401EA06045E0A068401EA06000BF04F1CE
:105540001000FFF738FC064606B93AE015B93546B3
:10555000374602E03E6077603746A068401CA06096
:105560002046FFF7CAFB2146384600F075FA00B91D
:1055700027E02046FFF7C1FB44B1D4E9011088427F
:1055800004D2A1682068405C2C28D8D044B1D4E96A
:105590000110884204D2A1682068405C5D2800D0D8
:1055A0000FE000BFE068401EE06005B16F602020A2
:1055B000C8F80C00C8F80850A068401CA060012082
:1055C00094E715B12846FFF7BDFB00208EE70246A1
:1055D0000023002100BF23E0505C302806DB505C34
:1055E000392803DC505C3038034415E0505C412816
:1055F00006DB505C462803DC505C373803440BE084
:10560000505C612806DB505C662803DC505C573830
:10561000034401E000207047032900D21B01491C0C
:105620000429D9D31846F6E7F0B52DED028B91B0D9
:1056300006460C469FED4B0BB0EE408AF0EE608ABA
:1056400000201090FFF7E2FC074600250CB120680F
:1056500020B9002011B0BDEC028BF0BD00253CE06C
:10566000A16820680844405D342820D00ADCA0F1FD
:105670002B0009282ED2DFE800F0202D212A2D163C
:1056800017181900382816D006DC352810D036280F
:105690000FD037281ED10DE039280DD045280FD066
:1056A000652817D10BE000BF00BF00BF00BF00BFDF
:1056B00000BF00BF00BF00BF00BF00BF00BF00BFF2
:1056C000A16820680844405D0DF8050003E00DF86E
:1056D000057000E00AE000BF6D1C3F2D05D224B12B
:1056E000A068284461688842BAD300BF00200DF842
:1056F000050010A96846FEF767FEB0EE408AF0EE9E
:10570000608A68461099884201D10020A2E786EDA0
:10571000068B9FED160B53EC102B51EC180BFBF77F
:1057200043F903D86FF00040706111E09FED110B59
:1057300053EC102B51EC180BFBF71EF903D84FF06C
:105740000040706104E051EC180BFBF7F6F8706153
:105750000820F060A0686A461099891A0844A06081
:10576000012077E700000000000000000000C0FFFB
:10577000FFFFDF41000000000000E0C12DE9F04123
:1057800080460C4600260025E068B0F57A7F02D3FB
:105790000020BDE8F081E068401CE06044B1D4E93D
:1057A0000110884204D2A1682068405C7B2800D0A8
:1057B00084E0A068401CA0602046FFF79EFA4CB130
:1057C000D4E90110884205D2A1682068405C7D2898
:1057D00000D164E01CB1D4E90110884203D3A06871
:1057E000401EA0606AE0A068401EA06000BF04F1F7
:1057F0001000FFF7E0FA074607B95FE016B93E462A
:105800003D4602E02F607D603D4624B1A068401C0B
:105810006168884200D351E0A068401CA060204627
:10582000FFF76BFA2146284600F04EF800B945E034
:105830002046FFF762FA286928620020286144B1F7
:10584000D4E90110884204D2A1682068405C3A285B
:1058500000D033E0A068401CA0602046FFF74DFA5E
:105860002146284600F0F8F800B927E02046FFF767
:1058700044FA44B1D4E90110884204D2A1682068F6
:10588000405C2C28B3D044B1D4E90110884204D242
:10589000A1682068405C7D2800D00FE000BFE06870
:1058A000401EE06006B175604020C8F80C00C8F8E2
:1058B0000860A068401CA06001206AE716B130466D
:1058C000FFF740FA002064E72DE9F84F80460C46C8
:1058D000A16820680844461CA16820680844451C4B
:1058E000002000900027A1682068405C222800D09A
:1058F000A6E04FF0000AD1460DE028785C2809D1D7
:10590000681C2168401A6168884200D398E009F158
:1059100001096D1C6D1C2068281A6168884202D23A
:1059200028782228E9D12068281A6168884202D2A2
:105930002878222800D083E0A16820680844281A2B
:10594000A0EB090A0AF1010021698847074607B957
:1059500076E0009761E030785C2807D016F8010BFC
:10596000009908700098401C009056E04FF0020922
:10597000A81B012800DA63E07078662819D008DCDB
:10598000222832D02F2832D05C282FD0622840D154
:1059900008E06E2814D0722819D074281ED07528FB
:1059A00037D12BE00820009908700098401C009027
:1059B00030E00C20009908700098401C009029E00D
:1059C0000A20009908700098401C009022E00D20E9
:1059D000009908700098401C00901BE00920009975
:1059E00008700098401C009014E000BF00BF707861
:1059F000009908700098401C00900BE06A46294608
:105A0000304601F005F88146B9F1000F00D117E0EA
:105A100000E015E000BF4E4400BFAE429BD3002023
:105A2000009908701020C8F80C00C8F810702068A1
:105A3000281AA060A068401CA0600120BDE8F88F73
:105A40001FB1384661698847002716B12068301AAF
:105A5000A0600020F2E7000070B505460C460CB1CE
:105A6000206808B9002070BD9CB1A068001D616865
:105A700088420ED8A2682168881804223FA1FAF74C
:105A800083FC30B90420E860A068001DA0600120FC
:105A9000E9E79CB1A068401D616888420ED8A26801
:105AA00021688818052237A1FAF76EFC30B9012069
:105AB000E860A068401DA0600120D4E7ACB1A068F8
:105AC000001D6168884210D8A268216888180422E5
:105AD0002EA1FAF759FC40B90220E8600120686164
