:020000040800F2
:10000000D8510020850200086B28000873240008DE
:1000100069280008410E00080530000800000000B3
:10002000000000000000000000000000C501000802
:10003000430E000800000000210200086D2900089E
:100040009F0200089F0200089F0200089F0200080C
:100050009F0200089F020008450E00089F0200084A
:100060009F0200089F0200089F0200089F020008EC
:100070009F0200089F0200089F0200089F020008DC
:100080009F0200089F0200089F0200089F020008CC
:100090009F0200089F0200089F0200089F020008BC
:1000A0009F020008392A00089F0200089F020008EA
:1000B0009F0200089F0200089F0200089F0200089C
:1000C0009F0200089F0200089F0200089F0200088C
:1000D0009F0200089F0200089F0200089F0200087C
:1000E0009F0200089F0200089F020008452A00089E
:1000F0009F0200089F0200089F0200089F0200085C
:100100009F0200089F0200089F0200089F0200084B
:100110009F0200089F0200089F0200089F0200083B
:100120009F0200089F0200089F0200089F0200082B
:100130009F0200089F0200089F0200089F0200081B
:100140009F0200089F0200089F0200089F0200080B
:100150009F0200089F0200089F0200089F020008FB
:100160009F0200089F0200089F0200089F020008EB
:100170009F0200089F0200089F0200080000000084
:100180009F0200089F020008192D0008252D000875
:100190009F0200089F0200089F0200089F020008BB
:1001A00000000000000000009F020008DFF810D0EF
:1001B00000F01AFE00480047253E0008AFF300801B
:1001C000D85100202C4B19680868B0E8F04F80F334
:1001D0000988BFF36F8F4FF0000080F311887047DC
:1001E0000000000008480068006880F308884FF0AD
:1001F000000080F3148862B661B6BFF34F8FBFF37F
:100200006F8F00DF00BF00BF08ED00E0DFF80C00DB
:10021000016841F470010160704700BF88ED00E0A3
:10022000EFF30980BFF36F8F134B1A681EF0100FA6
:1002300008BF20ED108A20E9F04F106009B44FF09C
:10024000500080F31188BFF34F8FBFF36F8F05F01D
:10025000C7F84FF0000080F3118809BC19680868DE
:10026000B0E8F04F1EF0100F08BFB0EC108A80F31A
:100270000988BFF36F8F704764000020EFF305809B
:10028000704700000648804706480047FEE7FEE743
:10029000FEE7FEE7FEE7FEE7FEE7FEE7FEE7FEE736
:1002A000292A0008AD0100082DE9F05F054600206D
:1002B00092469B4688460646814640241BE02846D7
:1002C00041464746224600F0D6FB53465A46C01ADE
:1002D000914110D311461846224600F0BDFB2D1A5D
:1002E00067EB01084F4622460120002100F0B4FBD5
:1002F00017EB00094E41201EA4F10104DFDC484643
:1003000031462A464346BDE8F09FA0F14101192934
:1003100000D82030704740EA01039B0703D009E072
:1003200008C9121F08C0042AFAD203E011F8013BE1
:1003300000F8013B521EF9D27047D2B201E000F83A
:10034000012B491EFBD270470022F6E710B5134679
:100350000A4604461946FFF7F0FF204610BD421C2E
:1003600010F8011B0029FBD1801A704710B500223C
:1003700000E0521C835C8C5CA34201D1002BF8D1BD
:10038000D8B2E1B2401A10BD30B505460020034690
:1003900000E05B1C934205D2EC5CC85C201A01D1E2
:1003A000002CF6D130BD00002DE9FF4F087883B056
:1003B0009946FF2805D0491C2D2804D00024002090
:1003C00008E000200BE00124F9E700EB800003EBDC
:1003D0004000491C0B78FF2BF7D104B140420023A9
:1003E0000293147819461D462D2C01D02B2C04D1D4
:1003F000521C2D2C13D000240294AA461478FF2CF2
:100400000FD00A25A3FB057801FB05814FF0000CF6
:1004100003FB0C11521CE3194AEB0101EEE7012426
:10042000EAE7814453EA010002D019F5C87F06DAF1
:1004300003980021C0E9001107B0BDE8F08F002546
:10044000AE4E2F46DFF8B882184600F0A8FCCDE982
:100450000001B9F1000002DAC9F1000400E004462D
:100460000023A74A1AEB030B42EB045A12E0E00701
:1004700007D02A4633463846414600F0ECF9074695
:1004800088462A4633461046194600F0E4F90546E8
:100490000E466410002CEAD1DDE90001B9F1000F2D
:1004A0005A46534606DA00F00BFC3A46434600F043
:1004B00007FC05E000F0CFF93A46434600F0CBF9DF
:1004C000029A0AB181F00041039AC2E90001B3E740
:1004D0002DE9FF4F1F468DB0D7E901464FF0FF3899
:1004E0002E2045464FF000090B90B9696D1C0E98FF
:1004F0008847396A824688470028F6D1BAF1FF3F1B
:100500000AD024F4D064002E11DDBAF12B0F08D0EC
:10051000BAF12D0F0BD102E0404611B08DE744F443
:100520008064B9696D1C0E9888478246761E6946BC
:10053000600501D52D2000E02B208DF8000001F191
:10054000010B0DF1200809E0B9696D1C0E98884770
:1005500082460F9844F40074761E0560002E02DD7A
:10056000BAF1300FF0D00B998A453ED144F08004A7
:1005700006E00F99681CA9F1010944F400740860B1
:10058000B9696D1C761E0E98884782463028F0D0D7
:100590002BE00B998A4505D1200603D444F0800452
:1005A000761E18E0504602F08DFE08B30DF11301DF
:1005B000761E44F400748B4508D2AAF130000BF883
:1005C000010B200607D5A9F1010003E0200602D4A3
:1005D00009F101008146A00502D50F99681C086049
:1005E000B9696D1C0E9888478246002ED1DC53E015
:1005F000002E51DDBAF1650F02D0BAF1450F4BD193
:10060000A00549D5B9696D1C24F44074761E0E9876
:1006100088478246002E0CDD2B2804D0BAF12D0F1E
:1006200007D144F48074B9696D1C0E9888478246DE
:10063000761EE00501D52D2100E02B2108F8011BD5
:10064000CDF82C8021E00DF12901761E44F40074D0
:1006500088450CD2AAF1300010F0FF0088F80000A5
:1006600002D10B99884509D908F1010806E0E00597
:1006700001D5244801E042F20F708146B9696D1C32
:100680000E98884782460F980560002E04DD50467C
:1006900002F018FE0028D6D1F9690E988847FF208D
:1006A0008BF8000088F800000020069007904B4669
:1006B0006A4608A906A8FFF777FEA00502D46FF0E6
:1006C00001002AE714F0240F0AD0E00714D1DDE975
:1006D00006123868031D3B600068C0E900120BE099
:1006E000DDE9060100F086F90146E00704D138682B
:1006F000021D3A600068016028460EE700001440C1
:100700000000F03FF1D8FFFF2DE9FE4F804681EA5F
:100710000300C00F0C46009021F0004123F000457B
:10072000B8EB0200A94105D24046214690461C463E
:100730000B46024623F00040104347D0270DC7F375
:100740000A00C3F30A510290401A019040286BDA64
:10075000C3F3130040F4801B0098924620B100239D
:10076000D2EB030A63EB0B0B01985946C0F1400230
:10077000504600F071F906460D4650465946019A1A
:1007800000F089F910EB08006141002487EA11525A
:1007900084EAE7731A4340D0009A62B3019A012AAF
:1007A0004FEA075215DC001B61EB02014FF00042DB
:1007B00002EA0752CDE90042001C41F580113246A1
:1007C0002B4600F02FFA03B0BDE8F08F40462146DB
:1007D000F9E7001B61EB0201001C41F580130018D2
:1007E0005B412018A2F5001747EB030140EAD570E2
:1007F000B6196D4111E06D084FEA360645EAC0753D
:100800004FEA0752001B61EB0201001C41F5801109
:1008100049084FEA30000019514132462B4603B0D7
:10082000BDE8F04F00F0EFB900980122400000232E
:10083000D0EB020263EBE073009821464FEAE074CC
:10084000B8EB000061EB0401E9E783F000435BE7EC
:1008500081F0004158E72DE9FE4F81EA030404F0DE
:10086000004421F0004100944FF0000B23F00043BE
:1008700050EA01045ED052EA03045BD0C3F30A5489
:10088000C1F30A552C44A4F2F3340194A0FB0254A2
:10089000C1F3130141F48011C3F3130343F4801334
:1008A00001FB024400FB034E840A970A44EA815488
:1008B00047EA8357A4FB076802958D0A05FB078565
:1008C0004FEA932C04FB0C542705029D4FEA06586F
:1008D00047EA1637B5EB08056EEB070C870E920E4C
:1008E00047EA811742EA8312A7FB0201B6EB0B012C
:1008F00064EB00042B0D43EA0C335E1844EB1C50F0
:10090000DA465146E7FB0201C5F313044FEA0B3305
:1009100043EA14534FEA0432019C43EA0603A4F16C
:100920000C040294009CCDE900B400F07BF903B004
:10093000BDE8F08F00200146F9E70EB540F23341E3
:1009400002910021CDE900110A460B4600F06AF938
:1009500003B000BD70B5C1F30A5201F00045002498
:10096000C1F3130140F2FF3341F480119A4201DADE
:10097000002070BD40F233439A42A2F2334203DCBE
:10098000524200F078F800E090402C43F1D0404211
:1009900070BD000030B5041E71F1000404DB4FF09F
:1009A0000044404264EB0101141E73F1000405DBB6
:1009B0001C464FF00043524263EB04038B4208BFD6
:1009C000824230BD30B5041E71F1000404DB4FF0EB
:1009D0000044404264EB0101141E73F1000405DB86
:1009E0001C464FF00043524263EB0403994208BF98
:1009F000904230BD01F0004330B421F0004150EA94
:100A0000010206D00A0DA2F56072C1F31301002A9B
:100A100002DC30BC00207047440F44EAC104C1002E
:100A2000E01830BC00EBC25000F0B6B830B50B4651
:100A3000014600202022012409E021FA02F59D420E
:100A400005D303FA02F5491B04FA02F52844151EE2
:100A5000A2F10102F1DC30BD202A04DB203A00FAC9
:100A600002F1002070479140C2F1200320FA03F305
:100A7000194390407047202A04DB203A21FA02F003
:100A80000021704721FA02F3D040C2F120029140C8
:100A9000084319467047202A06DBCB17203A41FA53
:100AA00002F043EAE07306E041FA02F3D040C2F1FB
:100AB00020029140084319467047426842B10168DC
:100AC00011F8013B23B1521EC0E9001218467047CD
:100AD0000121C160881E704742685AB1C36801682D
:100AE00043B983688B4205D0491E521CC0E90012ED
:100AF000002070474FF0FF30704700000FB4002314
:100B000000B589B00CA900910B996FF00042CB6041
:100B10001E4B06931E4B07930423CDE901321D4A59
:100B2000089202466B460020FFF7D2FC09B05DF840
:100B300014FB70B586B006464FF0FF300091CDE94A
:100B40000101002015460C4604903246694604A86F
:100B5000FFF7D4FF02460498211825B108B10846D2
:100B600000E020462860049800280DD0002A02DD0D
:100B70000098884208D0081B0094CDE90104324651
:100B8000694604A8FFF7BAFF06B070BDBB0A0008AB
:100B9000D90A00080D0E00080029A8BF7047401CA4
:100BA000490008BF20F00100704710B4B0FA80FC83
:100BB00000FA0CF050EA010404BF10BC704749B1C0
:100BC000CCF1200421FA04F411FA0CF118BF012130
:100BD00021430843A3EB0C01CB1D4FEA00614FEA10
:100BE000102042BF002010BC704700EBC3501044DF
:100BF0000029A4BF10BC7047401C490008BF20F06A
:100C0000010010BC704710B5141E73F1000408DA1F
:100C1000401C41F1000192185B411A4301D120F0C0
:100C2000010010BD2DE9F04D92469B4611B1B1FA7D
:100C300081F202E0B0FA80F220329046FFF70CFF1A
:100C400004460F4640EA0A0041EA0B0153465A4661
:100C5000084313D0114653EA010019D0C8F14002ED
:100C60005046FFF708FF05460E4650465946424695
:100C7000FFF7F2FE084305D0012004E02046394684
:100C8000BDE8F08D0020054346EAE0762C4337436B
:100C90000A986305E40AA0EB08000022FD0A44EA72
:100CA00047540A3002D500200146E9E70105101932
:100CB0006941DDE9084500196941BDE8F04DA2E749
:100CC0002DE9F04D81EA030404F0004B21F00045CA
:100CD00014464FF0000A23F0004150EA050220D0EC
:100CE00054EA01021DD0C5F30A570246C5F31303A7
:100CF000C1F31300C1F30A5640F4801543F4801386
:100D0000A7EB0608101BD64608F2FD3873EB05006A
:100D100002D308F1010801E092185B41B8F1000F1D
:100D200003DA00200146BDE8F08D00204FF4801169
:100D3000064684460EE0171B73EB050705D3121B0E
:100D400063EB050306434CEA010C49084FEA300007
:100D500092185B4150EA0107EDD152EA030012D02C
:100D600082EA040083EA0501084305D0101BAB4169
:100D700006D20122002306E000224FF0004302E0E9
:100D80006FF0010253101AEB06004CEB085110EB08
:100D90000A0041EB0B01BDE8F04DFFF734BF0EB583
:100DA00040F2334202920022CDE900221346FFF7BF
:100DB00039FF03B000BDC1F30A52C1F3130140F281
:100DC000FF3341F480119A4202DA00200146704755
:100DD00040F233439A42A2F2334202DC5242FFF71E
:100DE0004ABEFFF739BE0000064C074D06E0E0683A
:100DF00040F0010394E8070098471034AC42F6D362
:100E0000FFF7D8F96861000888610008C0B24FF4A4
:100E1000F05100F001B800007F2801D9002208E05D
:100E2000064A02EB5002C007127800D1120902F004
:100E30000F02012090400840704700000C6100083C
:100E4000FEE77047012000F079B872B6FEE72DE9A1
:100E5000F0410446876D00F09DF9064694F8350090
:100E60000025022806D08020606584F834500120D7
:100E7000BDE8F0812068016821F01601016020685A
:100E8000416921F080014161206C08B9A06C20B15A
:100E90002068016821F0080101602068016821F0E4
:100EA000010101600CE000F075F9801B052807D9ED
:100EB00020206065032084F8350084F83450D7E79B
:100EC00020680068C007EED194F85C103F2088408D
:100ED000B860012084F8350084F834500020C7E75A
:100EE00090F83510022903D0802141650120704718
:100EF000052180F835100068016821F001010160CA
:100F00000020704770B50B4C0B4800252178006815
:100F100041B1012905D1406A6060074800F02CFE0C
:100F2000257070BD4562044800F0AAFD01202070C4
:100F300070BD000014000020E4010020044910B539
:100F40000A68024202D00860FFF7DCFF10BD000013
:100F5000143C01402DE9F84FDFF8F8A100220124EC
:100F600003254FF00F090AF1040BAAF1040E00BF8C
:100F70000B6804FA02F63340B34270D10F7907F0E0
:100F80000307012F01D0022F16D187684FEA4208CC
:100F900005FA08FC27EA0C07D1F80CC00CFA08FC8B
:100FA0004CEA070CC0F808C04768B7430E79C6F38F
:100FB000001696403E4346600E79F643B6070AD0C7
:100FC000C7684FEA420C05FA0CF6B7438E6806FA7A
:100FD0000CF63E43C6600E7906F00306022E10D1D1
:100FE000D60800EB8608D8F8206057074FEAD76C80
:100FF00009FA0CF7BE430F6907FA0CF73743C8F834
:10100000207006684FEA420C05FA0CF7BE430F79D0
:1010100007F0030707FA0CF7374307604E6816F42A
:10102000403F1CD04C4E376847F4804737603668E5
:1010300022F0030706F480460096484E07EB060CA4
:10104000DCF8086897073F0F09FA07F826EA080650
:10105000DFF80C81404503D14FF0000841E072E019
:10106000DFF80081404502D14FF0010839E0DFF898
:10107000F880404502D14FF0020832E0DFF8EC8002
:10108000404502D14FF003082BE0DFF8E4804045F3
:1010900002D14FF0040824E0DFF8D880404502D1A7
:1010A0004FF005081DE0DFF8D080404502D14FF039
:1010B000060816E0DFF8C480404502D14FF007086B
:1010C0000FE0DFF8BC80404502D14FF0080808E08F
:1010D000DFF8B080404502D14FF0090801E04FF041
:1010E0000A0808FA07F848EA0608CCF80888DAF887
:1010F00000605746D1F804C09E435FEACC2C00D56F
:101100001E433E60DBF800605F46D1F804C09E439A
:101110005FEA8C2C00D51E433E60DEF80060774607
:10112000D1F804C09E435FEA8C3C00D51E433E606C
:10113000084F083F3E68D1F804C09E435FEACC3CAC
:1011400000D51E433E60521C102AFFF411AFBDE8CB
:10115000F88F0000083C0140443802400030014054
:10116000000002400004024000080240000C02405F
:10117000001002400014024000180240001C02400F
:1011800000200240002402400AB181617047090436
:10119000FBE7000001488068704700005400002011
:1011A0000248816802781144816070475400002031
:1011B0000B4810B5016841F400710160016841F409
:1011C00080610160016841F480710160032000F0DA
:1011D00099F80F2000F006F800F04AF8002010BD42
:1011E000003C024030B505461C4887B00024016829
:1011F00041F001010160006806A900F001000090C3
:1012000001A800F063F900F091F915494000B0FB26
:10121000F1F11548134A491E026040F2E732C0E975
:101220000324C0E90114846100F0C2FB040012D160
:101230000D4800F061FC04000DD1192000F034F8D5
:10124000102D07D200222946192000F03BF807484C
:10125000056000E0012407B0204630BD443802405C
:1012600040420F0000000140BC0200205800002056
:101270000C4882B0016841F480410160006800F4CC
:10128000804000900748001F016841F080510160D4
:101290000068002200F0805000900F21901E02B0E4
:1012A00000F010B844380240002809DB00F01F02AB
:1012B000012191404009800000F1E020C0F80011B8
:1012C00070470000F0B40E4B1B680C46C3F30223BA
:1012D000C3F10705042D00D90425191D072901D2E2
:1012E000002300E0DB1E012606FA05F1491E21401D
:1012F00099409E40761E16403143F0BC01F094BEEA
:101300000CED00E0064900F0070208684FF6FF0305
:10131000184040EA0220034A10430860704700006A
:101320000CED00E00000FA052DE9F84317480168CC
:1013300041F0805101600068154F00F08050012697
:1013400000903E64FFF726FF05464FF47A78114C73
:1013500005E000BFFFF71EFF401B40450DD8606849
:10136000C003F7D57E64FFF715FF0546464607E044
:10137000FFF710FF401BB04202D90320BDE8F883FD
:1013800060688003F4D50020F8E700004038024090
:1013900000000E42007000402DE9F0470E460500A7
:1013A00065D0DFF81481D8F80000F7B200F00F0024
:1013B000B04207D288F80070D8F8000000F00F00A3
:1013C000B04254D128683D4C810712D5400703D55F
:1013D000206840F4E05020602878000703D520689A
:1013E00040F4604020602068A96820F0F0000843C5
:1013F00020602878C0072DD0304968680839012856
:1014000012D0022813D0032811D0096889070029B7
:101410002DDA216821F0030101432160FFF7BAFEB4
:10142000814641F2883A0EE009688903EFE70968CE
:101430008901ECE7FFF7AEFEA0EB0901514502D9A7
:101440000320BDE8F0872068696800F00C00B0EB6D
:10145000810FEFD1D8F80010404601F00F01B142E2
:1014600007D90770006800F00F00B04201D00120DA
:10147000E7E72878400705D52068E96820F4E050C0
:10148000084320602878000706D52068296920F4E1
:10149000604040EAC100206000F058F82168084A26
:1014A000C1F30311515CC840064908600648006852
:1014B000FFF798FE0020C4E7003C024008380240D5
:1014C000F460000860000020580000200F22026035
:1014D0000C4A136803F003034360136803F0F0033E
:1014E0008360136803F4E053C36012684FF4E05361
:1014F00003EAD20202610448006800F00F000860AD
:101500007047000008380240003C0240044805498A
:1015100000680968044AC1F38221515CC8407047E1
:1015200060000020083802400461000804480549B2
:1015300000680968044AC1F34231515CC8407047F1
:10154000600000200838024004610008154810B50A
:10155000006810F00C02144813D01449042A0FD06C
:10156000082A0ED10F4C241F2268236802F03F0284
:101570005B0207D52068C0F38810A0FB010106E0DC
:10158000084610BD2168C1F38811A1FB00010023AA
:10159000FEF78AFE2168C1F30141491C4900B0FBF6
:1015A000F1F010BD083802400024F40040787D01BD
:1015B0002DE9F84F04006ED02078DFF84C93C00777
:1015C000A9F104054AD009F104000168C1F38101C1
:1015D000012908D00068C0F3810002280AD1D9F897
:1015E0000000400206D52868800337D560680028CF
:1015F000E1D033E06068B0F5803F10D0B0F5A02FA7
:10160000286810D020F480302860286820F48020DA
:1016100028606068A8B1FFF7BDFD06460DE02868A8
:1016200040F48030F4E740F480202860F7E700BF02
:10163000FFF7B0FD801B642873D828688003F7D5B6
:101640000CE0FFF7A7FD064605E000BFFFF7A2FD8F
:10165000801B6428F0D828688003F7D42078DFF84E
:10166000AC8280074FF0000A3ED5A748001D0168F4
:1016700011F00C0F08D00068C0F3810002280BD1D4
:10168000D9F80000400207D42868800716D5E06822
:10169000012800D112E033E1E068B8B10120C8F8B8
:1016A0000000FFF777FD064605E000BFFFF772FD7B
:1016B000801B0228C0D828688007F7D528682169D0
:1016C00020F0F80040EAC10028600DE0C8F800A052
:1016D000FFF760FD064604E0FFF75CFD801B022873
:1016E0001FD828688007F7D42078000722D5864FB6
:1016F00087486169703771B101210160FFF74AFDC8
:10170000064604E0FFF746FD801B022809D838682A
:101710008007F7D50EE0C0F800A0FFF73BFD0646B6
:1017200005E082E0FFF736FD801B02287DD838688F
:101730008007F7D42078400768D5DFF8CCB10027C0
:101740000BF13C0BDBF80000C0000BD4DBF8001001
:1017500041F08051CBF80010DBF80000012700F0C9
:10176000805000906B4E3068C00510D4306840F453
:1017700080703060FFF70EFD009005E0FFF70AFD76
:101780000099401A022850D83068C005F6D55E4E40
:10179000A0686C3601280FD00528306810D020F0E2
:1017A00001003060306820F004003060A068B8B1FB
:1017B000FFF7F0FC00900FE0306840F00100F4E724
:1017C00040F004003060F7E7FFF7E4FC0099411AAD
:1017D00041F28830814266D830688007F4D50EE047
:1017E000FFF7D8FC009007E0FFF7D4FC0099411AFE
:1017F00041F28830814256D830688007F4D42FB146
:10180000DBF8001021F08051CBF80010A069C8B3BC
:101810003D49091D0968C1F3810102294AD0022806
:10182000504607D0C8F8600000E03CE0FFF7B2FC8B
:1018300004463BE04746C8F86000FFF7ABFC0646AD
:1018400005E000BFFFF7A6FC801B02282BD8286804
:101850008001F7D4D4E907010843A16A2E4A490858
:1018600002EB0141626A41EA8211084394F82C10AC
:1018700040EA0161C9F8001001203866FFF78AFCD0
:10188000044606E03EE000BFFFF784FC001B022890
:1018900009D828688001F7D534E000BFFFF77AFC4B
:1018A000001B022802D90320BDE8F88F28688001B8
:1018B000F4D427E00128F7D0D9F80000E26900F459
:1018C000800191421CD1226A00F03F01914217D160
:1018D00047F6C071626A0140B1EB821F10D1A26A63
:1018E0004FF0FF3300F4403103EB5202B1EB024FF3
:1018F00006D194F82C1000F07060B0EB016F01D0AD
:101900000120D1E70020CFE7043802400000474221
:10191000800E4742007000400000FFFF7047704794
:1019200070B590F83C20012A32D0012480F83C4068
:10193000022280F83D2003685A689D6822F07006F4
:101940000A6832435A60134B02689A4214D0B2F1CB
:10195000804F11D0104B9A420ED0104B9A420BD0B0
:101960000F4B9A4208D00F4B9A4205D00E4B9A4229
:1019700002D00E4B9A4204D1496825F080031943E6
:10198000916080F83D40002180F83C10084670BD11
:10199000022070BD0000014000040040000800402B
:1019A000000C0040000401400040014000180040CD
:1019B00010B5040003D094F83D0010B107E00120F9
:1019C00010BD002084F83C00204600F01FF80220E3
:1019D00084F83D00211D206801F03AF8012084F8C8
:1019E000460084F83E0084F83F0084F8400084F804
:1019F000410084F8420084F8430084F8440084F8ED
:101A0000450084F83D00002010BD000008B5184ACC
:101A100001681848914207D1016841F00401016052
:101A2000006800F0040009E0134A914208D10168FF
:101A300041F008010160006800F00800009008BD56
:101A40000E488142FBD10B48001D016841F00201A4
:101A500001600068002200F00200009005212B20A8
:101A6000FFF730FCBDE808402B20FFF71DBC00004D
:101A70000008004040380240000C004000040140D3
:101A800090F83D10012901D001207047022180F813
:101A90003D1000681149884214D0B0F1804F11D038
:101AA0000F4988420ED00F4988420BD00E49884218
:101AB00008D00E49884205D00D49884202D00D4910
:101AC000884204D1816801F00701062903D001682A
:101AD00041F001010160002070470000000001405A
:101AE0000004004000080040000C004000040140D9
:101AF000004001400018004090F83D10012901D03D
:101B000001207047022180F83D100168CA6842F048
:101B10000102CA6000681149884214D0B0F1804FB8
:101B200011D00F4988420ED00E4988420BD00E4981
:101B3000884208D00D49884205D00D49884202D01C
:101B40000C49884204D1816801F00701062903D0BD
:101B5000016841F001010160002070470000014070
:101B60000004004000080040000C00400004014058
:101B7000004001400018004001680A6A41F2111358
:101B80001A4207D10A6A9B101A4203D10A6822F04E
:101B900001020A60012180F83D100020704770B5F5
:101BA000044690F83C000025012817D0012684F84F
:101BB0003C60022084F83D002068826822F07702B1
:101BC00022F47F4282600868502838D00DDC20283B
:101BD0004FD005DC90B3102811D14AE0022070BD2F
:101BE000302846D040280AD13BE060282FD070280A
:101BF0000DD0B0F5805F03D0B0F5005F12D00125A5
:101C000084F83D60002084F83C00284670BDCB6815
:101C1000D1E90121206800F087FF2068816841F048
:101C2000770109E0CB68D1E90121206800F07CFF51
:101C30002068816841F480418160E1E719E0CA6869
:101C40004968206801F044F85021206806E0CA681D
:101C50004968206801F04DF86021206800F06EFFAF
:101C6000CEE7CA684968206801F032F84021206850
:101C7000F4E7226801461046F0E770472DE9F0418D
:101C800004460068C66805694FF00007A90713D528
:101C9000B10711D5F91E0161012020772068806904
:101CA0008007204602D0FFF7E8FF04E000F0D2F8FA
:101CB000204600F064F92777680716D5700714D519
:101CC00021686FF004000861022020772068806995
:101CD00010F4407F204602D0FFF7CFFF04E000F071
:101CE000B9F8204600F04BF92777280715D53007BB
:101CF00013D521686FF00800086104202077206860
:101D0000C0698007204602D0FFF7B7FF04E000F06B
:101D1000A1F8204600F033F92777E80616D5F0063B
:101D200014D521686FF01000086108202077206822
:101D3000C06910F4407F204602D0FFF79EFF04E008
:101D400000F088F8204600F01AF92777E80708D055
:101D5000F00706D021686FF001000861204600F00E
:101D60000FF9280608D5300606D521686FF08000E7
:101D700008612046FFF7D2FD680608D5700606D533
:101D800021686FF040000861204600F003F9A806C2
:101D90000AD5B00608D521686FF0200008612046FA
:101DA000BDE8F041FFF7BBBDBDE8F08130B587B0BD
:101DB000044614216846FEF7C7FA204A2168002429
:101DC0001F48022591420FD1016841F008010160CE
:101DD0000068694600F0080005904FF470400090DC
:101DE000CDE90154174823E0174A914224D10168F4
:101DF00041F480710160016801F48071059101680E
:101E000041F0800101600068694600F080000590A3
:101E100001200090CDE901540C48CDE90345FFF7BE
:101E200099F84FF4E0500090CDE901540848694614
:101E3000CDE90345FFF78EF807B030BD000800403C
:101E400030380240000C0240000C004000200240EC
:101E5000001C0240704770B5044690F83C00002614
:101E60000D4601280FD0012084F83C006AB1042AF5
:101E70001DD0082A2FD00C2A3FD00126002084F83C
:101E80003C00304670BD022070BD206800F05EFE50
:101E90002068816941F0080181612068816921F031
:101EA00004018161206881692A69114311E0206879
:101EB00000F07CFE2068816941F400618161206846
:101EC000816921F480618161206881692A6941EA20
:101ED00002218161D2E7206800F09EFE2068C1697E
:101EE00041F00801C1612068C16921F00401C161AC
:101EF0002068C1692A69114311E0206800F0C0FE22
:101F00002068C16941F40061C1612068C16921F4A0
:101F10008061C1612068C1692A6941EA0221C16109
:101F2000ACE710B5040003D094F83D0010B107E011
:101F3000012010BD002084F83C00204600F01EF86F
:101F4000022084F83D00211D206800F081FD012061
:101F500084F8460084F83E0084F83F0084F840008E
:101F600084F8410084F8420084F8430084F8440077
:101F700084F8450084F83D00002010BD704770478C
:101F800000680349884201D1FFF70AB97047000091
:101F9000000001407047704770470000F8B50168C5
:101FA00004460868CA684B6910F00F0F4FF000052F
:101FB00059D003F0010602F49077374365D0C1078A
:101FC00005D0D10503D5616C41F001016164410781
:101FD00005D5D90703D0616C41F002016164810726
:101FE00005D5D90703D0616C41F004016164010794
:101FF00007D502F02001314303D0616C41F00801A4
:102000006164616C00293AD0800604D5900602D53F
:10201000204600F0BCFE20684069616CC0F380106F
:10202000090700D460B3204600F08AFE20684069AA
:10203000400621D52068143050E8001F21F04001EF
:1020400040E80012002AF5D1E06BA8B16E490165A5
:10205000E06BFEF745FF002811D0E06B016D01B089
:10206000BDE8F040084783060FD593060DD52046FE
:10207000BDE8F84000F08BBE2046FFF78DFFF8BDAD
:102080002046FFF789FF6564F8BD266B2023012EEB
:102090007DD1C6067BD5D60679D5086848680090FC
:1020A00048694FF00206400641D5E16B0868406878
:1020B0000004000CE8D0A28D8242E5D9E085C86911
:1020C000B0F5807F2DD020680C3050E8001F21F43F
:1020D000807140E80012002AF5D12068143050E8E1
:1020E000001F21F0010140E80012002AF5D120680C
:1020F000143050E8001F21F0400140E80012002A8F
:10210000F5D184F84230256320680C3050E8001F78
:1021100021F0100140E80012002AF5D1E06BFEF733
:1021200096FE6663A08DE18D401A81B22AE0A08DF3
:10213000E18D401A81B2E08D0028A5D00029A3D0FE
:1021400022680C3252E8000F20F4907042E8000739
:10215000002FF5D12068143050E8002F22F0010242
:1021600040E80027002FF5D184F84230256320682D
:102170000C3050E8002F22F0100240E80023002B22
:10218000F5D166632046FFF706FFF8BDFFE70506B9
:102190002BD5150629D594F841002128F5D1A06842
:1021A000B0F5805F01D12069B0B1206A411C216285
:1021B000216800784860E08C401E0004000CE08438
:1021C000E3D12068C16821F08001C1602068C16846
:1021D00041F04001C160D8E7206A0088C0F30800E0
:1021E0004860206A801C2062E5E74006CDD5500695
:1021F000CBD5CA68204622F04002CA6084F841303C
:1022000000F036F9C1E70000312D000870B5040078
:1022100004D094F84100002510B106E0012070BD03
:1022200084F84050204600F023F8242084F8410030
:102230002068C16821F40051C160204600F008FE0A
:102240002068016921F4904101612068416921F011
:102250002A0141612068C16841F40051C160656490
:10226000202084F8410084F842006563002070BD9E
:10227000F0B587B0044614216846FEF765F82A4990
:10228000284F2668002228481039022403230825F5
:10229000BE4220D1066846F080460660006800F025
:1022A00080400590086840F020000860086802AE91
:1022B00000F020000590C020CDE9000486E82C0045
:1022C00069461A48FEF746FE002205215220FEF715
:1022D000F9FF522021E0164FBE4220D1066846F099
:1022E00000460660006800F000400590086840F075
:1022F000100008600868CDE9003400F01000CDE956
:10230000045069460B48CDE90223FEF723FE002264
:1023100005215320FEF7D6FF5320FEF7C5FF07B077
:10232000F0BD000000780040403802400014024038
:10233000007C00400010024090F84230202B01D079
:102340000220704721B11AB10023036300F006BEDA
:102350000120704770B51B4C0646002560780128A7
:1023600022D12146A0780A782D2808D0312A17D307
:1023700032211548FDF7E8FF6570257014E0124919
:1023800001F13200FDF7C7FF32210F48FDF7DCFFF6
:102390000E48657025700121006801F09BFD03E087
:1023A00009498854521C2270A0782B2802D10120A0
:1023B000607025703046BDE8704002490122891CDA
:1023C000FFF7BABF2C000020F000002050000020D2
:1023D0002DE9F843044690F84100984616460D460C
:1023E000202802D00220BDE8F88385B17EB100200C
:1023F0006064212084F84100FEF7CCFEA68481466B
:10240000E684A0682027B0F5805F02D003E00120B9
:10241000E9E7206910B12E4600250EE000260CE009
:102420008021204600F0B5FDA8B9C6B116F8010B11
:1024300021684860E08C401EE084E08C4B464FF001
:102440000002CDF800800028EAD14FF0400120467C
:1024500000F09FFD40B184F841700320C3E735F8D8
:10246000020BC0F30800E3E784F841700020BAE7EC
:102470007047FEE710B50C2000F02AFE074C084A12
:1024800000216060074801F0ABFD054AA0602432DE
:102490000021054801F0A4FDE06010BD44000020CB
:1024A000AC600008DD280008212900082DE9F0476C
:1024B00086B014216846FDF747FF4B4800240168A9
:1024C00041F010010160016801F0100105910168FF
:1024D00041F001010160016801F00101059101680D
:1024E00041F020010160016801F0200105910168BF
:1024F00041F480710160016801F480710591016807
:1025000041F080010160016801F0800105910168DE
:1025100041F008010160016801F0080105910168BE
:1025200041F004010160016801F0040105910168B6
:1025300041F04001016000682C4F00F04000059020
:10254000002260213846FEF71FFEDFF8A4803E140B
:10255000002231464046FEF717FEDFF89890002231
:1025600014214846FEF710FEDFF88CA0002202215D
:102570005046FEF709FE602000900125CDE9015488
:10258000694638460394FEF7E5FC4FF44410009585
:10259000CDE9010469464046FEF7DCFC0096CDE932
:1025A0000154694640460394FEF7D4FC1420009081
:1025B000CDE90154694648460394FEF7CBFC02205E
:1025C0000090CDE90154694650460394FEF7C2FCE1
:1025D000002205210620FEF775FE0620FEF764FEA8
:1025E00006B0BDE8F087000030380240001002401D
:1025F00000140240000802400018024010B58EB0DE
:1026000000240794089409940A940B941C216846AA
:102610000C94FDF799FE2A48284901605921C0E928
:10262000011444F61F61C0E903148461FFF7C0F987
:1026300008B1FEF70AFC4FF48050079007A9204824
:10264000FFF7ADFA08B1FEF700FC1D48FFF769FC83
:1026500008B1FEF7FAFB0B940BA919480C94FFF78D
:102660005FF908B1FEF7F1FB6020CDE900040294A8
:102670000022694612480494FFF7EDFB08B1FEF70B
:10268000E4FB042269460E48FFF7E5FB08B1FEF7BC
:10269000DCFB082269460A48FFF7DDFB08B1FEF7BC
:1026A000D4FB0C2269460648FFF7D5FB08B1FEF7BC
:1026B000CCFB0348FFF77AFB0EB010BD00080040CA
:1026C0005401002010B58EB000240794089409949A
:1026D0000A940B941C2168460C94FDF735FE2A4899
:1026E000284901605921C0E9011444F61F61C0E97D
:1026F00003148461FFF75CF908B1FEF7A6FB4FF401
:102700008050079007A92048FFF749FA08B1FEF763
:102710009CFB1D48FFF705FC08B1FEF796FB0B94E8
:102720000BA919480C94FFF7FBF808B1FEF78DFBD5
:102730006020CDE900040294002269461248049406
:10274000FFF789FB08B1FEF780FB042269460E48BB
:10275000FFF781FB08B1FEF778FB082269460A48BB
:10276000FFF779FB08B1FEF770FB0C2269460648BB
:10277000FFF771FB08B1FEF768FB0348FFF716FB94
:102780000EB010BD000C00409C01002010B586B0BA
:10279000002418480094019402940394049414496A
:1027A00005940160B321C0E901144FF6FF71C0E93F
:1027B00003148021C0E90541FFF7FAF808B1FEF7DC
:1027C00044FB4FF48050009069460A48FFF7E7F950
:1027D00008B1FEF73AFB049404A906480594FFF7F4
:1027E0009FF8002801D0FEF730FB06B010BD0000B6
:1027F00000040140E40100200C4810B50A490160C2
:102800004FF416514160002181600C22C160C0E983
:1028100004128161C161FFF7F9FC002803D0BDE813
:102820001040FEF712BB10BD007800402C020020C3
:102830000C4810B50A4901604FF4E13141600021B4
:1028400081600C22C160C0E904128161C161FFF79F
:10285000DDFC002803D0BDE81040FEF7F6BA10BD3D
:10286000007C004074020020FEE7FEE710B50C205B
:1028700000F02EFC144CA0600C2000F029FCE0605D
:102880000C2000F025FC20610C2000F021FC606190
:10289000A1680E480860E1680D4808602169086079
:1028A00061690C480860A36802209880E2682020D3
:1028B000908024694020A080042088800648986089
:1028C0009060A060886010BD1400002000140240D9
:1028D0000010024000080240E4010020074C4FF4C1
:1028E000FA7500BF01F068FA2070011E02D004A042
:1028F00000F08AFB284602F0BFFCF3E7440000200A
:102900007B226F7065726174696F6E223A22302289
:102910002C22697346756C6C223A25647D00000098
:102920004FF0FF35084C2A460021012001F00CFB36
:10293000606802F0B3FA606801F066F9217803A0DC
:1029400000F062FBEFE70000440000207B226F7084
:1029500065726174696F6E223A2231222C2269738A
:1029600046756C6C223A25647D00000010B54FF06E
:10297000E020006903F09EF9012803D0BDE8104073
:1029800002F0DABD10BD000030B593B030216846CA
:10299000FDF7DAFC14210CA8FDF7D6FC2048002531
:1029A000016841F080510160006800F08050119092
:1029B0001C48016841F4404101600068022400F4B1
:1029C0004040119001200390102004900094069440
:1029D0000820CDE90750B420CDE9090404200B906C
:1029E0006846FEF7E5FD08B172B6FEE7FEF79CFC0F
:1029F00008B172B6FEE70CA90F2081E831004FF450
:102A0000A0500F904FF48050109005210CA8FEF7B5
:102A1000C3FC002801D072B6FEE713B030BD000041
:102A200040380240007000400248016841F47001E3
:102A30000160704788ED00E00148FFF71FB9000012
:102A4000BC0200200148FFF719B90000E401002092
:102A5000F0B50268294C2A4D2A4E2B4F2B4B4FF0D4
:102A6000804CA04209D0604507D0A84205D0B042B2
:102A700003D0B84201D0984204D122F0700E4A68C7
:102A800042EA0E02A0421BD0604519D0A84217D0DE
:102A9000B04215D0B84213D0984211D01C4DA84274
:102AA0000ED01C4DA8420BD01B4DA84208D01B4D88
:102AB000A84205D01A4DA84202D01A4DA84203D10F
:102AC00022F44075CA682A434D6922F080022A43E5
:102AD00002608A68C2620A688262A04201D098429B
:102AE00001D109690163012141610169C90703D06D
:102AF000016921F001010161F0BD00000000014009
:102B00000004004000080040000C004000040140A8
:102B100000400140004401400048014000180040CE
:102B2000001C00400020004010B5846842EA0322E7
:102B300024F47F440A432243826010BD826822F05D
:102B400070020A4342F0070181607047F0B5036AE2
:102B5000026A22F00102026242688469124E24F085
:102B600073050C682C4323F002058B682B430D4D35
:102B7000A84201D0B04205D123F00807CB683B43FF
:102B800023F00403A84201D0B04205D14D6922F4DC
:102B9000407215438A692A434260846149684163EF
:102BA0000362F0BD0000014000040140F0B5026A7C
:102BB000036A23F010030362436884690D6824F4F8
:102BC000E64444EA05248D6822F0200242EA051218
:102BD0000F4D104EA84201D0B04206D1CF6822F06E
:102BE000800242EA071222F04002A84201D0B0421D
:102BF00007D14D6923F4406343EA85038D6943EAB5
:102C0000850343608461496881630262F0BD00000E
:102C10000000014000040140F0B5026A036A23F499
:102C2000807303624368C46922F4007224F0730560
:102C30000C68124E2C438D6842EA05220E4DA842C4
:102C400001D0B04206D1CF6822F4006242EA0722E6
:102C500022F48062A84201D0B04207D14D6923F42A
:102C6000405343EA05138D6943EA05134360C46189
:102C70004968C1630262F0BD0000014000040140E8
:102C800030B5046A026A22F4805202624268C36963
:102C90000D6823F4E64343EA05238D6824F40054C9
:102CA00044EA0534084DA84202D0084DA84204D198
:102CB0004D6922F4804242EA85124260C36149684C
:102CC0000164046230BD00000000014000040140C6
:102CD00010B5036A046A24F001040462846924F0D4
:102CE000F00444EA021423F00A020A4384610262F7
:102CF00010BD10B5036A046A24F0100404628469EC
:102D000023F0A00324F4704444EA023243EA0111A0
:102D10008261016210BD00000148FFF73FB9000069
:102D20002C0200200148FFF739B90000740200208E
:102D300010B5806B0021C185C184FFF72DF910BD4E
:102D400001680C3151E8002F22F4907241E8002311
:102D5000002BF5D10168143151E8002F22F0010257
:102D600041E80023002BF5D1016B012909D101684D
:102D70000C3151E8002F22F0100241E80023002B13
:102D8000F5D1202180F8421000210163704708B579
:102D900090F84210222901D0022008BD82684FF429
:102DA00080539A4201D1016921B1816A9A421BD0B4
:102DB0004AB10AE00268816A5268C2F308020A80D6
:102DC000816A891C08E0026972B10268526802F0E7
:102DD0007F020A70816A491C8162C18D491E090403
:102DE000090CC18503D01BE002685268F1E7016855
:102DF000CA6822F02002CA600168CA6822F48072A0
:102E0000CA6001684A6922F001024A61202180F803
:102E1000421000214163026B012A03D0FFF79AFAA6
:102E2000002008BD016301680C3151E8002F22F039
:102E3000100241E80023002BF5D101680A68D20690
:102E400002D50A6849680091818DFFF7A4F8E7E789
:102E500070B5044600680169E26821F440511143ED
:102E600001612169A068E26908436169114308436F
:102E70002168CA6849F20C639A430243CA60206819
:102E80004169A26921F440711143416131492068CF
:102E9000884202D03049884202D1FEF747FB01E068
:102EA000FEF734FBE2690023192164253226B2F5CE
:102EB000004F626828D0A0FB0101930F9200FDF73C
:102EC000F3F90146B0FBF5F06FF01802504301EB47
:102ED000800006EB0010B0FBF5F000F0F002B1FB53
:102EE000F5F002EB0012B1FBF5F06FF01803584358
:102EF00001EB800006EB0010B0FBF5F000F00F00D6
:102F000021681044886070BDA0FB010192185B41EC
:102F1000FDF7CAF90146B0FBF5F00201B1FBF5F08F
:102F20006FF01803584301EB800006EBC000B0FBC4
:102F3000F5F000F0F80002EB4002B1FBF5F0584369
:102F400001EB800006EBC000B0FBF5F000F00700DD
:102F5000D6E7000000100140001401408162828524
:102F6000C28500214164222180F84210016921B10B
:102F70000168CA6842F48072CA6001684A6942F016
:102F800001024A610068C16841F02001C16000206F
:102F900070472DE9F843984617460D460446089EAB
:102FA00024E0701C22D0FEF7F5F8A0EB0800B04238
:102FB0001AD8CEB12068C168490717D5802D15D021
:102FC000402D13D00168C94309070FD401680025BB
:102FD000406800902046FFF7B3FE0820606484F844
:102FE00040500120BDE8F8830320FBE7206800681B
:102FF00035EA000004D00020B842D2D00020F1E72A
:103000000120F9E7FEE700000FB4054B10B503A956
:10301000044A029800F05EF910BC5DF814FB000051
:10302000813C0008E40000200907090E002804DBA9
:1030300000F1E02080F80014704700F00F0000F16C
:10304000E02080F8141D704730B528B1144C031FE0
:10305000002021680A4605E0084630BD9A4203D8A0
:1030600010465268002AF9D1002800D041680BD0E0
:103070000468A3EB0005A54204D11B681C44034669
:10308000046002E0436000E023603AB11C68D51A96
:10309000A54203D115682C441C6052685A6030BDAB
:1030A000E80000200000000000B583B09FED060B93
:1030B0000A4601468DED000B6846FDF73AFD9DED91
:1030C000000B03B000BD0000000000000000000085
:1030D0002DE9F04782460F4C10480D4E0E4F001B55
:1030E0004FF0000820F007054FF0010900221146BB
:1030F000504600F039FE002802D1306810B100209F
:10310000BDE8F0873C60C4E90058C6F80090EDE7E0
:10311000EC000020DC4B0020E8000020D84D00200F
:1031200002E008C8121F08C1002AFAD17047704790
:10313000002001E001C1121F002AFBD170470000EE
:103140002DE9FF5F82B00021DDE90430020DDDF8DA
:1031500040B0034318D044F61050A2F2FF3242436D
:103160001514119801281FD0A5EB0B00401C5FEA35
:10317000000A4FF000064E4FDFF83891B046504637
:1031800015D5CAF1000413E0119801244AA30128BF
:1031900001D16FEA0B010298119AC0E90031C0E930
:1031A000024206B0BDE8F09FCBF10000DFE7044625
:1031B0000021404A491842EB0450CDE9001012E0CA
:1031C000E00707D032463B4640464946FDF743FB01
:1031D0008046894632463B4610461946FDF73BFB82
:1031E00006460F466410002CEAD1DDE90401DDE952
:1031F0000023BAF1000F06DAFDF72DFB42464B46DD
:10320000FDF729FB05E0FDF75BFD42464B46FDF768
:1032100057FD04460E460022284BFDF7D3FB03D88A
:103220004FF0FF30014607E00022254B2046314693
:10323000FDF76AFAFDF7BFFD102409E0002C0ADB58
:103240000A220023FDF730F8039B30321A55641E22
:1032500050EA0102F2D1641C039AC4F11103144430
:10326000119A012A03D0012208430DD10AE0084334
:1032700004D000204FF0110B119072E7A3EB0B0567
:103280006D1E0DE05B4504DD4FF0000205F1010508
:1032900004E003DA4FF00002A5F10105002AECD0AA
:1032A00002981199C0E90231C0E9004579E70000B0
:1032B000000014400000F03F300000000000F04328
:1032C0000000E03F30380A2801D20120704700207A
:1032D000704700002DE9FF4F95B09A468846064694
:1032E0000025EEE1252877D100242746F94A01215F
:1032F000039400E0044316F8013F203B01FA03F079
:103300001042F7D130782A2811D06FF02F0330788F
:10331000A0F13002092A16D8039A44F0020402EB05
:10332000820203EB42021044761C0390EFE758F848
:10333000042B0392002A03DA504244F40054039011
:1033400044F00204761C30782E2816D116F8010FAE
:1033500044F004042A280DD06FF02F023078A0F139
:103360003003092B09D807EB870302EB4303C71887
:10337000761CF3E758F8047B761C30786C280FD065
:1033800006DC4C2817D068280DD06A2814D104E038
:10339000742810D07A280FD10DE044F400140AE00C
:1033A00044F4801401E044F440147278824202D163
:1033B00004F58014761C761C307866280BD013DC5C
:1033C000582877D009DC002875D04528F6D0462843
:1033D000F4D047281AD193E118E0632835D0642847
:1033E00079D0652812D18BE1702873D008DC67286A
:1033F000F1D069286FD06E280DD06F2806D1ACE0CF
:1034000073282CD0752874D0782853D05246179939
:1034100090476D1C54E1C4F30250022809D00328E0
:103420000DD0D8F8001004280DD00D6008F1040864
:1034300046E1D8F80010EA17C1E90052F6E7D8F8DB
:1034400000100D80F2E70D70F0E718F8041B8DF8FE
:10345000001000208DF80100EB46012003E058F831
:1034600004BB4FF0FF3061074FF0000102D40DE0C4
:1034700009F101018946B9420FDA8145F8DB1BF8F1
:1034800009100029F4D108E009F1010189468142BF
:10349000FADB1BF809100029F6D103985346A0EB7C
:1034A000090721463846179A00F080FA284400EBB5
:1034B000090507E044E008E10DE01BF8010B524666
:1034C00017999047B9F10109F7D25346214638467A
:1034D000179AF2E039E00A21C4F302524FF0000BD0
:1034E0000091022A06D058F8040BC117032A09D00C
:1034F0000AE023E008F1070020F00702F2E80201E9
:10350000904605E000B2C117042A01D140B2C117AC
:10351000002906DA0A460021404261EB02012D2211
:1035200002E0220504D52B228DF80420012203E0BD
:10353000E20701D02022F7E7914657E00A2100E098
:1035400010214FF0000B00910BE010214FF0000B09
:1035500044F004040827009103E008204FF0000B1A
:103560000090C4F30252022A05D058F8040B00213F
:10357000032A08D008E008F1070020F00702F2E86B
:103580000201904603E080B2042A00D1C0B24FF09D
:10359000000922072AD53278702A07D0DDF800C04A
:1035A0008CF0100C5CEA0B0C05D00EE040228DF87C
:1035B0000420012208E050EA010306D030238DF8F0
:1035C00004308DF8052002229146009B83F0080309
:1035D00053EA0B030AD150EA010201D1620705D573
:1035E00030228DF804204FF001097F1E3278582ACE
:1035F00004D039A20C920CAA02920BE03BA2F9E78C
:103600005B46009AFCF750FE0C9B9B5C029A521E94
:103610000292137050EA0102F2D1029804A9081A2A
:1036200000F1200B600702D524F4803400E001276C
:103630005F4502DDA7EB0B0000E0002000EB0B0173
:10364000009003984944401A0390E00306D453467F
:103650002146179A039800F0A9F90544002706E0CF
:1036600001A85246C05D179990476D1C7F1C4F45BD
:10367000F6DBE0030CD553462146179A039800F079
:1036800095F9054404E030205246179990476D1C87
:103690000099481E00900029F5DC08E00298029984
:1036A00052460078491C0291179990476D1CBBF156
:1036B0000001ABF1010BF1DC5BE100F065F90544C1
:1036C000761C307800287FF40DAE19B02846BDE88E
:1036D000F08F00000928010030313233343536379D
:1036E000383961626364656600000000303132334E
:1036F00034353637383941424344454600000000EE
:10370000600700D4062708F1070020F00700F0E862
:103710000223804603F0004C5FEA0C0001D097A022
:1037200009E0200501D596A005E0E00701D095A0AD
:1037300001E0AFF24C001390307823F0004365288D
:103740000CD006DC452809D046281DD047287FD15B
:103750003BE0662818D067287AD136E00021112F87
:1037600001DB112000E0781CCDE9000104A90CA8C0
:10377000FFF7E6FCDDE90D010C9A4FF0000B07F1B5
:103780000109109200914EE04FF000400097CDE902
:10379000011004A90CA8FFF7D3FCDDE90D020C9B76
:1037A0000F994FF0000B91461093009211B9791CBC
:1037B00000EB0109B7EB090003D4C0F1FF3B07F1AF
:1037C0000109A9EB0700019042E0012F00DA01276F
:1037D0000021112F01DD112000E03846CDE9000164
:1037E00004A90CA8FFF7ACFCDDE90D010C9A0091CF
:1037F0004FF0000BB946109221070FD4009A4A45AA
:1038000003DA914601E0A9F10109B9F1010F05DDE3
:10381000109AA9F10101515C3029F4D0B84202DAC2
:1038200010F1040F03DA0121CDE9011010E00028A6
:1038300003DC8344A9EB000102E0411C494500DDA3
:103840008946A0EB0B00401C01904FF00040029015
:10385000200705D40198484502DB4FF0FF30019066
:1038600000208DF84B0002980DF14B07B0F1004F8E
:1038700025D002200C902B200D90029800280CDA05
:10388000404202902D200D9007E00A210298FDF79A
:10389000CDF83031029007F8011D0C99481E0C90AC
:1038A0000029F2DC02980028EFD1791E0D980870EB
:1038B000307800F0200040F0450007F8020D11A814
:1038C000C01BC01D02901398007800B1012000EBCE
:1038D0000901019801EBE071029801440398401A34
:1038E000401E0390E00306D453462146179A0398DE
:1038F00000F05CF805441398007818B15246179907
:1039000090476D1CE00323D553462146179A039830
:1039100000F04CF805441BE0BBF1000F07DB0098FA
:10392000584504DD1098179910F80B0001E017991D
:1039300030205246904701980BF1010B401E05F1D3
:103940000105019004D12E205246179990476D1C15
:10395000B9F10001A9F10109DEDC05E017F8010B5E
:103960005246179990476D1C0299481E02900029F3
:10397000F4DC53462146179A03989EE62D0000007A
:103980002B000000200000002DE9F0410446002536
:103990001E461746880404D405E039462020B04767
:1039A0006D1C641EF9D52846BDE8F0812DE9F04173
:1039B000044600251E469046C80301D5302700E086
:1039C0002027880404D505E041463846B0476D1CE1
:1039D000641EF9D52846BDE8F08110B530B1036802
:1039E00023B1D0E90121914201D204E0002010BDB1
:1039F000491C816020B1914202D25C5C202CF7D935
:103A00009142F4D1491E816010BD00002DE9F041C2
:103A100004460027104E1BE0A0892568C0050BD482
:103A2000A06820B1FFF7F2FFA089C00504D4206987
:103A300010B1716888472761A089800504D4206A85
:103A400010B17168884727627168204688472C4604
:103A5000002CE1D1BDE8F08138000020002200F008
:103A600045B910B5016828208847040002D02821F4
:103A7000FCF76AFC204610BD0022114600F06EB82B
:103A80002DE9F04788B00F4604469A4616461C2199
:103A90006846FCF759FC2F480025002C056045605E
:103AA00055D08146E7B3CDE900470295D9E9021226
:103AB000D9F810000491CDE9052009F10800FFF7BD
:103AC000D0FF5FEA00082BD000986F4608B102983B
:103AD00008B100270BE00198042808D903221EA191
:103AE0000098FCF751FC10B90298C01C02903846AF
:103AF000FFF773FF0146404600F0CEFC68B1BAF113
:103B0000000F13D06846FFF768FFDDE9010181422D
:103B100003D202990098405C40B14046FFF776FF1F
:103B2000DDE9011088420AD205460BE01EB1029978
:103B3000009808443060404608B0BDE8F087081E91
:103B400000D0451E0EB160193060C9E90045002063
:103B5000F2E7000030000020EFBBBF0070B5154653
:103B60000E46040009D0FCF7FAFB411C2B463246F6
:103B70002046BDE87040FFF783BF002070BD000005
:103B800001220149FEF7D8BB2E00002071B54FF489
:103B900061754FF0E023104E00981AE02C46A042C9
:103BA00000D804469869A4EBC40101EB410110EB75
:103BB000C10105D49A69824208DA8A42FADA05E03C
:103BC0008A1999698142FCDD9142FADC0098001B58
:103BD00000900028E2D178BD4090020010B50C465C
:103BE0005A2101F091F95A21204601F08DF94FF444
:103BF000967001F041FB03481E210068BDE81040AB
:103C000001F082B91000002070B5044619481E2149
:103C1000006801F079F92078174D184C4FF4FA76C6
:103C2000C8B1012819D0022820D0032820D187212B
:103C3000286801F069F9304601F01EFB3C2120683C
:103C400001F062F9304601F017FB29682068BDE8F1
:103C50007040FFF7C3BF2D2100E08721286801F0E5
:103C600053F9304601F008FB7821E8E72D21DFE722
:103C700070BD0000100000200C0000200800002093
:103C800008B5FF238DF80000012269460248FEF7BF
:103C90009FFB9DF8000008BD7402002010B504468B
:103CA000818800680122FDF76FFA1420FFF76EFF8C
:103CB000A18800222068FDF767FA142001F0DCFAE1
:103CC00007484068FCF739FE9FED061B53EC112BAB
:103CD000FCF7C1FDFCF78EFE00EE100A10BD0000DF
:103CE000140000209CC420B07268913F2DE9F0417F
:103CF0008846A8B3B8F1000F33D084680AB90AE047
:103D000024686CB3216A59B34046FCF72FFB0028A6
:103D1000F6D120E024681CB3266A5FEA0805F9D0D2
:103D2000002EF7D0B54218D002E098B16D1C761C79
:103D30002878FCF7EAFA07463078FCF7E6FA87427B
:103D40002878F2D0FCF7E1FA05463078FCF7DDFA86
:103D50008542DFD124B1206A10B12046BDE8F08150
:103D6000FFE70020FAE700002DE9F0410B3020F0DA
:103D70000706104D19E02068B04215D3B0420AD9A9
:103D8000871B201DD4F80480FCF7C5FAA019C0E9F0
:103D90000078286004E060682860201DFCF7BBFA0A
:103DA000201D2660BDE8F081251D2C68002CE2D185
:103DB0000020F7E7E800002070B5154800240068EF
:103DC000FFF76CFF10EE100A124DA84200DA012432
:103DD00011480068FFF762FF10EE100AA84201DAEE
:103DE00044F002040D480068FFF758FF10EE100A77
:103DF000A84201DA44F0040409480068FFF74EFFC6
:103E000010EE100AA84201DA44F00804204670BD02
:103E10001C00002000002041200000202400002081
:103E200028000020FDF7C4F9FEF7AEFDFEF73EFBCB
:103E3000FEF7E4FBFEF746FCFEF7DEFCFEF7F8FCBF
:103E4000FEF7A4FCFEF712FD0648FFF799FE06A058
:103E5000FFF7DAF800F010F8FEF70CFB00F01EF8A0
:103E6000FEE70000740200207265636569766520D4
:103E700073746172740A0000EFF3058010B16FF083
:103E8000050070470448016811B14FF0FF307047DA
:103E90000121016000207047B400002010B5EFF34D
:103EA000058010B16FF0050010BD084801680129B8
:103EB00002D04FF0FF3010BD054A002182F8141DDA
:103EC0000221016001F040FA002010BDB400002082
:103ED0000BE000E03EB5040001D0002903DA6FF0EA
:103EE000030001902BE04FF0FF300190EFF30580CD
:103EF000D0B1002502A800902B4601220295204651
:103F000001F056FE002201AB11462046009501F05B
:103F10004FFE029898B10B494FF080500860BFF3F4
:103F20004F8FBFF36F8F0AE000230122204601F07C
:103F3000CFFD002201AB1146204601F0C9FD0198DA
:103F40003EBD000004ED00E02DE9F84F894605462E
:103F50004FEA0206EFF3058010B16FF005041EE092
:103F6000002D02DA6FF0030419E05FEA897002D5D0
:103F70004FF0000800E0A8460024924601F0A8FE99
:103F80008346E71E53466A464146002001F00AFF79
:103F9000012807D00EB36FF001040028F2D12046AB
:103FA000BDE8F88F00982C4004435FEAC9700BD03D
:103FB00035EA0400F3D056B101F08AFEA0EB0B0005
:103FC000504506D9002006E02542E8D1F3E73C46FB
:103FD000E5E7AAEB00008246D4E73C46DDE70000B7
:103FE0002DE9FF414FEA01034FF00005EFF3058192
:103FF000039549BB40B38027182100244AB31668B3
:1040000006B1344696691EB13146761E382E02D26C
:104010001679F60703D0002004B0BDE8F081566998
:1040200006B1B708D2F808C0BCF1000F0DD0D568B2
:104030005C2D18D312693AB136B18DE806103A46B4
:10404000214601F01AFD03900DE0D6685EB91269B1
:104050004AB903AACDE90012BAB2214601F0E0FC48
:10406000012800D003950398D6E72DE9F0410746D3
:104070000025C8680C462E46B0F57A7F5BD2401CFE
:10408000E0602168A068095C5B2954D1401CA060F5
:104090002046FFF7A2FC4CB1D4E90110884203D2BC
:1040A0002268125C5D2A33D0884203D3A068401E88
:1040B000A06040E0401E04F11008A0604046FFF7F9
:1040C000D0FC98B30DB3306046600646A068401C33
:1040D000A0602046FFF781FC2146304600F0DCF965
:1040E00030B32046FFF779FC14B3D4E901108842BD
:1040F00003D22168095C2C29E0D06268904217D273
:104100002168085C5D2813D102E005462E46DDE7F4
:10411000E068401EE06005B16E602020C7E90250F3
:10412000A068401CA0600120BDE8F081FFE715B148
:104130002846FFF76BFC0020F6E7034610B5002089
:104140000246995CA1F13004092C01D830380AE00C
:10415000A1F14104052C01D8373804E0A1F1610434
:10416000052C08D857380844032A00D20001521CF5
:10417000042AE6D310BD002010BD0000F0B54FF0BA
:1041800000022DED028B91B00C0005464FF02E037E
:10419000114610923DD02068D8B36E4627E02768BC
:1041A0003844085C34281BD00ADCA0F12B07092F07
:1041B00023D2DFE807F01522151722151515150073
:1041C00038280DD006DC35280AD0362808D0372804
:1041D00013D105E0392803D0452801D065280CD13A
:1041E000705400E07354491C3F2906D22CB1A068DA
:1041F000D4F804C047186745D1D3725410A930468B
:10420000FEF752FF1098B0EE408AF0EE608A8642C8
:1042100004D1002011B0BDEC028BF0BD9FED130B5B
:1042200085ED068B53EC102B51EC180BFCF7CAFBF9
:1042300002D86FF000400FE09FED0E0B51EC180B11
:1042400053EC102BFCF7A6FB02D84FF0004003E024
:1042500051EC180BFCF77EFB68610820E8601099B0
:10426000A068891B0844A0600120D3E70000C0FFBC
:10427000FFFFDF41000000000000E0C12DE9F04138
:1042800007460026C8680C463546B0F57A7F7BD2D3
:10429000401CE060002C77D0D4E90110884273D232
:1042A0002168095C7B296FD1401CA0602046FFF784
:1042B00094FBD4E90110884203D22268125C7D2A63
:1042C0004FD08842A0F10100A0605DD204F1100837
:1042D0004046FFF7C6FBE8B30EB3286045600546CD
:1042E000CCB3D4E90110401C88424AD2A0602046D9
:1042F000FFF773FB2146284600F048F858B32046E4
:10430000FFF76BFB2869286200202861D4E90110BF
:10431000884236D22168095C3A2932D102E0064649
:104320003546DDE7401CA0602046FFF756FB2146DE
:10433000284600F0B1F870B12046FFF74EFBD4E9F3
:104340000110884203D22168095C2C29C0D0626820
:10435000904201E014E014E013D22168085C7D284B
:104360000FD1E068401EE06006B175604020C7E9EB
:104370000260A068401CA0600120BDE8F08103E05D
:1043800016B13046FFF742FB0020F6E72DE9F8436F
:1043900080468B6808684FF00009C418CDF800907B
:1043A00008680E46651CC15C641C22296ED100227F
:1043B000716808E0BCF15C0F04D17F1C8F4265D2AC
:1043C000521C641C641C271A8F4204D294F800C04B
:1043D000BCF1220FEED1271A8F4257D22178222921
:1043E00054D11844201A801A3169401C88470700AC
:1043F0004CD0009737E029785C2905D000986D1CD7
:1044000000F8011B00902EE00220611B012939DB1E
:104410006A78662A14D008DC222A12D02F2A10D0FB
:104420005C2A0ED0622A2DD108E06E2A0ED0722AA4
:104430000ED0742A0ED0752A24D10DE0082200E097
:104440000C22009901F8012B00910BE00A22F8E7F9
:104450000D22F6E70922F4E76A462146284600F0D5
:104460006FFD78B10544A542C5D3009981F800904D
:104470001021C8E903173068201A401CB0600120E1
:10448000BDE8F88317B171693846884715B13068BF
:10449000281AB0600020F3E770B50C0005465ED026
:1044A000206800285BD0A16863680A1D9A4205D87D
:1044B0000844042231A1FBF767FF78B3A068626863
:1044C000411D0126914206D82168052208442DA1EC
:1044D000FBF75AFF28B3A0686268011D914206D815
:1044E00021680422084429A1FBF74EFFE8B1D4E972
:1044F0000101814203D22268525C222A1DD08142EE
:1045000021D22268525C2D2A02D0303A092A1AD8C8
:1045100021462846BDE87040FFF730BE0420E86021
:1045200006E0EE60A068401D04E002206E61E860D5
:10453000A068001DA060012070BD21462846BDE88E
:104540007040FFF723BF814203D22268525C5B2A8E
:1045500007D0814203D22068405C7B2807D000202E
:1045600070BD21462846BDE87040FFF77EBD21465C
:104570002846BDE87040FFF781BE00006E756C6C88
:104580000000000066616C73650000007472756560
:10459000000000002DE9F041134C0F460546E66887
:1045A0002068001D00F035FD681C07D137B1216877
:1045B000BDE8F0410D48091D00F07ABD2068354482
:1045C000B5424560216805D2A06BBDE8F041091DE8
:1045D00000F056BD606B091D00F052FDA06A8542D7
:1045E00000D2A562BDE8F08164000020F40700203D
:1045F0002DE9F041054600F067FD2D4CA068401CF8
:10460000A06020682B4F10B1606930B32BE02560AB
:10461000A068012827D1002606EB860007EB800062
:1046200000F020FD761C382EF6D3234800F01AFD4A
:104630002148143000F016FD1F48283000F012FD0C
:104640001D483C3000F00EFD1B48503000F00AFDC4
:10465000194860631430A06305E02068E96AC06A05
:10466000884200D82560606A401C60626864E86A1D
:104670002169884200D9206100EB800007EB8000AF
:10468000291D00F015FD00F03FFD606900280CD0E9
:104690002068E96AC06A884207D208494FF0805012
:1046A0000860BFF34F8FBFF36F8FBDE8F08100004C
:1046B0006400002044030020A407002004ED00E073
:1046C00038B500F001FD104C2068C8B90F4800F063
:1046D000C9FC0E48143000F0C5FC0C48E0601430F2
:1046E00020610A4B0020F03B009003F150021021A2
:1046F0000A2000F037FF206010B105A100F086FD10
:10470000BDE8384000F000BDA0000020F8080020FF
:10471000546D72510000000030B4026C0B46002A48
:104720000BD0C1681144C1608468A14201D3016803
:10473000C16030BC1846FBF7EEBD30BC70472DE9B8
:10474000F041856B174604460026026C82B1C7B162
:10475000E068FBF7E0FDE168206C091AE16022687F
:10476000914202D2A168081AE060022F16D017E029
:104770002068A8B9A06801F05BFB06460020A06095
:104780000EE06068FBF7C7FD216C6068084460605C
:10479000A168884204D32068606001E005B16D1E05
:1047A0006D1CA5633046BDE8F08110B5044690F855
:1047B000590058B101280CD002280FD0502080F3A6
:1047C0001188BFF34F8FBFF36F8FFEE7206B00F0B0
:1047D000AFFC2046BDE8104000F0AABC10BD0000B0
:1047E00010484FF47051420706D0C01D0D4920F00B
:1047F0000700411AC1F570510B4A00230144C2E978
:1048000000030839183A21F0070111604B600B6072
:104810000B1AC0E9001393604FF0004053605061E1
:1048200070470000D80F0020D0000020144E154C17
:10483000A6F29C474FF08058DFF84C9012E000BF82
:1048400000F042FCF068C568281D00F0E2FBA0689B
:10485000401EA0606068401E606000F055FC284665
:10486000FFF7A3FF60680028EAD138680128F9D96A
:10487000C9F80080BFF34F8FBFF36F8FF2E70000DE
:10488000E00700206400002004ED00E070B51D4644
:10489000049C51B1C4F80020C4E90F010121204655
:1048A00000F094FE84F84C5070BD2460F4E70000E2
:1048B0002DE9F05F8846DDE90B94154683469100AB
:1048C0009A460A9EA522206BFBF737FD6FF0030185
:1048D000206B01EB8501084420F00707780707D01B
:1048E000502080F31188BFF34F8FBFF36F8FFEE727
:1048F0000025B8F1000F0FD05FF00000221818F863
:10490000001082F8341018F8001011B1401C102863
:10491000F4D384F8435001E084F83450382E00D3A7
:104920003726E662C4E91365201D00F0A6FB04F1FA
:10493000180000F0A2FB2461C6F138006462A06197
:10494000656584F8585052465946384600F05AFA80
:104950002060B9F1000F01D0C9F80040BDE8F09F18
:1049600030B5114900E011460A688242FBD34B681A
:104970005C18844203D14068184448600846436884
:104980001C18944209D1084C183C2468A24209D052
:1049900052681A4442600A6812680260814200D07C
:1049A000086030BD0460F9E7D000002070B5002435
:1049B00041600B4D0061914206D8D11A8269914243
:1049C00006D2011D286907E09A4203D2994201D319
:1049D000012403E0011DE86800F052FB204670BD91
:1049E000A000002010B5044600F06EFBA06B28B1BB
:1049F0005FF0000400F088FB204610BD0124F9E7B9
:104A000030B589B03C4D6EE00498002806DADDE947
:104A10000601059A90470498002864DB069C6069AB
:104A200010B1201D00F0F5FA03A800F0D7F80246F7
:104A300004980A2857D2DFE800F00505052D334A0F
:104A400005052D3394F8280040F0010084F8280073
:104A50000599A069059B01442046FFF7A7FF68B3AD
:104A6000216A2046884794F8280040073BD500205B
:104A700000900598A169002342181946204601F0CC
:104A8000E1FAD8B9502080F31188BFF34F8FBFF3FC
:104A90006F8FFEE714F8280F20F00100207022E04D
:104AA00094F8280040F0010084F828000598A061DF
:104AB00028B1811813462046FFF778FF13E05020F5
:104AC00080F31188BFF34F8FBFF36F8FFEE794F829
:104AD0002800810703D4204600F02AFB03E020F0E1
:104AE000010084F82800002204A9286800F0C2FE12
:104AF000002889D109B030BDA00000202DE9FC417B
:104B00000F46054600F064FC01A800F067F8044673
:104B1000019818B101F004FABDE8FC81254EAFB14F
:104B200030690068D0B30027291B3A46306800F08E
:104B300081FB01F0F5F90028EED11F494FF08050BC
:104B40000860BFF34F8FBFF36F8FE5E7A542EBD847
:104B500001F0E6F9F0682746C068C468201D00F03F
:104B600058FA94F82800410719D5A0692B46411935
:104B70003A462046FFF71AFFA8B100200346014637
:104B800000902A46204601F05DFA60B9502080F37B
:104B90001188BFF34F8FBFF36F8FFEE707E020F060
:104BA000010084F82800216A20468847B4E70127DD
:104BB000BAE70000A000002004ED00E00648416BC9
:104BC000096829B1416BC968C96849688162704741
:104BD0004FF0FF31FAE700006400002070B5054691
:104BE00001F076F8064E0446B068844203D200F025
:104BF00009F8012000E0002028602046B46070BD64
:104C0000A0000020F8B5194D20E0C068C46806680F
:104C1000201D00F0FEF9216A2046884794F82800FC
:104C2000400713D5A0693044B04206D924616060C2
:104C3000211DE86800F024FA08E000200346014640
:104C400000903246204601F0FDF938B1E86801686D
:104C50000029DAD12969C5E90310F8BD502080F395
:104C60001188BFF34F8FBFF36F8FFEE7A0000020C6
:104C700008484068401C4FF0500080F3118804D071
:104C8000BFF34F8FBFF36F8FFEE7BFF34F8FBFF3BD
:104C90006F8FFEE7D8000020074CE068016841B143
:104CA000C0680021D0F80000FFF728FFFFF7A8FE3A
:104CB000F3E701210020F7E7A00000202DE9F041F3
:104CC000044600F001FA94F9455004F1240609E085
:104CD000606A48B1304601F0EBF808B100F0FAFA2A
:104CE0006D1E6DB2002DF3DC4FF0FF3684F8456089
:104CF00000F00AFA00F0E8F994F9445004F11007C2
:104D000009E0206948B1384601F0D2F808B100F056
:104D1000E1FA6D1E6DB2002DF3DC84F84460BDE84D
:104D2000F04100F0F1B900002DE9F04105460027FF
:104D300000F04EFB324E306808B9FFF751FD706944
:104D400005424ED1C5B3083568070ED005F00700FF
:104D5000C0F108000544680707D0502080F311888F
:104D6000BFF34F8FBFF36F8FFEE72DB3706885429F
:104D700037D82348183001460C6801E020460C461D
:104D80006168A94202D221680029F7D131688C42BA
:104D900027D007682168016060680837411B102927
:104DA0000FD96019420708D0502080F31188BFF353
:104DB0004F8FBFF36F8FFEE713E041606560FFF731
:104DC000CFFD61687068401A7060B268904200D28E
:104DD000B060706901430020C4E90001F068401C24
:104DE000F06001F09DF8780707D0502080F311881B
:104DF000BFF34F8FBFF36F8FFEE73846BDE8F081FA
:104E0000B800002010B5031F4FF080741C601B1FFA
:104E100021F001011960191F044B0B6014390A605D
:104E2000091F6FF0020244380A6010BD714C00087F
:104E30002DE9F04704008A4616D054F8047CD4F8D3
:104E400000903E1F564500D956462046FEF7FCF816
:104E500005468846324621465046FEF785FF40B15A
:104E6000C0F80090BDE8F087BDE8F0470846FEF7BF
:104E70002FB944E9017955B129686A18211F8A427E
:104E800002D9611B091F2960C5F80480EAE7024ABC
:104E9000C2F80080E6E70000E80000202DE9F041BC
:104EA00004461248FEF7E8FD074632210F48FBF79B
:104EB0004BFACFB10EA13846FEF7D0FD06460EA143
:104EC0003846FEF7CBFD05460DA13846FEF7C6FD78
:104ED000317D2170696961604069A0603846FEF7E4
:104EE00095FD0020BDE8F0810120FBE722010020B4
:104EF0007370656369657300636F6F726458000057
:104F0000636F6F7264590000B42900D9B4210B4A51
:104F10000CCA01FB023189B2018105C832B1042AF1
:104F200007D00068082A07D0016470470068416311
:104F30007047006881637047C163704700000020BC
:104F40002DE9F04705460027481B164689460628E6
:104F50005DDBA81CFFF7F1F80446A0F55C414FF4B7
:104F60008060814253D3A4F55841824651451AD2FC
:104F7000A81DA9EB00014FF00C08062947DB0178BA
:104F80005C2944D14178752941D1801CFFF7D5F8BF
:104F9000A0F55C4151453AD2C4F3090161F39F2069
:104FA00000F5803002E04FF006082046802801D24C
:104FB000012110E0B0F5006F02D20221C0270AE003
:104FC000B0F5803F02D20321E02704E0B0F5881F4E
:104FD0001DD20421F0274A1E08E000BF00F0BF03E5
:104FE000346843F080038009A354521E12F0FF027C
:104FF000F4D1012901D9384301E000F07F00326883
:1050000010703068084430604046BDE8F0870020EA
:10501000FBE7D0E9013201699A60D0E901235A60C7
:105020004A68824201D182684A60002202610868AF
:10503000401E086008687047034B036003F15C0082
:10504000086080201060704720090020044B036036
:1050500003F15C0008604FF480701060704700003E
:105060007C0B002000F108014FF0FF32C0E9011273
:10507000C16001610021016070470021016170473A
:1050800030B50B685A1C02D000F1080202E0026938
:1050900004E02246546825689D42FAD953684B6063
:1050A00099608A60516008610168491C016030BDE7
:1050B00042684A6093688B609368596091600861A8
:1050C0000168491C01607047502080F31188BFF3CC
:1050D0004F8FBFF36F8F0A494868401C4860012812
:1050E0000CD10848006810F0FF0F07D0502080F363
:1050F0001188BFF34F8FBFF36F8FFEE7704700003B
:10510000D800002004ED00E00849486828B1401E9E
:10511000486001D180F311887047502080F31188D6
:10512000BFF34F8FBFF36F8FFEE70000D800002062
:1051300070B500282AD0164DA0F10804606869698E
:10514000084207D1502080F31188BFF34F8FBFF37F
:105150006F8FFEE722683AB1502080F31188BFF3C9
:105160004F8FBFF36F8FFEE78843606000F030F928
:1051700060686968084468602046FFF7F1FB2869A9
:10518000401C2861BDE8704000F0CABE70BD000040
:10519000B80000204FF0E020002101618161054945
:1051A0004FF47A720968B1FBF2F1491E416107219F
:1051B000016170476000002010B5FBF75FF81149EE
:1051C00010280ED300F1E02090F8F0030A78904206
:1051D00007D2502080F31188BFF34F8FBFF36F8F3A
:1051E000FEE709480068896800F4E060884207D952
:1051F000502080F31188BFF34F8FBFF36F8FFEE70E
:1052000010BD0000D80000200CED00E010B5084BE8
:10521000002200BF53F832401CB1521C082AF9D3B7
:1052200010BD43F8321003EBC201486010BD00000E
:105230000403002070B515460E460446FFF744FFF0
:1052400094F944100020491C01D184F8440094F9D9
:105250004510491C01D184F84500FFF755FFA06BAC
:1052600028B92A46314604F1240000F051F82046BE
:10527000BDE87040FFF722BD10B5020014D00F4802
:10528000006B38B1502080F31188BFF34F8FBFF30C
:105290006F8FFEE700F09CF800211046FFF77AF9C7
:1052A00000F03EFE002807D105494FF0805008600D
:1052B000BFF34F8FBFF36F8F10BD0000640000205D
:1052C00004ED00E002490A6A0260C9684160704763
:1052D0006400002001490120C8617047640000207B
:1052E00010B50C4650B1094909681831FFF7C8FEDE
:1052F0002046BDE810400121FFF74CB9502080F353
:105300001188BFF34F8FBFF36F8FFEE7640000205B
:1053100070B514460D4668B10A4909681831FFF79F
:10532000C7FE0CB14FF0FF3521462846BDE870405E
:10533000FFF730B9502080F31188BFF34F8FBFF3D0
:105340006F8FFEE76400002030B587B0002403941F
:1053500005AA04A903A80494FFF76EFEDDE9030182
:105360000094CDE90110002315A11748059A00F01B
:1053700084FB164D0028E8621FD000F033FE0128A0
:1053800009D0401C19D1502080F31188BFF34F8FF2
:10539000BFF36F8FFEE7502080F31188BFF34F8F6C
:1053A000BFF36F8F4FF0FF30A86201206861EC609F
:1053B00007B0BDE8304000F045B807B030BD000090
:1053C00049444C45000000002D48000864000020BE
:1053D0000248016B491C0163704700006400002013
:1053E000164810B5016B11B10121C16110BD00213A
:1053F000C1610169124A01E0B9B1491E01EB8103A3
:1054000052F82330002BF7D001EB810302EB83022B
:1054100002F1080453685B685360A34201D15B68E2
:105420005360DA680260016110BD502080F311887A
:10543000BFF34F8FBFF36F8FFEE7000064000020C3
:10544000440300201CB537480168374A914207D110
:10545000502080F31188BFF34F8FBFF36F8FFEE7AB
:1054600000683149491E884207D1502080F31188D5
:10547000BFF34F8FBFF36F8FFEE72C490878019081
:10548000FF20087008788DF800009DF800009DF856
:10549000002000F0F000904207D0502080F31188E7
:1054A000BFF34F8FBFF36F8FFEE79DF80000204CD6
:1054B00000F0500020700720A06005E09DF800205B
:1054C00052008DF80020401E9DF800201206F5D4F1
:1054D000A060032807D0502080F31188BFF34F8FBE
:1054E000BFF36F8FFEE74FF44070A0600198087023
:1054F0000C482030016841F470010160016841F0FE
:1055000070410160FFF746FE00206060FAF77EFE02
:105510000848016841F040410160FAF763FE00204D
:105520001CBD000000ED00E071C20F4100E400E08E
:10553000D800002034EF00E010B5502080F311882F
:10554000BFF34F8FBFF36F8F00F0C8FB18B1044952
:105550004FF080500860002080F3118810BD0000DB
:1055600004ED00E038B5049D18B153B1CAB181B162
:1055700020E0502080F31188BFF34F8FBFF36F8F6F
:10558000FEE7502080F31188BFF34F8FBFF36F8F7A
:10559000FEE7502080F31188BFF34F8FBFF36F8F6A
:1055A000FEE739B1502080F31188BFF34F8FBFF36E
:1055B0006F8FFEE750241C46012384F846302B46AB
:1055C0000094FFF763F9204638BD000070B50D4622
:1055D000040025D0FFF778FDD4E90F20216802FBF5
:1055E0000011A1600021A163216861600A46D4E92D
:1055F0000F01401E00FB0121E16021464FF0FF300A
:1056000001F8440F487004F110008DB1FFF72AFD36
:1056100004F12400FFF726FDFFF776FD012070BDA1
:10562000502080F31188BFF34F8FBFF36F8FFEE7D9
:1056300021690029F0D000F03BFC0028ECD004499F
:105640004FF080500860BFF34F8FBFF36F8FE3E7D9
:1056500004ED00E02DE9FF4782B01D468A464FF079
:105660000008040003D0BAF1000F08D011E0502068
:1056700080F31188BFF34F8FBFF36F8FFEE7206C6D
:1056800038B1502080F31188BFF34F8FBFF36F8F75
:10569000FEE7022D0AD1E06B012807D0502080F3ED
:1056A0001188BFF34F8FBFF36F8FFEE700F002FB4F
:1056B0003F4F4FF000094FF0805648B9049838B179
:1056C000502080F31188BFF34F8FBFF36F8FFEE739
:1056D000FFF7FAFCA06BE16B884207D3022D05D0DF
:1056E0000498D0B1B8F1000F1AD01EE02A465146F6
:1056F0002046FFF724F8616A19B104F1240000F094
:10570000D7FB20B13E60BFF34F8FBFF36F8FFFF722
:10571000FBFC012006B0BDE8F087FFF7F5FC22E0B6
:105720006846FFF7CFFD4FF00108FFF7EDFCFFF7EC
:105730004FFEFFF7C9FC94F94400401C01D184F8E6
:10574000449094F94500401C01D184F84590FFF73E
:10575000DBFC04A9684600F029F930B12046FFF7C8
:10576000ADFA00F0DDFB0020D4E7FFF7ADFCA06B45
:10577000E16B884213D1FFF7C7FC04F110000499D4
:10578000FFF7AEFD2046FFF799FA00F0C9FB0028AD
:105790009ED13E60BFF34F8FBFF36F8F98E7FFF747
:1057A000B3FC2046FFF78AFA00F0BAFB90E700004E
:1057B00004ED00E02DE9F0471F46904689460400BD
:1057C00003D0B9F1000F08D011E0502080F3118808
:1057D000BFF34F8FBFF36F8FFEE7206C38B15020BF
:1057E00080F31188BFF34F8FBFF36F8FFEE7022F57
:1057F0000AD1E06B012807D0502080F31188BFF355
:105800004F8FBFF36F8FFEE7FFF7D6FC5020EFF30B
:10581000118680F31188BFF34F8FBFF36F8FA06B9A
:10582000E16B884206D3022F04D0002086F3118852
:10583000BDE8F08794F94550A06B3A4649462046AA
:10584000FEF77DFF681C04D06D1C84F845500120D4
:10585000ECE7606A0028FAD004F1240000F028FB8D
:105860000028F4D0B8F1000FF1D00121C8F80010E1
:10587000EDE700002DE9F747002683B08A460400D3
:1058800003D0BAF1000F08D011E0502080F3118846
:10589000BFF34F8FBFF36F8FFEE7206C38B15020FE
:1058A00080F31188BFF34F8FBFF36F8FFEE700F0D7
:1058B00001FADFF8F4804FF000094FF0805748B943
:1058C000059838B1502080F31188BFF34F8FBFF394
:1058D0006F8FFEE7FFF7F8FBA56BC5B15146204679
:1058E000FEF71AFF6D1EA563206950B104F1100088
:1058F00000F0DEFA28B1C8F80070BFF34F8FBFF395
:105900006F8FFFF701FC012006B0BDE8F087059816
:1059100008B11EB106E0FFF7F7FB27E06846FFF786
:10592000D1FC0126FFF7F0FBFFF752FDFFF7CCFBA0
:1059300094F94400401C01D184F8449094F9450046
:10594000401C01D184F84590FFF7DEFB05A96846AD
:1059500000F02CF8002820460AD0FFF7AFF900F03D
:10596000DFFA2046FFF73EF80028B3D00020CBE74F
:10597000FFF738F890B104F124000599FFF7B0FC67
:105980002046FFF79BF900F0CBFA0028A2D1C8F817
:105990000070BFF34F8FBFF36F8F9BE72046FFF779
:1059A0008DF900F0BDFA95E704ED00E02DE9F04136
:1059B0000C46050011D0C4B1FFF786FB174BDA681F
:1059C0006E682068911B471C17D02F681B6A9F4286
:1059D00019D0964217D8012410E0502080F3118886
:1059E000BFF34F8FBFF36F8FFEE7502080F3118816
:1059F000BFF34F8FBFF36F8FFEE70024FFF784FBE9
:105A00002046BDE8F081884205D9401A206028462A
:105A1000FFF758FCF1E700202060DCE7640000207D
:105A20002DE9FF5F8346DDE90E87994616468A46D3
:105A30009000FFF779F905001CD05C20FFF774F99E
:105A4000040014D00020256384F85900CDE90240F9
:105A5000CDE900874B46324651465846FEF728FFAF
:105A60002046FEF7C5FD012004B0BDE8F09F2846A2
:105A7000FFF75EFB4FF0FF30F6E7F0B585B0DDE9EC
:105A80000B640A9DA6B1DCB15C2700972663022651
:105A900084F85960002604AFCDE90246CDE90057ED
:105AA000FEF706FF2046FEF7A3FD049805B0F0BD03
:105AB000502080F31188BFF34F8FBFF36F8FFEE745
:105AC000502080F31188BFF34F8FBFF36F8FFEE735
:105AD0002DE9F0411F4690460D46012690B104463F
