:020000040800F2
:10000000B8060020C501000823130008C910000825
:1000100021130008FD020008BF16000800000000C0
:10002000000000000000000000000000271300088E
:10003000FF02000800000000251300082913000833
:10004000DF010008DF010008DF010008DF01000810
:10005000DF010008DF010008DF010008DF01000800
:10006000DF010008DF010008DF010008DF010008F0
:10007000DF010008DF010008DF010008DF010008E0
:10008000DF010008DF010008DF010008DF010008D0
:10009000DF010008DF010008DF010008DF010008C0
:1000A000DF010008DF010008DF010008DF010008B0
:1000B000DF010008DF010008DF010008DF010008A0
:1000C000DF010008DF010008DF010008DF01000890
:1000D000DF010008DF010008DF010008DF01000880
:1000E000DF010008DF010008DF010008DF01000870
:1000F000DF010008DF010008DF010008DF01000860
:10010000DF010008DF010008DF010008DF0100084F
:10011000DF010008DF010008DF010008DF0100083F
:10012000DF010008DF010008DF010008DF0100082F
:10013000DF010008DF010008DF010008DF0100081F
:10014000DF010008DF010008DF010008DF0100080F
:10015000DF010008DF010008DF010008DF010008FF
:10016000DF010008DF010008DF010008DF010008EF
:10017000DF010008DF010008DF01000800000000C7
:10018000DF010008DF010008DF010008DF010008CF
:10019000DF010008DF010008DF010008DF010008BF
:1001A0000000000000000000DF010008DFF810D0B0
:1001B00000F092F800480047ED180008AFF3008007
:1001C000B80600200648804706480047FEE7FEE7DD
:1001D000FEE7FEE7FEE7FEE7FEE7FEE7FEE7FEE7F7
:1001E000CD130008AD0100082DE9F05F05460020A1
:1001F00092469B4688460646814640241BE0284698
:1002000041464746224600F057F853465A46C01A20
:10021000914110D311461846224600F03EF82D1A9F
:1002200067EB01084F4622460120002100F035F817
:1002300017EB00094E41201EA4F10104DFDC484603
:1002400031462A464346BDE8F09FD2B201E000F8AD
:10025000012B491EFBD270470022F6E710B513466A
:100260000A4604461946FFF7F0FF204610BD30B598
:100270000B46014600202022012409E021FA02F564
:100280009D4205D303FA02F5491B04FA02F52844FE
:10029000151EA2F10102F1DC30BD202A04DB203A58
:1002A00000FA02F1002070479140C2F1200320FAC9
:1002B00003F3194390407047202A04DB203A21FAC7
:1002C00002F00021704721FA02F3D040C2F120026F
:1002D0009140084319467047064C074D06E0E06818
:1002E00040F0010394E8070098471034AC42F6D37D
:1002F000FFF760FFCC1A0008EC1A0008FEE7704711
:1003000072B6FEE770B5044600F02EF90546601C93
:1003100002D004480078044400F026F9401BA042B3
:10032000FAD370BD080000202DE9F84FDFF8F8A1DE
:100330000022012403254FF00F090AF1040BAAF152
:10034000040E00BF0B6804FA02F63340B34270D1CA
:100350000F7907F00307012F01D0022F16D187680C
:100360004FEA420805FA08FC27EA0C07D1F80CC04E
:100370000CFA08FC4CEA070CC0F808C04768B74301
:100380000E79C6F3001696403E4346600E79F6435A
:10039000B6070AD0C7684FEA420C05FA0CF6B74315
:1003A0008E6806FA0CF63E43C6600E7906F0030628
:1003B000022E10D1D60800EB8608D8F82060570727
:1003C0004FEAD76C09FA0CF7BE430F6907FA0CF72E
:1003D0003743C8F8207006684FEA420C05FA0CF75C
:1003E000BE430F7907F0030707FA0CF7374307609E
:1003F0004E6816F4403F1CD04C4E376847F4804797
:100400003760366822F0030706F480460096484EAF
:1004100007EB060CDCF8086897073F0F09FA07F8A6
:1004200026EA0806DFF80C81404503D14FF00008AA
:1004300041E072E0DFF80081404502D14FF0010851
:1004400039E0DFF8F880404502D14FF0020832E091
:10045000DFF8EC80404502D14FF003082BE0DFF8D5
:10046000E480404502D14FF0040824E0DFF8D88052
:10047000404502D14FF005081DE0DFF8D08040452F
:1004800002D14FF0060816E0DFF8C480404502D1E3
:100490004FF007080FE0DFF8BC80404502D14FF075
:1004A000080808E0DFF8B080404502D14FF00908A5
:1004B00001E04FF00A0808FA07F848EA0608CCF805
:1004C0000888DAF800605746D1F804C09E435FEA16
:1004D000CC2C00D51E433E60DBF800605F46D1F8AF
:1004E00004C09E435FEA8C2C00D51E433E60DEF8BC
:1004F00000607746D1F804C09E435FEA8C3C00D58B
:100500001E433E60084F083F3E68D1F804C09E433A
:100510005FEACC3C00D51E433E60521C102AFFF41B
:1005200011AFBDE8F88F0000083C0140443802409C
:100530000030014000000240000402400008024078
:10054000000C02400010024000140240001802405B
:10055000001C024000200240002402400AB18161D8
:1005600070470904FBE700000148806870470000FD
:1005700008000020024881680278114481607047B9
:10058000080000200B4810B5016841F400710160BB
:10059000016841F480610160016841F4807101608B
:1005A000032000F061F80F2000F006F800F024F8B6
:1005B000002010BD003C024070B50D4D04464FF4C4
:1005C0007A712878B1FBF0F00A490968B1FBF0F0C4
:1005D00000F016FB48B9102C07D200222146501E0D
:1005E00000F022F800206C6070BD012070BD00009A
:1005F00008000020140000200A4808B5016841F4F2
:1006000080410160006800F4804000900548001FB0
:10061000016841F080510160006800F08050009056
:1006200008BD000044380240F0B40E4B1B680C4675
:10063000C3F30223C3F10705042D00D90425191DB6
:10064000072901D2002300E0DB1E012606FA05F18E
:10065000491E214099409E40761E16403143F0BC11
:1006600001F03EB80CED00E0064900F00702086812
:100670004FF6FF03184040EA0220034A1043086087
:10068000704700000CED00E00000FA052DE9F8438A
:100690001748016841F0805101600068154F00F073
:1006A0008050012600903E64FFF75EFF05464FF440
:1006B0007A78114C05E000BFFFF756FF401B40451C
:1006C0000DD86068C003F7D57E64FFF74DFF05467F
:1006D000464607E0FFF748FF401BB04202D903201F
:1006E000BDE8F88360688003F4D50020F8E70000D7
:1006F0004038024000000E42007000402DE9F047F3
:100700000E46050065D0DFF81481D8F80000F7B276
:1007100000F00F00B04207D288F80070D8F800004F
:1007200000F00F00B04254D128683D4C810712D52B
:10073000400703D5206840F4E05020602878000787
:1007400003D5206840F4604020602068A96820F04C
:10075000F000084320602878C0072DD03049686831
:100760000839012812D0022813D0032811D00968B3
:10077000890700292DDA216821F003010143216056
:10078000FFF7F2FE814641F2883A0EE009688903DC
:10079000EFE709688901ECE7FFF7E6FEA0EB090146
:1007A000514502D90320BDE8F0872068696800F050
:1007B0000C00B0EB810FEFD1D8F80010404601F0EB
:1007C0000F01B14207D90770006800F00F00B04276
:1007D00001D00120E7E72878400705D52068E968BF
:1007E00020F4E050084320602878000706D52068F0
:1007F000296920F4604040EAC100206000F018F848
:100800002168084AC1F30311515CC84006490860D9
:1008100006480068FFF7D0FE0020C4E7003C024015
:1008200008380240BC1A0008140000200C00002008
:10083000154810B5006810F00C02144813D0144984
:10084000042A0FD0082A0ED10F4C241F22682368D7
:1008500002F03F025B0207D52068C0F38810A0FBBE
:10086000010106E0084610BD2168C1F38811A1FB13
:1008700000010023FFF7B8FC2168C1F30141491CC6
:100880004900B0FBF1F010BD083802400024F4002C
:1008900040787D012DE9F84F04006ED02078DFF814
:1008A0004C93C007A9F104054AD009F1040001687E
:1008B000C1F38101012908D00068C0F3810002283A
:1008C0000AD1D9F80000400206D52868800337D540
:1008D00060680028E1D033E06068B0F5803F10D058
:1008E000B0F5A02F286810D020F480302860286848
:1008F00020F4802028606068A8B1FFF735FE064626
:100900000DE0286840F48030F4E740F4802028604F
:10091000F7E700BFFFF728FE801B642873D828681C
:100920008003F7D50CE0FFF71FFE064605E000BF89
:10093000FFF71AFE801B6428F0D828688003F7D4DC
:100940002078DFF8AC8280074FF0000A3ED5A74838
:10095000001D016811F00C0F08D00068C0F3810081
:1009600002280BD1D9F80000400207D4286880077C
:1009700016D5E068012800D112E033E1E068B8B193
:100980000120C8F80000FFF7EFFD064605E000BFB4
:10099000FFF7EAFD801B0228C0D828688007F7D53A
:1009A0002868216920F0F80040EAC10028600DE0C5
:1009B000C8F800A0FFF7D8FD064604E0FFF7D4FD15
:1009C000801B02281FD828688007F7D420780007EA
:1009D00022D5864F87486169703771B10121016066
:1009E000FFF7C2FD064604E0FFF7BEFD801B0228AC
:1009F00009D838688007F7D50EE0C0F800A0FFF7E7
:100A0000B3FD064605E082E0FFF7AEFD801B02283D
:100A10007DD838688007F7D42078400768D5DFF89C
:100A2000CCB100270BF13C0BDBF80000C0000BD46D
:100A3000DBF8001041F08051CBF80010DBF800002B
:100A4000012700F0805000906B4E3068C00510D434
:100A5000306840F480703060FFF786FD009005E05C
:100A6000FFF782FD0099401A022850D83068C0056F
:100A7000F6D55E4EA0686C3601280FD00528306888
:100A800010D020F001003060306820F004003060A9
:100A9000A068B8B1FFF768FD00900FE0306840F043
:100AA0000100F4E740F004003060F7E7FFF75CFD79
:100AB0000099411A41F28830814266D83068800737
:100AC000F4D50EE0FFF750FD009007E0FFF74CFD76
:100AD0000099411A41F28830814256D83068800727
:100AE000F4D42FB1DBF8001021F08051CBF80010C6
:100AF000A069C8B33D49091D0968C1F381010229F4
:100B00004AD00228504607D0C8F8600000E03CE018
:100B1000FFF72AFD04463BE04746C8F86000FFF7B0
:100B200023FD064605E000BFFFF71EFD801B0228DF
:100B30002BD828688001F7D4D4E907010843A16ABB
:100B40002E4A490802EB0141626A41EA82110843D8
:100B500094F82C1040EA0161C9F8001001203866B1
:100B6000FFF702FD044606E03EE000BFFFF7FCFC95
:100B7000001B022809D828688001F7D534E000BF9F
:100B8000FFF7F2FC001B022802D90320BDE8F88F12
:100B900028688001F4D427E00128F7D0D9F80000B4
:100BA000E26900F4800191421CD1226A00F03F0109
:100BB000914217D147F6C071626A0140B1EB821FC2
:100BC00010D1A26A4FF0FF3300F4403103EB520220
:100BD000B1EB024F06D194F82C1000F07060B0EB2E
:100BE000016F01D00120D1E70020CFE70438024097
:100BF00000004742800E4742007000400000FFFFA7
:100C000010B5401EB0F1807F01D3012010BD4FF020
:100C1000E02460610F21601700F062FD0020A061F8
:100C200007202061002010BD70B590F83C20012AFB
:100C300032D0012480F83C40022280F83D20036835
:100C40005A689D6822F070060A6832435A60134B56
:100C500002689A4214D0B2F1804F11D0104B9A42E0
:100C60000ED0104B9A420BD00F4B9A4208D00F4B2C
:100C70009A4205D00E4B9A4202D00E4B9A4204D1B2
:100C8000496825F080031943916080F83D400021B8
:100C900080F83C10084670BD022070BD0000014085
:100CA0000004004000080040000C00400004014027
:100CB000004001400018004010B5040003D094F833
:100CC0003D0010B107E0012010BD002084F83C0079
:100CD000204600F01FF8022084F83D00211D206806
:100CE00000F07CFB012084F8460084F83E0084F884
:100CF0003F0084F8400084F8410084F8420084F802
:100D0000430084F8440084F8450084F83D00002046
:100D100010BD000008B50C4A01680C48914207D18B
:100D2000016841F004010160006800F0040009E07E
:100D3000074A914207D1016841F00801016000684B
:100D400000F00800009008BD000800404038024054
:100D5000000C004070B5044690F83C0000250128C6
:100D600017D0012684F83C60022084F83D002068FA
:100D7000826822F0770222F47F428260086850285D
:100D800038D00DDC20284FD005DC90B3102811D1CD
:100D90004AE0022070BD302846D040280AD13BE00E
:100DA00060282FD070280DD0B0F5805F03D0B0F54B
:100DB000005F12D0012584F83D60002084F83C00DB
:100DC000284670BDCB68D1E90121206800F07FFB87
:100DD0002068816841F0770109E0CB68D1E9012101
:100DE000206800F074FB2068816841F480418160D4
:100DF000E1E719E0CA684968206800F03DFC50212D
:100E0000206806E0CA684968206800F046FC602156
:100E1000206800F066FBCEE7CA684968206800F0E9
:100E20002BFC40212068F4E7226801461046F0E7D9
:100E300030B587B0044614216846FFF70DFA204A02
:100E4000216800241F48022591420FD1016841F01A
:100E5000080101600068694600F0080005904FF441
:100E600070400090CDE90154174823E0174A9142A1
:100E700024D1016841F480710160016801F480713E
:100E80000591016841F0800101600068694600F049
:100E90008000059001200090CDE901540C48CDE977
:100EA0000345FFF741FA4FF4E0500090CDE90154BB
:100EB00008486946CDE90345FFF736FA07B030BD6B
:100EC0000008004030380240000C0240000C004096
:100ED00000200240001C024070B5044690F83C001F
:100EE00000260D4601280FD0012084F83C006AB18D
:100EF000042A1DD0082A2FD00C2A3FD0012600201A
:100F000084F83C00304670BD022070BD206800F0BF
:100F1000F1FA2068816941F00801816120688169E6
:100F200021F004018161206881692A69114311E07F
:100F3000206800F00FFB2068816941F40061816145
:100F40002068816921F480618161206881692A6952
:100F500041EA02218161D2E7206800F031FB20687C
:100F6000C16941F00801C1612068C16921F0040133
:100F7000C1612068C1692A69114311E0206800F04D
:100F800053FB2068C16941F40061C1612068C169F7
:100F900021F48061C1612068C1692A6941EA0221A6
:100FA000C161ACE710B5040003D094F83D0010B166
:100FB00007E0012010BD002084F83C00204600F02E
:100FC0001EF8022084F83D00211D206800F006FA7A
:100FD000012084F8460084F83E0084F83F0084F83D
:100FE000400084F8410084F8420084F8430084F80B
:100FF000440084F8450084F83D00002010BD70478F
:1010000010B50446022249B104290ED0082913D094
:1010100094F84100012816D0012010BD94F83E003C
:101020000128F9D184F83E200FE094F83F00012810
:10103000F2D184F83F2008E094F840000128EBD179
:1010400084F8402001E084F841200122206800F06B
:1010500031FA16492068164A884201D0904203D1DD
:10106000436C43F4004343642068884213D0B0F1DA
:10107000804F10D00F4988420DD00F4988420AD0C6
:101080000E49884207D0904205D00D49884202D0CF
:101090000C49884204D1816801F00701062903D078
:1010A000016841F001010160002010BD0000014015
:1010B000000401400004004000080040000C004013
:1010C0000040014000180040FEE700002DE9F0411B
:1010D00086B014216846FFF7BFF82B48002401684A
:1010E00041F001010160016801F001010591016811
:1010F00041F480710160016801F48071059101681B
:1011000041F080010160016801F0800105910168F2
:1011100041F008010160016801F0080105910168D2
:1011200041F040010160016801F040010591016852
:1011300041F0200101600068144F00F0200005908C
:10114000002202213846FFF709FADFF844804FF405
:101150008046002231464046FFF700FA0220009008
:101160000125CDE90154694638460394FFF7DCF8C0
:101170000096CDE90154694640460394FFF7D4F840
:1011800006B0BDE8F081000030380240001802408F
:101190000014024010B58EB00024079408940994FE
:1011A0000A940B941C2168460C94FFF755F82A48C2
:1011B000284901605921C0E9011444F61F61C0E9C2
:1011C00003148461FFF778FD08B1FFF799F84FF435
:1011D0008050079007A92048FFF7BCFD08B1FFF732
:1011E0008FF81D48FFF7DEFE08B1FFF789F80B9472
:1011F0000BA919480C94FFF717FD08B1FFF780F809
:101200006020CDE90004029400226946124804944B
:10121000FFF762FE08B1FFF773F8042269460E4833
:10122000FFF75AFE08B1FFF76BF8082269460A4833
:10123000FFF752FE08B1FFF763F80C226946064833
:10124000FFF74AFE08B1FFF75BF80348FFF7F0FD30
:101250000EB010BD000800402400002010B58EB074
:1012600000240794089409940A940B941C2168465E
:101270000C94FEF7F1FF29482749C0E90014611ECC
:10128000C0E9024104618461FFF716FD08B1FFF770
:1012900037F84FF48050079007A92048FFF75AFD10
:1012A00008B1FFF72DF81D48FFF77CFE08B1FFF7E6
:1012B00027F80B940BA919480C94FFF7B5FC08B15B
:1012C000FFF71EF86020CDE9000402940022694671
:1012D00012480494FFF700FE08B1FFF711F804224A
:1012E00069460E48FFF7F8FD08B1FFF709F8082234
:1012F00069460A48FFF7F0FD08B1FFF701F80C2234
:1013000069460648FFF7E8FD08B1FEF7F9FF034814
:10131000FFF78EFD0EB010BD000C00406C000020E9
:10132000FEE7FEE770477047FFF724B930B593B08A
:1013300030216846FEF790FF14210CA8FEF78CFFC1
:1013400020480025016841F080510160006800F0EC
:10135000805011901C48016841F4404101600068D0
:10136000022400F4404011900120039010200490CA
:10137000009406940820CDE90750B420CDE9090473
:1013800004200B906846FFF785FA08B172B6FEE7B5
:10139000FFF77CF908B172B6FEE70CA90F2081E8CF
:1013A00031004FF4A0500F904FF480501090052161
:1013B0000CA8FFF7A3F9002801D072B6FEE713B01E
:1013C00030BD000040380240007000400248016813
:1013D00041F470010160704788ED00E0F0B50268EB
:1013E000294C2A4D2A4E2B4F2B4B4FF0804CA042BC
:1013F00009D0604507D0A84205D0B04203D0B8421A
:1014000001D0984204D122F0700E4A6842EA0E02DE
:10141000A0421BD0604519D0A84217D0B04215D0C9
:10142000B84213D0984211D01C4DA8420ED01C4D8A
:10143000A8420BD01B4DA84208D01B4DA84205D096
:101440001A4DA84202D01A4DA84203D122F4407589
:10145000CA682A434D6922F080022A4302608A68E2
:10146000C2620A688262A04201D0984201D1096931
:101470000163012141610169C90703D0016921F0BC
:1014800001010161F0BD00000000014000040040C6
:1014900000080040000C00400004014000400140F2
:1014A000004401400048014000180040001C00407A
:1014B0000020004010B501F01F030121046A99408B
:1014C0008C430462016A9A401143016210BD10B559
:1014D000846842EA032224F47F440A432243826060
:1014E00010BD826822F070020A4342F00701816059
:1014F00070470000F0B5036A026A22F0010202623E
:1015000042688469124E24F073050C682C4323F062
:1015100002058B682B430D4DA84201D0B04205D186
:1015200023F00807CB683B4323F00403A84201D013
:10153000B04205D14D6922F4407215438A692A43AD
:1015400042608461496841630362F0BD000001406C
:1015500000040140F0B5026A036A23F0100303623D
:10156000436884690D6824F4E64444EA05248D68E0
:1015700022F0200242EA05120F4D104EA84201D07F
:10158000B04206D1CF6822F0800242EA071222F070
:101590004002A84201D0B04207D14D6923F4406314
:1015A00043EA85038D6943EA8503436084614968A2
:1015B00081630262F0BD00000000014000040140B0
:1015C000F0B5026A036A23F4807303624368C46956
:1015D00022F4007224F073050C68124E2C438D68BF
:1015E00042EA05220E4DA84201D0B04206D1CF6892
:1015F00022F4006242EA072222F48062A84201D06B
:10160000B04207D14D6923F4405343EA05138D6975
:1016100043EA05134360C4614968C1630262F0BDD7
:10162000000001400004014030B5046A026A22F45F
:10163000805202624268C3690D6823F4E64343EABC
:1016400005238D6824F4005444EA0534084DA8426B
:1016500002D0084DA84204D14D6922F4804242EAEA
:1016600085124260C36149680164046230BD0000B4
:10167000000001400004014010B5036A046A24F030
:1016800001040462846924F0F00444EA021423F0A3
:101690000A020A438461026210BD10B5036A046A3B
:1016A00024F010040462846923F0A00324F470443D
:1016B00044EA023243EA01118261016210BDFEE791
:1016C0000FB4054B10B503A9044A029800F028F89E
:1016D00010BC5DF814FB0000D918000818000020A9
:1016E0000907090E002804DB00F1E02080F800144F
:1016F000704700F00F0000F1E02080F8141D7047E3
:1017000002E008C8121F08C1002AFAD170477047CA
:10171000002001E001C1121F002AFBD17047000028
:101720002DE9FF4F8BB09A460F460546002606E08E
:1017300025280BD052460D9990476D1C761C2878B1
:101740000028F5D10FB03046BDE8F08F0024A04648
:101750000122604900E0044315F8013F203B02FAF2
:1017600003F00842F7D128782E2817D115F8010F79
:1017700044F004042A280ED06FF02F022878A0F13C
:10178000300109290AD808EB880102EB410100EB7E
:1017900001086D1CF2E757F8048B6D1C2878692846
:1017A0003ED006DC0028CDD063280BD0642804D1BD
:1017B00036E0732810D075284BD052460D999047CB
:1017C000761C85E017F8040B8DF8000000208DF8DA
:1017D0000100E946012003E057F8049B4FF0FF3079
:1017E00061074FF0000401D40AE0641C44450DDA9F
:1017F0008442FADB19F804100029F6D106E0641CD3
:101800008442FCDB19F804100029F8D1264404E0D6
:1018100019F8010B52460D999047641EF8D257E013
:1018200001CF4FF00A0B002802DA40422D2102E0DE
:10183000210504D52B218DF82410012103E0E107B7
:1018400005D02021F7E70DF1200908910CE00021D7
:10185000F9E701CF4FF00A0BF9E75946FEF707FD0C
:1018600001F1300209F8012D0028F6D1ADEB090095
:1018700000F1200B600701D44FF00108D84502DDCC
:10188000A8EB0B0000E000208046002406E009A839
:101890005246005D0D999047641C761C089884425E
:1018A000F5DB04E0302052460D999047761CB8F1E4
:1018B0000001A8F10108F5DC05E019F8010B52461A
:1018C0000D999047761CBBF10001ABF1010BF4DCE4
:1018D0006D1C34E70928010038B504468DF8000076
:1018E00069460320ABBE204638BD0000FEF74AFE25
:1018F000FFF71CFDFFF7EAFBFFF74CFCFFF7AEFC20
:1019000000F0D2F800221146154800F07DF8074695
:1019100000220421124800F077F806464FF496752D
:101920000024A1B2384600F053F8A1B2304600F0CE
:101930004FF82846FEF7E6FC641DB42CF1DBB42416
:10194000A1B2384600F044F8A1B2304600F040F8A9
:101950002846FEF7D7FC641F002CF1DCE0E700000E
:1019600024000020F0B50B30154D20F007010024B5
:10197000144A0FE003688B420BD38B4205D95E1AE1
:1019800043184768C3E9006700E04368136002C07A
:1019900004E0021D10680028ECD12046002802D186
:1019A000286808B10020F0BD064A07481060074AC1
:1019B000121A22F00702C0E9002401202860D7E7AC
:1019C000200000201C000020BC000020B8020020E5
:1019D000B42900D9B4210B4A0CCA01FB023189B2E7
:1019E000018105C832B1042A07D00068082A07D04F
:1019F0000164704700684163704700688163704705
:101A0000C1637047000000202DE9F04107461546EC
:101A10000E461020FFF7A6FF040004D10D2218A1E6
:101A20001CA0FFF74DFEC4E900761D4965813846CC
:101A300009884D4325811B49E1603146FFF7E0FAF3
:101A400020B113220EA113A0FFF73AFE606850B137
:101A500004280DD021680828208909680DD0086461
:101A60002046BDE8F0812168208909684863F7E7CE
:101A70002168208909688863F2E7C863F0E70000FD
:101A80002E2E5C436F72655C5372635C7374656584
:101A9000722E63004552524F523A25732C25640032
:101AA00000000020D119000803480B2101604FF409
:101AB000FA71416070470000000000200000000043
:101AC000000000000102030406070809EC1A0008E0
:101AD000000000202400000000170008101B000870
:101AE00024000020940600001017000800000000E9
:101AF00000000000010000001000000000000000D5
:101B00000024F400000000000000000000000000BD
:04000005080001AD41
:00000001FF
